S018000070726F6A6563745F6370756C61746F722E737265634C
S21400000018F09FE518F09FE518F09FE518F09FE5BB
S21400001018F09FE518F09FE518F09FE518F09FE5AB
S2140000204000000050230000542300005823000026
S2140000305C2300004C2300006023000064230000C3
S214000040260000EA8C609FE5000056E380402DE91C
S214000050016046E21E00000A7C509FE50000A0E317
S2140000600010A0E30C2015E510E015E5084015E5A6
S21400007002005EE1042082000900000A000054E34A
S2140000800700000A0270A0E102C0A0E10C00BEE872
S2140000900C00ACE80C3067E0030054E10C20A0E153
S2140000A0F9FFFF1A04E015E500005EE30230A01138
S2140000B00300000A0300A3E803C062E00C005EE150
S2140000C0FBFFFF1A016046E2010076E3145085E26A
S2140000D0E3FFFF1A830800EB010000004C24000039
S2140000E03C108FE21600A0E3563412EF000050E3F7
S2140000F0080000BA28209FE51CD09FE5080092E57E
S214000100000050E300D0A01110109FE5040092E517
S214000110000050E300008115C9FFFFEAF8FFFF3F2B
S21400012070260B00A0260B0000D01FE5C4FFFFEAD8
S214000130F8FFFF3F08402DE92C009FE52C309FE597
S214000140033060E0060053E30100008A0840BDE883
S2140001501EFF2FE118309FE5000053E3FAFFFF0A69
S2140001600FE0A0E113FF2FE1F7FFFFEA78260B0070
S2140001707B260B000000000008402DE934009FE5B8
S21400018034309FE5033060E04331A0E1A33F83E0D5
S214000190C310B0E10100001A0840BDE81EFF2FE1C1
S2140001A018209FE5000052E3FAFFFF0A0FE0A0E1E7
S2140001B012FF2FE1F7FFFFEA78260B0078260B00E8
S2140001C00000000010402DE92C409FE50030D4E5EB
S2140001D0000053E30600001AD5FFFFEB1C309FE536
S2140001E0000053E318009F1500F020130130A0E331
S2140001F00030C4E51040BDE81EFF2FE178260B0056
S21400020000000000F023000008402DE934309FE590
S214000210000053E330009F1530109F1500F02013A8
S2140002202C009FE5003090E5000053E30300000A31
S21400023020309FE5000053E30FE0A01113FF2F11BD
S2140002400840BDE8CBFFFFEA00000000F0230000F6
S2140002507C260B005024000000000000003090E5D3
S214000260002091E5002080E5003081E51EFF2FE1AB
S214000270943602E30B3040E3003093E58000A0E1C3
S214000280011583E0B02081E11EFF2FE108402DE933
S214000290943602E30B3040E3000093E5FF1F0FE3C4
S2140002A00F29A0E3EE0600EB0880BDE8F04F2DE92D
S2140002B014D04DE20C008DE508108DE504208DE588
S2140002C000308DE5F8A3DDE1033061E0000053E384
S2140002D0003063B2022060E0C27F22E0C27F47E0C7
S2140002E0070053E10070A0D30170A0C3000057E3DD
S2140002F00500000A0C008DE208108DE2D6FFFFEB29
S21400030004008DE20D10A0E1D3FFFFEB04309DE565
S2140003100C209DE5030052E1050000DA0C008DE29A
S21400032004108DE2CCFFFFEB08008DE20D10A0E17B
S214000330C9FFFFEB04209DE50C509DE5029065E0AB
S2140003407990FFE600109DE508309DE5018063E0AA
S214000350000058E3008068B27940BFE6004064E2DF
S214000360A44F84E0D440EFE77360FFE6FFBF0FE3DF
S214000370030051E101B0A0C37550FFE67510BFE65B
S214000380010052E1130000BA000057E37600BF16E2
S2140003900100A0017610BF060A20A0E1B3FFFFEB24
S2140003A0044088E07430FFE67340FFE6020914E379
S2140003B00B6086007660FF06034069007440FF0607
S2140003C0015085E27550FFE67510BFE604309DE5E6
S2140003D0030051E1EBFFFFDA14D08DE2F08FBDE8A9
S2140003E0F0472DE90090A0E10180A0E10270A0E1B5
S2140003F00060A0E306A0A0E1090000EA0500A0E175
S214000400081084E00720A0E198FFFFEB014084E29B
S214000410040054E3F8FFFF1A016086E2040056E386
S214000420F087BD080A40A0E1095086E0F2FFFFEA27
S214000430F8452DE90170A0E10260A0E10050A0E1BE
S2140004400A80A0E300A0A0E30B0000EA0500A0E1FC
S214000450071084E00620A0E184FFFFEB014084E261
S2140004600A0054E3F8FFFF1A018048E27880FFE6AE
S214000470015085E2000058E3F885BD080A40A0E177
S214000480F1FFFFEAFF3F03E3203F4FE30120A0E335
S214000490DF2F03E5D33F13E5010013E31EFF2F0113
S2140004A0FF2F03E3202F4FE3D33F12E5010013E3B2
S2140004B0FCFFFF1A1EFF2FE1F8452DE90070A0E1B2
S2140004C00150A0E14480A0E300A0A0E30060E0E3C8
S2140004D00B0000EA070084E00510A0E10620A0E17A
S2140004E062FFFFEB014084E2500054E3F8FFFF1A7E
S2140004F0018048E27880FFE6015085E2000058E37C
S214000500F885BD080A40A0E1F1FFFFEAF84F2DE9A3
S21400051000B0A0E10190A0E198709FE500A0A0E3E4
S214000520585402E3005040E31C0000EA000094E543
S214000530041014E5003481E0042095E500C095E53C
S21400054002C48CE00C0053E10C00000A08C095E5DC
S2140005500C2482E0020053E10800000AA8C795E5D3
S214000560A42795E50C2482E0020053E10300000A6C
S2140005700600A0E10810A0E17320BFE63BFFFFEBFA
S214000580084084E2016086E2070054E1E6FFFF1AB5
S21400059001A08AE20A7D87E244005AE3F88FBD088C
S2140005A00A418AE0844385E0044084E20B60A0E1CF
S2140005B009808AE0DCFFFFEADC260000F04F2DE928
S2140005C00CD04DE200B0A0E104108DE58C709FE5E4
S2140005D000A0A0E330640CE3006040E3A29E86E245
S2140005E0089089E2140000EA002094E5043014E53F
S2140005F0020483E02CCA96E5281A96E50C1481E0DE
S214000600010050E10400000A0020A0E10500A0E17E
S2140006100810A0E17220BFE614FFFFEB084084E25A
S214000620015085E2070054E1EEFFFF1A01A08AE2BE
S214000630057D87E225005AE30600000A0A418AE0A3
S214000640044389E0044084E20B50A0E104309DE5B9
S21400065003808AE0E3FFFFEA0CD08DE2F08FBDE86E
S2140006609CCF0000F84F2DE900B0A0E10190A0E17A
S21400067068609FE50080A0E379AF46E2110000EADB
S214000680002094E5043014E5021483E0000051E3F2
S2140006900400000A0120A0E10500A0E10710A0E187
S2140006A07220BFE6F1FEFFEB084084E2015085E2CF
S2140006B0060054E1F1FFFF1A018088E21E6E86E212
S2140006C02E0058E3F88FBD08084268E084428AE0AE
S2140006D0044084E20B50A0E1097088E0E7FFFFEADF
S2140006E07CFE0000F84F2DE900B0A0E10190A0E1EB
S2140006F06C609FE500A0A0E3FF7F0FE3110000EA17
S214000700002094E5043014E5021483E0070051E16C
S2140007100400000A0120A0E10500A0E10810A0E105
S2140007207220BFE6D1FEFFEB084084E2015085E26E
S214000730060054E1F1FFFF1A01A08AE21E6E86E26F
S2140007403A005AE3F88FBD080A426AE014309FE583
S214000750844283E0044084E20B50A0E109808AE0F2
S214000760E6FFFFEABC540100D8520100F84F2DE91D
S21400077000B0A0E10190A0E150609FE50080A0E3FA
S21400078030A046E20B0000EA0420B5E50400A0E134
S2140007900710A0E17220BFE6B4FEFFEB014084E242
S2140007A0050056E1F7FFFF1A018088E2346086E212
S2140007B00D0058E3F88FBD083430A0E393A825E079
S2140007C0045045E20B40A0E1097088E0EDFFFFEA27
S2140007D0C8BF010070402DE90060A0E10140A0E123
S2140007E0DF2400E311FFFFEB0A5086E20500A0E1DC
S2140007F00410A0E10020E0E30CFFFFEB0A4084E2D7
S2140008000600A0E10410A0E10020E0E307FFFFEBF4
S2140008100500A0E10410A0E1DF2400E303FFFFEBE6
S2140008207080BDE870402DE90050A0E30560A0E1AF
S214000830080000EA0500A0E10410A0E1E4FFFFEBD9
S214000840144084E2F00054E3F9FFFF1A145085E2E6
S214000850050D55E37080BD080640A0E1F4FFFFEAF1
S214000860F84F2DE90170A0E350B09FE50090A0E39B
S21400087081A200E30C0000EA043015E5002A95E4A6
S214000880022483E10600A0E10410A0E17220BFE686
S21400089076FEFFEB014084E2F00054E3F5FFFF1A1A
S2140008A0027087E20A0057E1F88FBD08016047E250
S2140008B0D660EEE707518BE00940A0E1EDFFFFEAC6
S2140008C03CC2010008402DE90200A0E10310A0E1AF
S2140008D00020A0E30030A0E3460500EB000050E354
S2140008E00000000AFEFFFFEA0000A0E30010A0E3FD
S2140008F0F01F43E30880BDE8F0472DE910D04DE235
S2140009000080A0E10190A0E10020A0E30030A0E379
S214000910C20200EB0020A0E30030A0E3E03F43E388
S214000920C20300EB0040A0E10150A0E10020A0E1DE
S2140009300130A0E1BD0300EB0060A0E10170A0E182
S2140009400820A0E10930A0E1120500EB000050E30A
S2140009502200001AF880CDE1FAAFA0E30020A0E361
S2140009600030A0E3F020CDE1120000EAD000CDE197
S214000970D820CDE1A90200EB0020A0E30030A0E3E0
S214000980E03F43E3A90300EB0040A0E10150A0E1F3
S2140009900020A0E10130A0E1A40300EB0060A0E18C
S2140009A00170A0E10820A0E10930A0E1F90400EB05
S2140009B0000050E30900001A0800A0E10910A0E1B9
S2140009C00620A0E10730A0E1F80400EB000050E3A9
S2140009D0F840CD11F040CD0101A05AE2E2FFFF1A27
S2140009E00400A0E10510A0E110D08DE2F087BDE87C
S2140009F0F04F2DE9ACD04DE26D0500EB1F3508E356
S214000A00EB3145E39310C3E0C02FA0E1433362E02F
S214000A10C820A0E3920363E0503083E27330FFE621
S214000A2010308DE5620500EB49360DE3B9324FE331
S214000A309320C3E0002083E0C03FA0E1C23363E020
S214000A40833183E0033263E0003063E0443083E2C6
S214000A507330FFE614308DE5550500EBA03F80E0CF
S214000A60013003E2A00F43E08030A0E1013043E212
S214000A707330FFE63C308DE54D0500EBA03F80E08F
S214000A80013003E2A00F43E08030A0E1013043E2F2
S214000A907330FFE640308DE5450500EBB73006E3E2
S214000AA00B364BE39310C3E0002083E0C03FA0E189
S214000AB0C23363E0B420A0E3920363E0503083E2E5
S214000AC07330FFE618308DE5390500EB833002E31E
S214000AD0083248E39320C3E0002083E0C03FA0E153
S214000AE0423363E0033363E0833040E0443083E224
S214000AF07330FFE61C308DE52D0500EBA03F80E04F
S214000B00013003E2A00F43E08030A0E1013043E271
S214000B107330FFE644308DE5250500EBA03F80E00E
S214000B20013003E2A00F43E08030A0E1013043E251
S214000B307330FFE648308DE51D0500EBB53004E365
S214000B400B344BE39310C3E0002083E0C03FA0E1EA
S214000B50C23363E0B620A0E3920363E0503083E242
S214000B607330FFE620308DE5110500EB933402E389
S214000B70493249E39320C3E0002083E0C03FA0E170
S214000B80423363E0833163E0033240E0443083E283
S214000B907330FFE624308DE5050500EBA03F80E0CE
S214000BA0013003E2A00F43E08030A0E1013043E2D1
S214000BB07330FFE64C308DE5FD0400EBA03F80E08F
S214000BC0013003E2A00F43E08030A0E1013043E2B1
S214000BD07330FFE650308DE50040A0E3196E08E361
S214000BE0166442E3E370A0E34F510DE3C25941E3BC
S214000BF0EF0400EBEE0400EBA03F80E0013003E2E0
S214000C00A00F43E08030A0E1013043E294208DE263
S214000C10B23084E1E60400EBA03F80E0013003E25E
S214000C20A00F43E08030A0E1013043E280208DE257
S214000C30B23084E1DE0400EB9630C2E0C03FA0E1B3
S214000C40C23263E0970360E0500080E26C308DE2D1
S214000C50B30084E1D60400EB9510C2E0C03FA0E1EB
S214000C60423263E0032183E0823263E0000063E007
S214000C70440080E2583084E20D20A0E1B20083E117
S214000C80024084E2140054E3D8FFFF1AFF4F03E348
S214000C90204F4FE33233A0E3DB3F04E5DF3F14E5AC
S214000CA0945602E30B5040E3003085E576FDFFEBFB
S214000CB0F3FDFFEBDF3F14E5003085E572FDFFEB4B
S214000CC00331A0E3DB3F04E5DF3F14E5003085E5B4
S214000CD00C508DE5981102E30B1040E354108DE59F
S214000CE00C209DE5B490D2E1289089E2B6A0D2E12E
S214000CF022A08AE20080A0E308B0A0E17990BFE6D7
S214000D007AA0BFE604908DE56C308DE2B30098E1E2
S214000D10060080E27000BFE6090060E08C0200EB8F
S214000D200040A0E10150A0E108A08DE5581088E23F
S214000D300D30A0E1B30091E1060080E27000BFE64E
S214000D400A0060E0820200EB0020A0E10130A0E192
S214000D50B60200EB0060A0E10170A0E10400A0E193
S214000D600510A0E10420A0E10530A0E1AF0200EBF1
S214000D700020A0E10130A0E10600A0E10710A0E1FC
S214000D80A60100EBDBFEFFEB0020A0E30030A0E3B3
S214000D90443044E3050400EB000050E301B0A01328
S214000DA0028088E2140058E3D5FFFF1A10209DE564
S214000DB07220FFE628208DE514309DE57330FFE6AF
S214000DC02C308DE5140082E27000BFE604909DE5AD
S214000DD0090060E05E0200EB0060A0E10170A0E1A7
S214000DE02C109DE5120081E27000BFE608A09DE58C
S214000DF00A0060E0560200EB0040A0E10150A0E1CE
S214000E000600A0E10710A0E10620A0E10730A0E15F
S214000E10860200EB0060A0E10170A0E10400A0E102
S214000E200510A0E10420A0E10530A0E17F0200EB60
S214000E300020A0E10130A0E10600A0E10710A0E13B
S214000E40760100EBABFEFFEB0020A0E30030A0E352
S214000E504A3044E3D50300EB000050E301B0A01392
S214000E6018209DE57220FFE630208DE51C309DE5BC
S214000E707330FFE634308DE51E0082E27000BFE678
S214000E8004909DE5090060E0310200EB0060A0E1FF
S214000E900170A0E134109DE5170081E27000BFE606
S214000EA008A09DE50A0060E0290200EB0040A0E1F2
S214000EB00150A0E10600A0E10710A0E10620A0E195
S214000EC00730A0E1590200EB0060A0E10170A0E14C
S214000ED00400A0E10510A0E10420A0E10530A0E197
S214000EE0520200EB0020A0E10130A0E10600A0E1E4
S214000EF00710A0E1490100EB7EFEFFEB0020A0E317
S214000F000239A0E34C3044E3A80300EB000050E3B2
S214000F1001B0A01320209DE57290FFE624309DE5E9
S214000F207330FFE638308DE51E0089E27000BFE6BC
S214000F3004109DE5010060E0050200EB0040A0E122
S214000F400150A0E138209DE51D0082E27000BFE65A
S214000F5008A09DE50A0060E0FD0100EB0020A0E18E
S214000F600130A0E1310200EB0060A0E10170A0E1D9
S214000F700400A0E10510A0E10420A0E10530A0E1F6
S214000F802A0200EB0020A0E10130A0E10600A0E16B
S214000F900710A0E1210100EB56FEFFEB0020A0E3C6
S214000FA00239A0E34F3044E3800300EB000050E337
S214000FB001B0A0131AFEFFEB54009DE5A43090E5A7
S214000FC0002093E5040012E30600000A0C109DE5DD
S214000FD0B620D1E17210BFE6AB0051E3022082D208
S214000FE00C009DD5B620C0D1002093E5020012E388
S214000FF00600000A0C109DE5B620D1E17210BFE68F
S214001000000051E3022042C20C009DC5B620C0C1BC
S214001010002093E5010012E30600000A0C109DE58F
S214001020B420D1E17210BFE6EF0051E3022082D275
S2140010300C009DD5B420C0D1003093E5080013E322
S2140010400500000A0C109DE5B430D1E17320BFE620
S214001050000052E3023043C2B430C1C10C209DE50B
S214001060F400D2E1F610D2E127FDFFEB0040A0E34A
S214001070327100E30080E0E301A0A0E36C308DE273
S21400108094208DE2B26094E1B32094E1026086E0A1
S2140010907660FFE6B36084E180308DE2B35094E181
S2140010A0581084E20D00A0E1B03091E1035085E0D5
S2140010B07550FFE6B05081E17630BFE6000053E39E
S2140010C00A0000CA94308DE2B3A084E1B80300EBB6
S2140010D0A03F80E0013003E2A00F43E08030A0E1B3
S2140010E0013043E280208DE2B23084E10C0000EA59
S2140010F07630BFE6070053E1090000DA94308DE24F
S214001100B38084E1AA0300EBA03F80E0013003E255
S214001110A00F43E08030A0E1013043E280208DE262
S214001120B23084E17530BFE6000053E30A0000CA1F
S21400113080308DE2B3A084E19D0300EBA03F80E009
S214001140013003E2A00F43E08030A0E1013043E22B
S21400115094208DE2B23084E10C0000EA7530BFE6E0
S214001160E20053E3090000DA80308DE2B38084E1C8
S2140011708F0300EBA03F80E0013003E2A00F43E0C6
S2140011808030A0E1013043E294208DE2B23084E169
S2140011907600BFE67510BFE673FDFFEB024084E203
S2140011A0140054E3B4FFFF1A10009DE57030BFE64C
S2140011B0000053E3070000DA0310A0E1FF3F0FE34F
S2140011C0172100E33C009DE5020051E10300A0C1A9
S2140011D03C008DE5010000EA0110A0E33C108DE51F
S2140011E014209DE57230BFE6000053E3060000DAE7
S2140011F07220BFE6FF3F0FE340009DE5CA0052E3C2
S2140012000300A0C140008DE5010000EA0110A0E344
S21400121040108DE518209DE57230BFE6000053E3D0
S214001220070000DA0310A0E1FF3F0FE3032100E30D
S21400123044009DE5020051E10300A0C144008DE595
S214001240010000EA0110A0E344108DE51C209DE596
S2140012507230BFE6000053E3060000DA7220BFE6F5
S214001260FF3F0FE348009DE5C10052E30300A0C125
S21400127048008DE5010000EA0110A0E348108DE566
S21400128020209DE57230BFE6000053E3070000DA39
S2140012900310A0E1FF3F0FE3052100E34C009DE5AE
S2140012A0020051E10300A0C14C008DE5010000EAF8
S2140012B00110A0E34C108DE524209DE57230BFE6BA
S2140012C0000053E3060000DA7220BFE6FF3F0FE39C
S2140012D050009DE5B30052E30300A0C150008DE529
S2140012E0010000EA0110A0E350108DE528209DE5DE
S2140012F03C009DE5003082E07330FFE610308DE55F
S2140013002C109DE540209DE5023081E07330FFE61D
S21400131014308DE530009DE544109DE5013080E0F9
S2140013207330FFE618308DE534209DE548009DE5D6
S214001330003082E07330FFE61C308DE54C109DE5F2
S214001340019089E07990FFE620908DE538209DE5B4
S21400135050009DE5003082E07330FFE624308DE5D6
S21400136010109DE57100BFE614209DE57210BFE6E3
S21400137091FCFFEB18309DE57300BFE61C209DE551
S2140013807210BFE6B6FCFFEB20909DE57900BFE645
S21400139024309DE57310BFE6D1FCFFEB38FCFFEB75
S2140013A0FF3F03E3203F4FE3DB3F13E50C009DE5E3
S2140013B0003080E500005BE348FEFF0A0500001AE7
S2140013C0100000EA25FDFFEB2DFCFFEBDB3F15E5EB
S2140013D0003084E5FAFFFFEA20FDFFEB28FCFFEB78
S2140013E0FF3F03E3203F4FE3DB2F13E5943602E392
S2140013F00B3040E3002083E5FF5F03E3205F4FE30D
S2140014000340A0E1EEFFFFEA0000A0E3ACD08DE2CF
S214001410F08FBDE8021121E2000000EA023123E26B
S21400142030402DE98140A0E18350A0E1050034E181
S2140014300200300100C0941102C09511C4CAF01118
S214001440C5CAF0118C00000AA44AA0E1A55A74E0AF
S214001450005065B2060000DA054084E0022020E075
S214001460033021E0000022E0011023E0022020E00B
S214001470033021E0360055E33040BD881EFF2F8143
S214001480020111E30116A0E101C6A0E321168CE1DA
S2140014900100000A000070E20010E1E2020113E31E
S2140014A00336A0E123368CE10100000A002072E238
S2140014B00030E3E2050034E16900000A014044E23E
S2140014C020E075E2050000BA12CEA0E1320590E0F9
S2140014D00010A1E2130E90E05315B1E0060000EAFA
S2140014E0205045E220E08EE2010052E313CEA0E158
S2140014F002C08C23530590E0C31FB1E0025101E205
S2140015000200005A00C07CE20000F0E20010E1E2B7
S214001510010651E30F00003A020651E30600003AC6
S214001520A110B0E16000B0E16CC0A0E1014084E22F
S214001530842AA0E1010572E36B00002A02015CE345
S214001540A0C0B0010000B0E2041AA1E0051081E1DD
S2140015503040BDE81EFF2FE18CC0B0E10000B0E0D7
S2140015600110A1E0010611E3014044E2F2FFFF1A78
S214001570000031E31430A0133430A0030010A001A3
S2140015800000A0030120A0E1010852E32228A021C8
S21400159010304322010C52E32224A02108304322BB
S2140015A0100052E32222A02104304322040052E31A
S2140015B002304322A2304330A23143E0202053E2DF
S2140015C0070000AA0C2092E2040000DA14C082E2AF
S2140015D00C2062E2110CA0E13112A0E1040000EA46
S2140015E0142082E220C062D21112A0E1301C81D108
S2140015F01002A0D1034054E0041A81A0051081A176
S2140016003040BDA81EFF2FA10440E0E11F4054E279
S2140016100F0000AA0C4094E2060000CA144084E2C0
S214001620202064E23004A0E1110280E1311485E15B
S2140016303040BDE81EFF2FE10C4064E2202064E24B
S2140016403002A0E1110480E10510A0E13040BDE8C1
S2140016501EFF2FE13104A0E10510A0E13040BDE8F7
S2140016601EFF2FE1000034E3013623E201162102BB
S21400167001408402015045128FFFFFEAC4CAF0E120
S214001680C5CAF0111D00000A050034E10200300151
S2140016900400000A00C094E10310A0010200A001AB
S2140016A03040BDE81EFF2FE1030031E10010A0131B
S2140016B00000A0133040BD181EFF2F11A4CAB0E1D1
S2140016C00400001A8000B0E10110B1E0021181238D
S2140016D03040BDE81EFF2FE1014594E2011681323D
S2140016E03040BD381EFF2F31025101E27F1485E3E2
S2140016F00F1681E30000A0E33040BDE81EFF2FE197
S214001700C4CAF0E10310A0110200A011C5CAF0017E
S2140017100130A0110020A011014690E1035692016D
S21400172003003101021781133040BDE81EFF2FE190
S214001730000030E30010A0031EFF2F0130402DE90B
S214001740014BA0E3324084E20050A0E30010A0E387
S21400175086FFFFEA000030E30010A0031EFF2F0103
S21400176030402DE9014BA0E3324084E2025110E202
S214001770000060420010A0E37CFFFFEA8020B0E19A
S214001780C211A0E16110A0E1020EA0E1FF34121226
S214001790FF0433130E1321121EFF2F11000032E335
S2140017A0FF0433131EFF2F0130402DE90E4DA0E33A
S2140017B0025101E20211C1E36CFFFFEA012090E151
S2140017C01EFF2F0130402DE90050A0E3060000EA7E
S2140017D0012090E11EFF2F0130402DE9025111E259
S2140017E00100005A000070E20010E1E2014BA0E3A5
S2140017F0324084E221CBB0E144FFFF0A0320A0E39D
S214001800ACC1B0E103208212ACC1B0E10320821269
S214001810AC2182E0203062E210C3A0E13002A0E1F9
S214001820110380E13112A0E1024084E037FFFFEAB5
S21400183070402DE9FFC0A0E307CC8CE3214A1CE0F2
S214001840235A1C100C0034110C0035117500000BC7
S214001850054084E0036021E08C1AC1E18C3AC3E1C4
S214001860015690E103569211011681E3013683E397
S2140018701D00000A90C28EE00050A0E391E2A5E0B1
S214001880022106E290E3A5E00060A0E39153A6E003
S21400189000003CE301E08E13FF4044E2020C56E3F6
S2140018A0034CC4E20200002A8EE0B0E10550B5E029
S2140018B00660A6E0861582E1A51A81E18505A0E10D
S2140018C0AE0A80E18EE5A0E1FDC054E2070C5C8321
S2140018D01100008A02015EE3A0E0B0010000B0E261
S2140018E0041AA1E07040BDE81EFF2FE1026106E287
S2140018F0011086E1020080E1031021E0AC4054E0D4
S2140019000C5074C0041A81C17040BDC81EFF2FC1A0
S214001910011681E300E0A0E3014054E25D0000CA46
S214001920360074E30000A0D3021101D27040BDD887
S2140019301EFF2FD1004064E2204054E21A0000AAA5
S2140019400C4094E20C0000CA144084E2205064E28A
S2140019501035A0E13004A0E1110580E1022101E28A
S2140019600211C1E3A30F90E03114A2E083E09EE1F0
S214001970A30FC0017040BDE81EFF2FE10C4064E2DB
S214001980205064E21034A0E13005A0E1110480E1AB
S214001990021101E2A30F90E00010A1E283E09EE1B5
S2140019A0A30FC0017040BDE81EFF2FE1205064E287
S2140019B010E58EE13034A0E1113583E13104A0E179
S2140019C0021101E23104C0E1A30F80E083E09EE152
S2140019D0A30FC0017040BDE81EFF2FE1000034E3F6
S2140019E00800001A026101E28000B0E10110A1E0E7
S2140019F0010611E301404402FAFFFF0A061081E1E6
S214001A00000035E31EFF2F11026103E28220B0E1E1
S214001A100330A3E0010613E301504502FAFFFF0A74
S214001A20063083E11EFF2FE10C0034E1235A0CE060
S214001A300C0035110700000A816090E18360921166
S214001A40E5FFFF1A031021E0021101E20000A0E307
S214001A507040BDE81EFF2FE1816090E10200A0010A
S214001A600310A001836092111000000A0C0034E1FC
S214001A700100001A016690E10C00001A0C0035E126
S214001A800300001A036692E10200A0110310A011E1
S214001A900600001A031021E0021101E27F1481E320
S214001AA00F1681E30000A0E37040BDE81EFF2FE1A3
S214001AB07F1481E33E1781E37040BDE81EFF2FE1EF
S214001AC070402DE9FFC0A0E307CC8CE3214A1CE060
S214001AD0235A1C100C0034110C0035115E00000B4C
S214001AE0054044E003E021E0035692E10116A0E140
S214001AF04C00000A0336A0E10152A0E3233285E140
S214001B00223C83E10224A0E1215285E1205C85E1AC
S214001B100064A0E102110EE2030055E10200560146
S214001B20FD40A4E2034C84E20100002AA330B0E1A9
S214001B306220A0E1026056E00350C5E0A330B0E1A9
S214001B406220A0E10106A0E302C7A0E302E056E09F
S214001B5003E0D5E0026046200E50A0210C00802154
S214001B60A330B0E16220A0E102E056E003E0D5E059
S214001B70026046200E50A021AC008021A330B0E1C8
S214001B806220A0E102E056E003E0D5E002604620D5
S214001B900E50A0212C018021A330B0E16220A0E1EC
S214001BA002E056E003E0D5E0026046200E50A02199
S214001BB0AC01802106E095E10D00000A0552A0E187
S214001BC0265E85E10662A0E18331A0E1A23E83E1C4
S214001BD08221A0E12CC2B0E1DBFFFF1A010611E36F
S214001BE00600001A001081E10000A0E302C1A0E395
S214001BF0D5FFFFEA010611E3001081010000A003F3
S214001C00FDC054E2070C5C8343FFFF8A03C055E027
S214001C1002C05600A0C0B0010000B0E2041AA1E065
S214001C207040BDE81EFF2FE102E10EE221168EE1B4
S214001C30AC4094E00C5074C0041A81C17040BDC81A
S214001C401EFF2FC1011681E300E0A0E3014054E22D
S214001C5031FFFFEA06E085E12FFFFFEA235A0CE09A
S214001C600C0034E10C00350190FFFF0A0C0034E153
S214001C700600001A014690E18CFFFF1A0C0035E1C1
S214001C8083FFFF1A0200A0E10310A0E187FFFFEA2E
S214001C900C0035E10400001A035692E168FFFF0AC3
S214001CA00200A0E10310A0E180FFFFEA816090E15E
S214001CB08360921148FFFF1A814090E174FFFF1A7B
S214001CC0835092E15EFFFF1A78FFFFEA00C0E0E370
S214001CD0020000EA01C0A0E3000000EA01C0A0E3A1
S214001CE004C02DE581C0A0E1CCCAF0E183C0A0E12C
S214001CF0CCCAF0110E00000A04D08DE281C090E13B
S214001D0083C0920103003111020030010000A003DD
S214001D101EFF2F01000070E3030031E10300515164
S214001D2002005001C30FA021C30FE031010080E381
S214001D301EFF2FE181C0A0E1CCCAF0E10100001A2D
S214001D4001C690E10400001A83C0A0E1CCCAF0E10D
S214001D50E8FFFF1A03C692E1E6FFFF0A04009DE4CF
S214001D601EFF2FE100C0A0E10200A0E10C20A0E1D0
S214001D7001C0A0E10310A0E10C30A0E1FFFFFFEAE4
S214001D8001402DE9D4FFFFEB000050E30000704354
S214001D900140BDE81EFF2FE108E02DE5F7FFFFEB51
S214001DA00100A0030000A01308E09DE41EFF2FE141
S214001DB008E02DE5F1FFFFEB0100A0330000A023B3
S214001DC008E09DE41EFF2FE108E02DE5EBFFFFEBAA
S214001DD00100A0930000A08308E09DE41EFF2FE111
S214001DE008E02DE5DEFFFFEB0100A0930000A083D6
S214001DF008E09DE41EFF2FE108E02DE5D8FFFFEB8D
S214001E000100A0330000A02308E09DE41EFF2FE1A0
S214001E100010A0E10000A0E308402DE90020A0E1AA
S214001E200030A0E1790000EB0840BDE81EFF2FE17E
S214001E3008402DE90010A0E30040A0E1B00000EB50
S214001E4018309FE5000093E53C3090E5000053E332
S214001E500FE0A01113FF2F110400A0E1340100EBE6
S214001E60F4230000030052E304402DE5FF1001E2D6
S214001E700800008A000052E30400000A0030A0E1D7
S214001E80002082E00110C3E4020053E1FCFFFF1AC9
S214001E901000BDE81EFF2FE1030010E3022080E0E3
S214001EA00700000A01C080E203300CE2000053E3A2
S214001EB001104CE50C30A0E101C08CE2F9FFFF1ADE
S214001EC0000000EA0030A0E1024063E001C481E0C7
S214001ED03F0054E30CC88CE01A0000DA00C083E52B
S214001EE004C083E508C083E50CC083E510C083E525
S214001EF014C083E518C083E51CC083E520C083E5D5
S214001F0024C083E528C083E52CC083E530C083E584
S214001F1034C083E538C083E53CC083E5403083E2C7
S214001F20024063E03F0054E3EBFFFFCA050000EA0F
S214001F3000C083E504C083E508C083E50CC083E5E4
S214001F40103083E2024063E00F0054E3F7FFFFCA5D
S214001F50030054E3060000DA044083E2023064E043
S214001F60030053E304C004E50430A0E1044084E227
S214001F70F9FFFFCA030052E1C4FFFF9A013083E273
S214001F80012082E2011043E5013083E2020053E1C2
S214001F90FBFFFF1ABDFFFFEA10309FE5003093E518
S214001FA00020A0E3A80083E5AC2083E51EFF2FE118
S214001FB040220B0004402DE544309FE500C093E529
S214001FC040409FE5A8209CE5920404E0AC109CE508
S214001FD034309FE5934124E0920381E00120A0E3A2
S214001FE0002092E0011084E00030A0E30130A3E07E
S214001FF0A8208CE5AC308CE50201C3E31000BDE8F8
S2140020001EFF2FE140220B002DF451582D7F954CDA
S214002010E4C09FE5F0412DE900409CE548C194E509
S21400202000005CE353CF840204509CE548C184055D
S2140020301F0055E310D04DE20060A0E1150000DA65
S214002040B8009FE5000050E30100001A0000E0E33E
S214002050180000EA190EA0E30C108DE508208DE5A7
S21400206004308DE500F020E300C050E20C109DE542
S21400207008209DE504309DE5F3FFFF0A485194E5EE
S2140020800000A0E304008CE500508CE548C184E520
S21400209088018CE58C018CE5000056E304409CE545
S2140020A00700001A023084E2014084E203118CE744
S2140020B004408CE50000A0E310D08DE2F041BDE8BE
S2140020C01EFF2FE10100A0E31004A0E104818CE0D4
S2140020D0020056E388719CE5083188E58C319C0542
S2140020E0007087E1000083010850A0E1882088E5A1
S2140020F088718CE58C018C05E9FFFFEAF42300006B
S21400210000000000F04F2DE968319FE5003093E5B0
S21400211014D04DE204308DE5523F83E208008DE591
S2140021200C308DE50170A0E10180A0E304309DE550
S214002130486193E5000056E30CB09DE53300000AC5
S214002140045096E5014055E288A086521F508552FD
S21400215005518A500700005A290000EA003095E52C
S214002160070053E10500000A014044E2010074E361
S214002170045045E22200000A000057E3F6FFFF1A6B
S214002180043096E505206AE0013043E2022086E04E
S214002190040053E1783012E50010A01304408605D1
S2140021A078100215000053E3EEFFFF0A1824A0E1A2
S2140021B0881196E5010012E1049096E51600000AE3
S2140021C08C1196E5010012E11600001A08009DE544
S2140021D0801015E50FE0A0E113FF2FE1043096E52F
S2140021E0090053E1D0FFFF1A00309BE5060053E1DB
S2140021F0CDFFFF1A014044E2010074E3045045E2BB
S214002200DCFFFF1A70109FE5000051E30900001A7A
S21400221014D08DE2F04FBDE81EFF2FE10FE0A0E1E5
S21400222013FF2FE1ECFFFFEA800015E50FE0A0E1C9
S21400223013FF2FE1E8FFFFEA043096E5000053E3C2
S214002240003096E50800001A000053E30600000A76
S2140022500600A0E100308BE500F020E300609BE57F
S214002260000056E3B5FFFF1AE8FFFFEA06B0A0E15C
S2140022700360A0E1F9FFFFEAF4230000000000007D
S21400228008402DE910309FE5000053E30C009F1531
S214002290DEFEFF1B0840BDE81EFF2FE11C240000E9
S2140022A0A422000038402DE930509FE530409FE5DD
S2140022B0044065E04441B0E1045185100400000A82
S2140022C0043035E50FE0A0E113FF2FE1014054E2B2
S2140022D0FAFFFF1A500000EB3840BDE81EFF2FE162
S2140022E0342400003824000008402DE91D0000EBCF
S2140022F030309FE5000053E3000093150300A00173
S21400230024309FE5000053E3001093150310A0014E
S2140023100020A0E3B5F9FFEB10309FE5000053E383
S214002320C2FEFF1BFEFFFFEA0000000000000000E8
S214002330301E000004E02DE51800A0E304109FE521
S214002340563412EFFEFFFFEA26000200FEFFFFEA09
S214002350FEFFFFEAFEFFFFEAFEFFFFEAFEFFFFEAE0
S214002360FEFFFFEAFEFFFFEA70402DE96C509FE596
S2140023706C609FE5066065E04661B0E1045045127A
S2140023800040A0130500000A0430B5E5014084E2D1
S2140023900FE0A0E113FF2FE1040056E1F9FFFF1A5A
S2140023A040509FE540609FE5066065E0120000EB48
S2140023B04661B0E1045045120040A0130500000A33
S2140023C00430B5E5014084E20FE0A0E113FF2FE101
S2140023D0040056E1F9FFFF1A7040BDE81EFF2FE12A
S2140023E01424000014240000142400001C24000000
S2080023F000000000E4
S2140023F448220B00430000000DC0A0E1F8DF2DE9E1
S21400240404B04CE228D04BE2F06F9DE81EFF2FE1AB
S21400241480220000080200000DC0A0E1F8DF2DE9CC
S21400242404B04CE228D04BE2F06F9DE81EFF2FE18B
S214002434C4010000000000000000000000000000CE
S21000244478260B002800000000000000B6
S2140024500000000000000000DF000000FF00000099
S214002460DF000000FF000000DF000000FF000000AB
S214002470DF000000FF000000DF000000FF0000009B
S214002480DF000000FF000000DF000000FF0000008B
S214002490DF000000FF000000DF000000FF0000007B
S2140024A0DF000000FF000000DF000000FF0000006B
S2140024B0DF000000FF000000DF000000FF0000005B
S2140024C0DF000000FF000000DF000000FF0000004B
S2140024D0DF000000FF000000DF000000FF0000003B
S2140024E0DF000000FF000000DF000000FF0000002B
S2140024F0DF000000FF000000DF000000FF0000001B
S214002500DF000000FF000000BF000000FF0000002A
S214002510BF000000FF000000DF000000FF0000001A
S214002520FF000000FF000000FF000000FF000000AA
S214002530DF000000FF0000009E000000F700000023
S2140025403C000000E7000000BB000000DE000000CA
S21400255039000000CE00000096000000B500000024
S21400256035000000A5000000920000009400000066
S21400257010000000840000004E0000006B00000009
S214002580CB0000005A000000AB0000005A0000001C
S2140025908A000000520000008A000000520000007E
S2140025A0AB0000005A0000000C00000063000000B2
S2140025B0F000000083000000D7000000BD0000000F
S2140025C0BA000000D60000001C000000E700000073
S2140025D05D000000EF000000BF000000FF000000EC
S2140025E0FF000000FF000000FF000000FF000000EA
S2140025F0FF000000FF000000FF000000FF000000DA
S214002600DF000000FF000000DF000000FF00000009
S214002610FF000000FF000000FF000000FF000000B9
S214002620FF000000FF000000DF000000FF000000C9
S214002630BE000000F7000000BF000000F70000002A
S214002640BF000000FF000000DF000000FF000000E9
S214002650DF000000FF000000DF000000FF000000B9
S214002660DF000000FF000000DF000000FF000000A9
S214002670DF000000FF000000DF000000FF00000099
S214002680DF000000FF000000DF000000FF00000089
S214002690DF000000FF000000DF000000FF00000079
S2140026A0DF000000FF000000DF000000FF00000069
S2140026B0DF000000FF000000DF000000FF00000059
S2140026C0DF000000FF000000DF000000FF00000049
S2140026D0DF000000FF000000DF000000FF00000039
S2140026E0DF000000FF000000DF000000FF00000029
S2140026F0DF000000FF000000DF000000FF00000019
S214002700DF000000FF000000DF000000FF00000008
S214002710DF000000FF000000DF000000FF000000F8
S214002720DF000000FF000000DF000000FF000000E8
S214002730DF000000FF000000DF000000FF000000D8
S214002740DF000000FF000000DF000000FF000000C8
S214002750DF000000FF000000DF000000FF000000B8
S214002760DF000000FF000000DF000000FF000000A8
S214002770DF000000FF000000BF000000FF000000B8
S214002780BF000000FF000000FF000000FF00000088
S214002790FF000000FF000000BF000000FF00000078
S2140027A03C000000E700000059000000CE000000DA
S2140027B075000000AD0000009200000094000000CC
S2140027C0AF0000007B000000EC000000620000008C
S2140027D0090000004A0000008700000039000000E1
S2140027E005000000290000000100000008000000AD
S2140027F00000000000000000E400000020000000D0
S2140028008600000031000000E800000041000000E3
S214002810CB0000005A000000CF0000007B00000044
S214002820F0000000830000008E000000730000002F
S21400283055000000AD00000035000000AD000000AF
S214002840510000008C000000100000008400000012
S214002850F000000083000000510000008C00000023
S214002860F4000000A4000000B7000000B50000005F
S2140028709A000000D60000001C000000E7000000E0
S214002880BE000000F70000003C000000EF00000063
S2140028909A000000D6000000FB000000DE000000EA
S2140028A05D000000EF000000DF000000FF000000F9
S2140028B0FF000000FF000000FF000000FF00000017
S2140028C0DF000000FF000000BF000000FF00000067
S2140028D0BF000000FF000000DF000000FF00000057
S2140028E0DF000000FF000000DF000000FF00000027
S2140028F0DF000000FF000000DF000000FF00000017
S214002900DF000000FF000000DF000000FF00000006
S214002910DF000000FF000000DF000000FF000000F6
S214002920DF000000FF000000DF000000FF000000E6
S214002930DF000000FF000000DF000000FF000000D6
S214002940DF000000FF000000DF000000FF000000C6
S214002950DF000000FF000000DF000000FF000000B6
S214002960DF000000FF000000DF000000FF000000A6
S214002970DF000000FF000000DF000000FF00000096
S214002980DF000000FF000000DF000000FF00000086
S214002990DF000000FF000000DF000000FF00000076
S2140029A0DF000000FF000000DF000000FF00000066
S2140029B0DF000000FF000000DF000000FF00000056
S2140029C0DF000000FF000000DF000000FF00000046
S2140029D0DF000000FF000000DF000000FF00000036
S2140029E0BF000000FF000000BF000000FF00000066
S2140029F0DF000000FF000000FF000000FF000000F6
S214002A00FF000000FF0000003D000000EF00000097
S214002A1018000000C60000009300000094000000AC
S214002A20D00000007B0000004D0000006B0000009E
S214002A30EC00000062000000CC0000005A0000001D
S214002A40CB0000005A0000008A0000005200000080
S214002A508A00000052000000CB0000005A00000070
S214002A608A000000520000006A00000052000000C9
S214002A70290000004A000000710000008C000000E1
S214002A8059000000CE0000007D000000EF000000AE
S214002A90DF000000FF000000BF000000FF00000095
S214002AA0DF000000FF00000018000000C600000065
S214002AB0CF0000007B0000001C000000E7000000C4
S214002AC0FF000000FF0000009E000000F70000006E
S214002AD05D000000EF000000DB000000DE000000EC
S214002AE059000000CE00000096000000B50000006F
S214002AF014000000A500000076000000B5000000ED
S214002B0018000000C60000001C000000E7000000DF
S214002B105D000000EF0000009A000000D6000000F4
S214002B20D7000000BD00000096000000B5000000C1
S214002B30F8000000C5000000DB000000DE0000001A
S214002B40BE000000F7000000FF000000FF000000CD
S214002B50FF000000FF000000DF000000FF00000094
S214002B60BF000000FF000000BF000000FF000000E4
S214002B70DF000000FF000000DF000000FF00000094
S214002B80DF000000FF000000DF000000FF00000084
S214002B90DF000000FF000000DF000000FF00000074
S214002BA0DF000000FF000000DF000000FF00000064
S214002BB0DF000000FF000000DF000000FF00000054
S214002BC0DF000000FF000000DF000000FF00000044
S214002BD0DF000000FF000000DF000000FF00000034
S214002BE0DF000000FF000000DF000000FF00000024
S214002BF0DF000000FF000000DF000000FF00000014
S214002C00DF000000FF000000DF000000FF00000003
S214002C10DF000000FF000000DF000000FF000000F3
S214002C20DF000000FF000000DF000000FF000000E3
S214002C30DF000000FF000000DF000000FF000000D3
S214002C40DF000000FF000000DF000000FF000000C3
S214002C50DF000000FF000000BF000000FF000000D3
S214002C60DF000000FF000000FF000000FF00000083
S214002C70DF000000FF000000FC000000E60000008F
S214002C8076000000B50000006E0000007300000033
S214002C900E0000006B0000007200000094000000B0
S214002CA010000000840000004D0000006B000000D3
S214002CB06E000000730000008E000000730000002D
S214002CC08E00000073000000AE00000073000000DD
S214002CD0AF0000007B000000AF0000007B0000009B
S214002CE08E000000730000004D0000006B00000026
S214002CF02C00000063000000CF0000007B000000F6
S214002D001000000084000000F4000000A400000092
S214002D109A000000D60000009E000000F7000000A9
S214002D20FF000000FF000000FF000000FF000000A2
S214002D3096000000B50000000800000042000000F9
S214002D407D000000F7000000FF000000FF0000000C
S214002D50DF000000FF000000FF000000FF00000092
S214002D60FF000000FF000000FF000000FF00000062
S214002D70FF000000FF000000DF000000FF00000072
S214002D80BF000000FF000000DF000000FF000000A2
S214002D90FF000000FF000000FF000000FF00000032
S214002DA0DF000000FF0000007E000000F7000000CB
S214002DB0BA000000D600000096000000B500000033
S214002DC0F4000000A4000000B6000000B5000000FB
S214002DD0DB000000DE000000BE000000F700000080
S214002DE0FF000000FF000000FF000000FF000000E2
S214002DF0BF000000FF000000BE000000F70000005B
S214002E00DF000000FF000000DF000000FF00000001
S214002E10DF000000FF000000DF000000FF000000F1
S214002E20DF000000FF000000DF000000FF000000E1
S214002E30DF000000FF000000DF000000FF000000D1
S214002E40DF000000FF000000DF000000FF000000C1
S214002E50DF000000FF000000DF000000FF000000B1
S214002E60DF000000FF000000DF000000FF000000A1
S214002E70DF000000FF000000DF000000FF00000091
S214002E80DF000000FF000000DF000000FF00000081
S214002E90DF000000FF000000DF000000FF00000071
S214002EA0DF000000FF000000DF000000FF00000061
S214002EB0DF000000FF000000DF000000FF00000051
S214002EC0DF000000FF000000BF000000FF00000061
S214002ED0BF000000FF000000FF000000FF00000031
S214002EE0DF000000FF000000DB000000DE00000046
S214002EF055000000AD0000008F0000007B000000C1
S214002F004E0000007300000055000000AD000000F9
S214002F109A000000D600000035000000AD0000005A
S214002F202C00000063000000EC00000062000000BF
S214002F304D0000006B000000AE00000073000000B3
S214002F40AF0000007B000000AE0000007300000031
S214002F50AE000000730000008E000000730000004A
S214002F60CF0000007B0000008E0000007300000011
S214002F708A000000520000008A0000005200000094
S214002F80EF0000007B0000006E00000073000000F1
S214002F902C00000063000000EF0000007B00000033
S214002FA09200000094000000F8000000C500000039
S214002FB05D000000EF0000008E00000073000000BF
S214002FC0B7000000BD000000FF000000FF0000008A
S214002FD0BE000000F7000000BF000000FF00000079
S214002FE0BF000000FF000000BF000000FF00000060
S214002FF0DF000000FF000000DF000000FF00000010
S214003000DF000000FF000000DF000000FF000000FF
S214003010BF000000FF000000BF000000FF0000002F
S214003020DF000000FF000000DF000000FF000000DF
S214003030FF000000FF000000FF000000FF0000008F
S2140030409E000000F70000007A000000D600000096
S21400305014000000A500000092000000940000008C
S214003060D7000000BD0000003D000000EF0000009B
S214003070FF000000FF000000FF000000FF0000004F
S214003080BF000000FF000000BF000000FF000000BF
S214003090DF000000FF000000DF000000FF0000006F
S2140030A0DF000000FF000000DF000000FF0000005F
S2140030B0DF000000FF000000DF000000FF0000004F
S2140030C0DF000000FF000000DF000000FF0000003F
S2140030D0DF000000FF000000DF000000FF0000002F
S2140030E0DF000000FF000000DF000000FF0000001F
S2140030F0DF000000FF000000DF000000FF0000000F
S214003100DF000000FF000000DF000000FF000000FE
S214003110DF000000FF000000DF000000FF000000EE
S214003120DF000000FF000000DF000000FF000000DE
S214003130DF000000FF000000DF000000FF000000CE
S214003140BF000000FF000000DF000000FF000000DE
S214003150FF000000FF0000005D000000EF00000020
S21400316096000000B5000000310000008C00000052
S214003170D00000007B00000014000000A500000046
S2140031801C000000E7000000BF000000FF00000079
S214003190D30000009C000000C300000018000000E0
S2140031A0AB000000520000008E000000730000001C
S2140031B030000000840000001000000084000000C2
S2140031C0AE000000730000004D0000006B00000021
S2140031D02C000000630000000C00000063000000EC
S2140031E0CB0000005A0000004D0000006B000000FD
S2140031F02C00000063000000E30000002000000038
S214003200CB0000005A000000710000008C00000097
S214003210310000008C000000CF0000007B000000A2
S2140032204D0000006B0000000000000000000000E1
S214003230490000004A000000AA00000052000000FA
S21400324035000000AD000000FF000000FF00000099
S214003250BF000000FF000000DF000000FF000000CD
S214003260DF000000FF000000DF000000FF0000009D
S214003270DF000000FF000000DF000000FF0000008D
S214003280DF000000FF000000DF000000FF0000007D
S214003290DF000000FF000000DF000000FF0000006D
S2140032A0DF000000FF000000DF000000FF0000005D
S2140032B0BF000000FF000000BF000000FF0000008D
S2140032C0DF000000FF000000FF000000FF0000001D
S2140032D0FF000000FF0000003C000000E7000000C8
S2140032E0B7000000BD00000092000000940000003F
S2140032F055000000AD000000FC000000E6000000E5
S214003300FF000000FF000000FF000000FF000000BC
S214003310BF000000FF000000BF000000FF0000002C
S214003320DF000000FF000000DF000000FF000000DC
S214003330DF000000FF000000DF000000FF000000CC
S214003340DF000000FF000000DF000000FF000000BC
S214003350DF000000FF000000DF000000FF000000AC
S214003360DF000000FF000000DF000000FF0000009C
S214003370DF000000FF000000DF000000FF0000008C
S214003380DF000000FF000000DF000000FF0000007C
S214003390DF000000FF000000DF000000FF0000006C
S2140033A0DF000000FF000000DF000000FF0000005C
S2140033B0DF000000FF000000BF000000FF0000006C
S2140033C0FF000000FF000000DF000000FF0000001C
S2140033D059000000CE00000093000000940000009A
S2140033E0930000009C0000007300000094000000A2
S2140033F0D7000000BD000000DF000000FF00000056
S214003400FF000000FF000000100000008400000025
S2140034100000000000000000250000002900000059
S21400342028000000420000000C00000063000000BE
S2140034306D0000006B0000004D0000006B000000F7
S2140034400C00000063000000CB0000005A000000E3
S214003450AA00000052000000EB0000005A00000026
S2140034608A00000052000000C7000000390000007B
S214003470AB0000005A000000E7000000410000001A
S21400348000000000000000002D00000063000000A7
S214003490F000000083000000AF0000007B0000008A
S2140034A0CF0000007B000000AE00000073000000AC
S2140034B0490000004A000000E70000003900000054
S2140034C08E000000730000005D000000EF000000AA
S2140034D0FF000000FF000000BF000000FF0000002B
S2140034E0DF000000FF000000DF000000FF0000001B
S2140034F0DF000000FF000000DF000000FF0000000B
S214003500DF000000FF000000DF000000FF000000FA
S214003510DF000000FF000000DF000000FF000000EA
S214003520DF000000FF000000DF000000FF000000DA
S214003530DF000000FF000000DF000000FF000000CA
S214003540BF000000FF000000BE000000F700000003
S214003550BF000000FF000000FF000000FF000000AA
S214003560FF000000FF000000BE000000F7000000A3
S21400357079000000CE000000D30000009C00000090
S21400358014000000A50000001C000000E70000007A
S214003590FF000000FF000000DF000000FF0000004A
S2140035A0BF000000FF000000DF000000FF0000007A
S2140035B0DF000000FF000000DF000000FF0000004A
S2140035C0DF000000FF000000DF000000FF0000003A
S2140035D0DF000000FF000000DF000000FF0000002A
S2140035E0DF000000FF000000DF000000FF0000001A
S2140035F0DF000000FF000000DF000000FF0000000A
S214003600DF000000FF000000DF000000FF000000F9
S214003610DF000000FF000000DF000000FF000000E9
S214003620DF000000FF000000BE000000F700000002
S214003630BF000000FF000000FF000000FF000000C9
S2140036405D000000EF00000055000000AD00000027
S214003650920000009400000055000000AD0000003D
S214003660F4000000A400000015000000A500000003
S214003670BF000000FF000000FF000000FF00000089
S21400368014000000A500000000000000000000007C
S214003690CB0000005A0000000C0000006300000091
S2140036A02D0000006B000000CB0000005A00000058
S2140036B00800000042000000660000003100000024
S2140036C04500000029000000C70000003900000087
S2140036D0490000004A000000690000004A0000009F
S2140036E08A00000052000000A6000000390000001A
S2140036F0E300000018000000C700000039000000CA
S2140037004500000029000000C3000000180000006B
S2140037106D0000006B0000006D0000006B000000F4
S2140037200C00000063000000EB0000005A000000E0
S214003730AB0000005A000000AE000000730000005E
S2140037400C000000630000002C0000006300000076
S2140037507E000000F7000000DF000000FF00000011
S214003760BF000000FF000000DF000000FF000000B8
S214003770DF000000FF000000DF000000FF00000088
S214003780DF000000FF000000DF000000FF00000078
S214003790DF000000FF000000DF000000FF00000068
S2140037A0DF000000FF000000DF000000FF00000058
S2140037B0DF000000FF000000DF000000FF00000048
S2140037C0DF000000FF000000DF000000FF00000038
S2140037D0DF000000FF000000BF000000FF00000048
S2140037E0BF000000FF000000DF000000FF00000038
S2140037F0FF000000FF000000DF000000FF000000E8
S214003800BB000000DE00000035000000AD00000038
S214003810D7000000BD0000007E000000F70000009A
S214003820FF000000FF000000BF000000FF000000D7
S214003830DF000000FF000000DF000000FF000000C7
S214003840DF000000FF000000DF000000FF000000B7
S214003850DF000000FF000000DF000000FF000000A7
S214003860DF000000FF000000DF000000FF00000097
S214003870DF000000FF000000DF000000FF00000087
S214003880DF000000FF000000DF000000FF00000077
S214003890BF000000FF000000FF000000FF00000067
S2140038A0BB000000DE0000001C000000E700000077
S2140038B0FF000000FF0000001C000000E700000002
S2140038C0B30000009C000000F5000000A40000000B
S2140038D076000000B500000014000000A5000000FF
S2140038E0F10000008300000039000000CE00000058
S2140038F0FF000000FF00000079000000CE0000007E
S2140039008600000031000000EF0000007B00000091
S214003910710000008C00000092000000940000007F
S2140039209200000094000000710000008C0000006F
S2140039308E00000073000000690000004A000000CE
S214003940C7000000390000006600000031000000DB
S214003950A600000031000000E7000000390000006B
S214003960E700000039000000C70000003900000032
S214003970040000002100000000000000000000001D
S2140039806500000031000000210000000800000073
S214003990E800000039000000CB0000005A000000DC
S2140039A0690000004A000000AB0000005200000062
S2140039B0490000004A00000004000000210000004A
S2140039C0CB0000005A000000490000004A0000003A
S2140039D0D30000009C000000FF000000FF00000075
S2140039E0BF000000FF000000DF000000FF00000036
S2140039F0DF000000FF000000DF000000FF00000006
S214003A00DF000000FF000000DF000000FF000000F5
S214003A10DF000000FF000000DF000000FF000000E5
S214003A20DF000000FF000000DF000000FF000000D5
S214003A30DF000000FF000000DF000000FF000000C5
S214003A40DF000000FF000000DF000000FF000000B5
S214003A50DF000000FF000000DF000000FF000000A5
S214003A60DF000000FF000000BF000000FF000000B5
S214003A70BF000000FF000000DF000000FF000000A5
S214003A80FF000000FF000000FF000000FF00000035
S214003A90DB000000DE000000B7000000BD000000F4
S214003AA0FB000000DE000000DF000000FF0000005A
S214003AB0BF000000FF000000DF000000FF00000065
S214003AC0DF000000FF000000DF000000FF00000035
S214003AD0DF000000FF000000DF000000FF00000025
S214003AE0DF000000FF000000DF000000FF00000015
S214003AF0DF000000FF000000DF000000FF00000005
S214003B00DF000000FF000000BF000000FF00000014
S214003B10FF000000FF0000001C000000E70000009F
S214003B20D7000000BD000000FF000000FF000000FE
S214003B30BE000000F7000000F4000000A400000033
S214003B4036000000AD00000077000000B500000061
S214003B50930000009400000055000000AD00000037
S214003B60BB000000DE000000FF000000FF000000B9
S214003B70BA000000D6000000CB0000005A0000008B
S214003B808E0000007300000030000000840000007B
S214003B90510000008C00000030000000840000008F
S214003BA0F0000000830000008E000000730000009C
S214003BB08A000000520000002500000029000000D6
S214003BC00000000000000000E300000018000000F5
S214003BD0C700000039000000490000004A0000004D
S214003BE02800000042000000A6000000310000008F
S214003BF02400000021000000A200000010000000C9
S214003C006200000010000000040000002100000018
S214003C10C300000018000000E700000039000000A4
S214003C2045000000290000006A0000005200000065
S214003C3008000000420000002500000029000000E7
S214003C40A6000000390000006D0000006B000000B8
S214003C50E3000000200000001C000000E700000059
S214003C60FF000000FF000000BF000000FF00000093
S214003C70DF000000FF000000DF000000FF00000083
S214003C80DF000000FF000000DF000000FF00000073
S214003C90DF000000FF000000DF000000FF00000063
S214003CA0DF000000FF000000DF000000FF00000053
S214003CB0DF000000FF000000DF000000FF00000043
S214003CC0DF000000FF000000DF000000FF00000033
S214003CD0DF000000FF000000DF000000FF00000023
S214003CE0DF000000FF000000DF000000FF00000013
S214003CF0DF000000FF000000DF000000FF00000003
S214003D00BF000000FF000000BF000000FF00000032
S214003D10FF000000FF000000DF000000FF000000C2
S214003D203D000000EF000000BF000000FF000000A4
S214003D30DF000000FF000000DF000000FF000000C2
S214003D40DF000000FF000000DF000000FF000000B2
S214003D50DF000000FF000000DF000000FF000000A2
S214003D60DF000000FF000000DF000000FF00000092
S214003D70DF000000FF000000DF000000FF00000082
S214003D80BF000000FF000000DF000000FF00000092
S214003D90BF000000FF00000035000000AD0000007E
S214003DA01C000000E7000000FF000000FF0000000D
S214003DB0D7000000BD00000015000000AD000000A8
S214003DC056000000B5000000930000009C000000B4
S214003DD07A000000CE000000BE000000F7000000E1
S214003DE0FF000000FF000000FB000000DE000000F7
S214003DF0290000004A000000CB0000005A00000026
S214003E006E00000073000000CF0000007B00000082
S214003E10CF0000007B0000006D0000006B0000007B
S214003E200C00000063000000AA0000005A0000001A
S214003E3086000000310000000000000000000000C6
S214003E4008000000420000000400000021000000FE
S214003E50000000000000000000000000000000005D
S214003E604500000029000000080000004200000095
S214003E70E400000020000000C3000000180000005E
S214003E808200000010000000C300000018000000C0
S214003E90C300000018000000210000000800000019
S214003EA0A300000018000000080000004200000008
S214003EB0A70000003900000000000000000000001D
S214003EC0000000000000000065000000290000005F
S214003ED0000000000000000018000000C6000000FF
S214003EE0FF000000FF000000BE000000F70000001A
S214003EF0DF000000FF000000DF000000FF00000001
S214003F00DF000000FF000000DF000000FF000000F0
S214003F10DF000000FF000000BF000000FF00000000
S214003F20BF000000FF000000BF000000FF00000010
S214003F30BF000000FF000000BF000000FF00000000
S214003F40DF000000FF000000DF000000FF000000B0
S214003F50DF000000FF000000DF000000FF000000A0
S214003F60DF000000FF000000DF000000FF00000090
S214003F70DF000000FF000000DF000000FF00000080
S214003F80DF000000FF000000DF000000FF00000070
S214003F90BE000000F7000000DF000000FF00000089
S214003FA0FF000000FF000000DF000000FF00000030
S214003FB0DF000000FF000000DF000000FF00000040
S214003FC0DF000000FF000000DF000000FF00000030
S214003FD0DF000000FF000000DF000000FF00000020
S214003FE0DF000000FF000000DF000000FF00000010
S214003FF0DF000000FF000000DF000000FF00000000
S214004000BF000000FF000000FF000000FF000000EF
S21400401018000000C600000096000000B500000072
S214004020FF000000FF000000FB000000DE000000B4
S21400403015000000A500000035000000AD000000DF
S21400404015000000AD0000003D000000EF0000007D
S214004050FF000000FF000000FF000000FF0000005F
S2140040605D000000EF000000AB0000005A000000FA
S2140040708600000031000000AB0000005A0000007F
S2140040802C0000006B000000CF0000007B0000004A
S214004090F0000000830000008E00000073000000A7
S2140040A00C00000063000000E70000004100000074
S2140040B0A60000003100000079000000CE000000DD
S2140040C09E000000F70000003D000000EF0000002A
S2140040D0FB000000DE00000059000000CE000000DB
S2140040E06E00000073000000C3000000180000000F
S2140040F086000000310000002100000000000000E3
S214004100C300000018000000A2000000100000001D
S2140041108200000010000000820000001000000076
S2140041200000000000000000080000004200000040
S214004130EB000000620000004D0000006B00000075
S2140041402D0000006B000000CB0000005A000000AD
S2140041506100000010000000D30000009C0000007A
S214004160BE000000F7000000BF000000FF000000D7
S214004170BF000000FF000000DF000000FF0000009E
S214004180BF000000FF000000BF000000FF000000AE
S214004190BF000000FF000000DF000000FF0000007E
S2140041A0DF000000FF000000DF000000FF0000004E
S2140041B0DF000000FF000000DF000000FF0000003E
S2140041C0DF000000FF000000DF000000FF0000002E
S2140041D0DF000000FF000000DF000000FF0000001E
S2140041E0DF000000FF000000DF000000FF0000000E
S2140041F0DF000000FF000000DF000000FF000000FE
S214004200DF000000FF000000DF000000FF000000ED
S214004210DF000000FF000000BF000000FF000000FD
S214004220BF000000FF000000DF000000FF000000ED
S214004230DF000000FF000000DF000000FF000000BD
S214004240DF000000FF000000DF000000FF000000AD
S214004250DF000000FF000000DF000000FF0000009D
S214004260DF000000FF000000DF000000FF0000008D
S214004270DF000000FF000000BF000000FF0000009D
S214004280FF000000FF0000001C000000E700000028
S21400429092000000940000001C000000E7000000F0
S2140042A0DF000000FF00000096000000B5000000E0
S2140042B0F4000000A400000097000000B500000015
S2140042C09E000000F7000000FF000000FF00000056
S2140042D0BF000000FF000000DF000000FF0000003D
S2140042E0310000008C00000000000000000000000C
S2140042F0280000004A000000CB0000005A00000022
S2140043004D0000006B0000000C0000006300000081
S21400431008000000420000008200000010000000BC
S2140043200000000000000000000000000000000088
S2140043307A000000D6000000FF000000FF0000002A
S214004340DF000000FF000000FF000000FF0000008C
S214004350FF000000FF000000FF000000FF0000005C
S214004360FC000000E60000008600000031000000AF
S21400437025000000290000000400000021000000C5
S2140043808200000010000000A300000018000000DB
S214004390A200000010000000000000000000000066
S2140043A028000000420000006D0000006B000000C6
S2140043B08A00000052000000100000008400000088
S2140043C00C000000630000002C00000063000000EA
S2140043D06A000000520000000C00000063000000AD
S2140043E038000000C6000000DF000000FF000000EC
S2140043F0FF000000FF000000BE000000F700000005
S214004400BF000000FF000000FF000000FF000000EB
S214004410FF000000FF000000DF000000FF000000BB
S214004420DF000000FF0000009E000000F700000014
S2140044305D000000EF0000007E000000F7000000B6
S214004440DF000000FF000000DF000000FF000000AB
S214004450DF000000FF000000DF000000FF0000009B
S214004460DF000000FF000000DF000000FF0000008B
S214004470DF000000FF000000DF000000FF0000007B
S214004480DF000000FF000000DF000000FF0000006B
S214004490DF000000FF000000DF000000FF0000005B
S2140044A0DF000000FF000000DF000000FF0000004B
S2140044B0DF000000FF000000DF000000FF0000003B
S2140044C0DF000000FF000000DF000000FF0000002B
S2140044D0DF000000FF000000DF000000FF0000001B
S2140044E0DF000000FF000000DF000000FF0000000B
S2140044F0BF000000FF000000DF000000FF0000001B
S214004500BF000000FF00000097000000B50000009C
S21400451035000000AD000000DF000000FF000000D6
S214004520DB000000DE0000007200000094000000C7
S214004530F8000000BD000000DF000000FF000000E3
S214004540FF000000FF000000BE000000F7000000B3
S214004550FF000000FF00000038000000C60000005A
S2140045602D0000006B000000A600000031000000D7
S214004570490000004A000000EB0000005A0000005E
S214004580E8000000410000000000000000000000FD
S214004590000000000000000086000000310000005F
S2140045A0000000000000000014000000A50000004D
S2140045B0FF000000FF000000BF000000FF0000003A
S2140045C0BF000000FF000000BF000000FF0000006A
S2140045D0BF000000FF000000BF000000FF0000005A
S2140045E0FF000000FF000000710000008C000000CB
S2140045F000000000000000008600000031000000FF
S2140046008200000010000000820000001000000081
S2140046108200000010000000490000004A00000070
S2140046208E000000730000001000000084000000F0
S214004630AE0000007B0000000C00000063000000DD
S2140046403000000084000000EF0000007B00000047
S214004650CB0000005A0000002800000042000000C6
S2140046600000000000000000D30000009C000000D6
S2140046707D000000EF000000FF000000FF000000CB
S214004680FF000000FF0000007E000000F7000000B2
S214004690F8000000C500000035000000A50000007E
S2140046A0B3000000A4000000D0000000C40000001A
S2140046B0CC000000BC00000074000000BD0000003C
S2140046C0FF000000FF000000BF000000FF00000029
S2140046D0DF000000FF000000DF000000FF00000019
S2140046E0DF000000FF000000DF000000FF00000009
S2140046F0DF000000FF000000DF000000FF000000F9
S214004700DF000000FF000000DF000000FF000000E8
S214004710DF000000FF000000DF000000FF000000D8
S214004720DF000000FF000000DF000000FF000000C8
S214004730DF000000FF000000DF000000FF000000B8
S214004740DF000000FF000000DF000000FF000000A8
S214004750DF000000FF000000DF000000FF00000098
S214004760DF000000FF000000DF000000FF00000088
S214004770BF000000FF000000FF000000FF00000078
S214004780BB000000DE000000D5000000A400000012
S2140047905A000000CE000000FF000000FF000000EE
S2140047A076000000B500000096000000B50000008E
S2140047B0DF000000FF000000DF000000FF00000038
S2140047C0BE000000F7000000FF000000FF00000031
S2140047D03C000000E7000000D7000000BD0000001D
S2140047E0D30000009C000000000000000000000055
S2140047F0EB00000062000000A60000003100000090
S2140048000000000000000000820000001000000011
S2140048104500000029000000000000000000000025
S2140048202000000000000000FC000000E600000081
S214004830FF000000FF000000BE000000F7000000C0
S214004840BF000000FF000000DF000000FF000000C7
S214004850DF000000FF000000BF000000FF000000B7
S214004860FF000000FF00000059000000CE0000001E
S21400487000000000000000006500000029000000A5
S214004880C300000018000000210000000000000027
S21400489045000000290000002C0000006B0000000E
S2140048A03000000084000000D30000009C000000E0
S2140048B055000000AD00000014000000A500000038
S2140048C0B30000009C000000CF0000007B0000004A
S2140048D02D0000006B0000000C00000063000000CC
S2140048E0C700000039000000A600000031000000EC
S2140048F014000000A5000000B6000000B50000008F
S214004900B2000000A4000000D000000083000000F9
S214004910540000008C000000130000009C00000003
S21400492000000000A00000006A000000D5000000A3
S214004930840000009C00000099000000D6000000E3
S214004940FF000000FF000000BF000000FF000000A6
S214004950DF000000FF000000DF000000FF00000096
S214004960DF000000FF000000DF000000FF00000086
S214004970DF000000FF000000DF000000FF00000076
S214004980DF000000FF000000DF000000FF00000066
S214004990DF000000FF000000DF000000FF00000056
S2140049A0DF000000FF000000DF000000FF00000046
S2140049B0DF000000FF000000DF000000FF00000036
S2140049C0DF000000FF000000DF000000FF00000026
S2140049D0DF000000FF000000DF000000FF00000016
S2140049E0DF000000FF000000BF000000FF00000026
S2140049F0DF000000FF0000009E000000F70000003F
S214004A00B7000000BD00000056000000B500000022
S214004A103D000000E70000005D000000EF00000021
S214004A2056000000AD000000BE000000F7000000C9
S214004A30DF000000FF000000BF000000FF000000D5
S214004A40DF000000FF000000DF000000FF000000A5
S214004A5059000000CE0000001C000000E700000027
S214004A60690000004A000000280000004A0000001C
S214004A7008000000420000000000000000000000E7
S214004A80A200000010000000C30000001800000094
S214004A90820000001000000000000000000000007F
S214004AA06E00000073000000BE000000F70000006B
S214004AB0FF000000FF000000FF000000FF000000F5
S214004AC0FF000000FF000000FF000000FF000000E5
S214004AD0DF000000FF000000BE000000F70000003E
S214004AE0DF000000FF0000009E000000F70000004E
S214004AF0EC00000062000000000000000000000063
S214004B004500000029000000000000000000000032
S214004B10E300000020000000AE000000730000006C
S214004B20B20000009400000055000000AD00000038
S214004B3018000000C600000059000000CE0000006B
S214004B4035000000AD000000AE000000730000005D
S214004B508A000000520000004900000042000000E9
S214004B60E700000039000000E70000003900000000
S214004B70A0000000100000006C00000052000000C2
S214004B80950000009C000000D6000000A400000075
S214004B90B9000000BD00000057000000BD00000086
S214004BA00B000000B3000000F2000000AC000000A4
S214004BB0BA000000D6000000DF000000FF00000082
S214004BC0DF000000FF000000DF000000FF00000024
S214004BD0DF000000FF000000DF000000FF00000014
S214004BE0DF000000FF000000DF000000FF00000004
S214004BF0DF000000FF000000DF000000FF000000F4
S214004C00DF000000FF000000DF000000FF000000E3
S214004C10DF000000FF000000DF000000FF000000D3
S214004C20DF000000FF000000DF000000FF000000C3
S214004C30DF000000FF000000DF000000FF000000B3
S214004C40DF000000FF000000DF000000FF000000A3
S214004C50DF000000FF000000DF000000FF00000093
S214004C60DF000000FF000000BF000000FF000000A3
S214004C70FF000000FF000000FB000000DE00000058
S214004C8097000000BD000000D7000000BD00000037
S214004C909E000000F7000000DB000000DE000000C1
S214004CA01C000000E7000000FF000000FF000000FE
S214004CB0BF000000FF000000BF000000FF00000073
S214004CC0FF000000FF0000003C000000E7000000BE
S214004CD03C000000E70000007A000000D60000005C
S214004CE00000000000000000AA00000052000000C3
S214004CF0000000000000000062000000100000003D
S214004D000400000021000000000000000000000079
S214004D106E000000730000003000000084000000F9
S214004D201000000084000000FF000000FF000000EC
S214004D305D000000EF0000009A000000D6000000B2
S214004D40F8000000C5000000F8000000C5000000E4
S214004D5059000000CE0000003D000000EF000000FB
S214004D60FF000000FF000000FF000000FF00000042
S214004D707A000000CE0000000000000000000000E6
S214004D804500000029000000A700000039000000D0
S214004D90EB00000062000000AF0000007B00000097
S214004DA0710000008C00000055000000AD000000FF
S214004DB0D30000009C00000035000000AD0000009D
S214004DC055000000A5000000710000008C000000E7
S214004DD06D0000007B000000A900000062000000DB
S214004DE0C700000039000000860000003100000007
S214004DF0A000000018000000AC00000062000000E8
S214004E00940000009C00000076000000AD0000004A
S214004E107A000000D60000001D000000E700000039
S214004E209E000000EF000000FF000000FF000000F2
S214004E30FF000000FF000000DF000000FF00000091
S214004E40DF000000FF000000DF000000FF000000A1
S214004E50DF000000FF000000DF000000FF00000091
S214004E60DF000000FF000000DF000000FF00000081
S214004E70DF000000FF000000DF000000FF00000071
S214004E80DF000000FF000000DF000000FF00000061
S214004E90DF000000FF000000DF000000FF00000051
S214004EA0DF000000FF000000DF000000FF00000041
S214004EB0DF000000FF000000DF000000FF00000031
S214004EC0DF000000FF000000DF000000FF00000021
S214004ED0DF000000FF000000DF000000FF00000011
S214004EE0DF000000FF000000BF000000FF00000021
S214004EF0DF000000FF00000039000000CE000000C8
S214004F00D8000000C500000018000000C600000021
S214004F10BE000000F7000000BF000000FF00000019
S214004F20DF000000FF000000BF000000FF000000E0
S214004F30DF000000FF000000BF000000FF000000D0
S214004F40FF000000FF000000DB000000DE000000A5
S214004F50BE000000F700000035000000AD000000B5
S214004F60E300000018000000E70000003900000021
S214004F7000000000000000004100000008000000E3
S214004F80650000002900000000000000000000008E
S214004F9014000000A500000076000000B500000028
S214004FA00800000042000000D3000000A40000003B
S214004FB0500000009400000075000000B5000000DE
S214004FC09A000000D60000003D000000EF00000040
S214004FD07D000000EF0000003D000000EF00000034
S214004FE0DB000000DE00000059000000CE000000DC
S214004FF0B6000000BD000000EB00000062000000EC
S214005000AB0000005A0000004D0000006B000000DE
S2140050106D0000006B000000080000004200000069
S214005020CF0000007B000000D30000009C000000C2
S21400503071000000940000008F000000AC0000002B
S2140050406D000000730000004D00000063000000CB
S2140050506C0000007300000031000000BD0000007E
S214005060AD0000008B000000A70000002900000033
S214005070480000005A000000C00000003800000091
S214005080B6000000B5000000FF000000FF000000B2
S214005090FF000000FF000000DF000000FF0000002F
S2140050A0DF000000FF000000BF000000FF0000005F
S2140050B0BF000000FF000000DF000000FF0000004F
S2140050C0DF000000FF000000DF000000FF0000001F
S2140050D0DF000000FF000000DF000000FF0000000F
S2140050E0DF000000FF000000DF000000FF000000FF
S2140050F0DF000000FF000000DF000000FF000000EF
S214005100DF000000FF000000DF000000FF000000DE
S214005110DF000000FF000000DF000000FF000000CE
S214005120DF000000FF000000DF000000FF000000BE
S214005130DF000000FF000000DF000000FF000000AE
S214005140DF000000FF000000DF000000FF0000009E
S214005150DF000000FF000000DF000000FF0000008E
S214005160BF000000FF000000DF000000FF0000009E
S2140051709E000000F7000000D8000000C5000000F8
S2140051801A000000CE00000039000000CE0000002B
S214005190BF000000FF000000DF000000FF0000006E
S2140051A0BF000000FF000000DF000000FF0000005E
S2140051B0DF000000FF000000DF000000FF0000002E
S2140051C0DF000000FF0000001C000000E7000000F9
S2140051D0BE000000F7000000310000008C00000058
S2140051E08600000031000000450000002900000095
S2140051F020000000000000008200000010000000F8
S214005200C3000000180000000000000000000000BE
S2140052104C000000730000004C000000730000000B
S214005220490000004A0000007A000000D600000096
S2140052309E000000F70000009E000000F70000003F
S214005240FB000000DE000000D7000000BD000000EC
S214005250F3000000AC0000005000000094000000C6
S214005260AD00000083000000EA0000006A000000B5
S214005270C5000000490000004500000031000000A5
S2140052808A000000520000004D0000006B00000085
S2140052900800000042000000650000002900000031
S2140052A06E00000073000000720000009400000012
S2140052B08E0000007B00000012000000B500000019
S2140052C06F000000A4000000070000005A00000065
S2140052D0690000004A0000004F0000009C0000002B
S2140052E030000000A4000000690000005A00000022
S2140052F0CB0000005A00000014000000A5000000CB
S2140053009A000000D6000000FF000000FF0000002A
S214005310FF000000FF000000FF000000FF0000008C
S2140053207D000000EF000000FF000000FF0000000E
S214005330DF000000FF000000DF000000FF000000AC
S214005340DF000000FF000000DF000000FF0000009C
S214005350DF000000FF000000DF000000FF0000008C
S214005360DF000000FF000000DF000000FF0000007C
S214005370DF000000FF000000DF000000FF0000006C
S214005380DF000000FF000000DF000000FF0000005C
S214005390DF000000FF000000DF000000FF0000004C
S2140053A0DF000000FF000000DF000000FF0000003C
S2140053B0DF000000FF000000DF000000FF0000002C
S2140053C0DF000000FF000000DF000000FF0000001C
S2140053D0DF000000FF000000DF000000FF0000000C
S2140053E0BF000000FF000000FF000000FF000000FC
S2140053F03C000000E7000000F9000000C5000000C7
S2140054005A000000D600000019000000CE00000080
S214005410BF000000FF000000DF000000FF000000EB
S214005420DF000000FF000000DF000000FF000000BB
S214005430BF000000FF000000DF000000FF000000CB
S214005440BF000000FF0000005D000000EF0000004D
S2140054507E000000F70000006E00000073000000F1
S214005460C700000039000000E3000000180000003C
S214005470410000000800000082000000100000004C
S214005480E30000001800000000000000000000001C
S21400549071000000940000001C000000E7000000FF
S2140054A0F8000000C5000000F7000000BD00000086
S2140054B096000000B5000000CE000000830000004B
S2140054C08900000062000000CE0000008B00000093
S2140054D0CE00000083000000EB0000006200000029
S2140054E0A7000000390000000200000000000000D5
S2140054F04200000000000000280000004A000000F3
S214005500480000004A000000E40000001800000008
S2140055108600000031000000280000004200000065
S2140055208A00000052000000AF0000007300000078
S21400553070000000A4000000D4000000C5000000B9
S214005540AD000000830000000E0000009C0000007C
S2140055508C000000830000000800000062000000CD
S21400556012000000CD0000002C00000073000000B8
S2140055704600000021000000CA0000006200000093
S2140055800C0000006B000000D3000000A400000028
S21400559054000000AD000000D7000000BD00000071
S2140055A055000000AD000000BA000000D600000064
S2140055B07E000000F7000000BE000000F7000000BC
S2140055C0DF000000FF000000DF000000FF0000001A
S2140055D0DF000000FF000000DF000000FF0000000A
S2140055E0DF000000FF000000DF000000FF000000FA
S2140055F0DF000000FF000000DF000000FF000000EA
S214005600DF000000FF000000DF000000FF000000D9
S214005610DF000000FF000000DF000000FF000000C9
S214005620DF000000FF000000DF000000FF000000B9
S214005630DF000000FF000000DF000000FF000000A9
S214005640DF000000FF000000DF000000FF00000099
S214005650DF000000FF000000DF000000FF00000089
S214005660BF000000FF000000FF000000FF00000079
S214005670DB000000DE00000039000000CE00000065
S2140056809B000000DE00000019000000CE000000B5
S2140056909E000000F7000000FF000000FF00000072
S2140056A05D000000EF0000003C000000E700000086
S2140056B0DF000000FF000000DF000000FF00000029
S2140056C0BE000000F70000007D000000EF000000B4
S2140056D05D000000EF000000EC000000620000002B
S2140056E008000000420000008200000010000000D9
S2140056F06200000010000000A20000001000000081
S214005700E400000020000000000000000000000090
S214005710D7000000BD00000038000000CE000000EA
S214005720B2000000A4000000EA0000006A000000CA
S2140057308500000039000000E7000000410000007E
S214005740EB00000062000000890000005A00000024
S2140057500000000000000000A10000002000000083
S214005760690000005A0000008D0000007B00000069
S2140057704F00000094000000B1000000A4000000EC
S214005780B10000009C0000004C0000007300000008
S214005790E8000000410000000400000021000000B6
S2140057A0A500000039000000C80000003900000015
S2140057B0F2000000A400000053000000B500000046
S2140057C00B000000A3000000B8000000E600000088
S2140057D039000000F7000000D4000000CD000000F3
S2140057E0D1000000B4000000A50000004100000049
S2140057F08A0000005200000096000000B50000007D
S214005800B6000000BD00000055000000B500000016
S214005810B6000000BD00000096000000BD000000BD
S214005820AE0000007B000000D30000009C000000DB
S21400583096000000B500000018000000C60000003A
S214005840DB000000DE000000BF000000FF000000DC
S214005850DF000000FF000000BF000000FF000000A7
S214005860DF000000FF000000DF000000FF00000077
S214005870DF000000FF000000DF000000FF00000067
S214005880DF000000FF000000DF000000FF00000057
S214005890DF000000FF000000DF000000FF00000047
S2140058A0DF000000FF000000DF000000FF00000037
S2140058B0DF000000FF000000DF000000FF00000027
