S018000070726F6A6563745F6370756C61746F722E737265634C
S21400000018F09FE518F09FE518F09FE518F09FE5BB
S21400001018F09FE518F09FE518F09FE518F09FE5AB
S214000020400000007C1300008013000084130000D2
S21400003088130000781300008C1300009013000053
S214000040260000EA8C609FE5000056E380402DE91C
S214000050016046E21E00000A7C509FE50000A0E317
S2140000600010A0E30C2015E510E015E5084015E5A6
S21400007002005EE1042082000900000A000054E34A
S2140000800700000A0270A0E102C0A0E10C00BEE872
S2140000900C00ACE80C3067E0030054E10C20A0E153
S2140000A0F9FFFF1A04E015E500005EE30230A01138
S2140000B00300000A0300A3E803C062E00C005EE150
S2140000C0FBFFFF1A016046E2010076E3145085E26A
S2140000D0E3FFFF1A8E0400EB010000007814000016
S2140000E03C108FE21600A0E3563412EF000050E3F7
S2140000F0080000BA28209FE51CD09FE5080092E57E
S214000100000050E300D0A01110109FE5040092E517
S214000110000050E300008115C9FFFFEAF8FFFF3F2B
S21400012098B60100C8B6010000D01FE5C4FFFFEA7C
S214000130F8FFFF3F08402DE92C009FE52C309FE597
S214000140033060E0060053E30100008A0840BDE883
S2140001501EFF2FE118309FE5000053E3FAFFFF0A69
S2140001600FE0A0E113FF2FE1F7FFFFEAA0B60100C2
S214000170A3B601000000000008402DE934009FE50A
S21400018034309FE5033060E04331A0E1A33F83E0D5
S214000190C310B0E10100001A0840BDE81EFF2FE1C1
S2140001A018209FE5000052E3FAFFFF0A0FE0A0E1E7
S2140001B012FF2FE1F7FFFFEAA0B60100A0B601008C
S2140001C00000000010402DE92C409FE50030D4E5EB
S2140001D0000053E30600001AD5FFFFEB1C309FE536
S2140001E0000053E318009F1500F020130130A0E331
S2140001F00030C4E51040BDE81EFF2FE1A0B60100A8
S214000200000000001C14000008402DE934309FE573
S214000210000053E330009F1530109F1500F02013A8
S2140002202C009FE5003090E5000053E30300000A31
S21400023020309FE5000053E30FE0A01113FF2F11BD
S2140002400840BDE8CBFFFFEA000000001C140000D9
S214000250A4B601007814000000000000003090E50D
S214000260002091E5002080E5003081E51EFF2FE1AB
S214000270BC360BE3013040E3003093E58000A0E19C
S214000280011583E0B02081E11EFF2FE1F8402DE943
S2140002900050A0E30570A0E10060E0E3090000EA7A
S2140002A00500A0E10410A0E10620A0E1EFFFFFEBAF
S2140002B0014084E2F00054E3F8FFFF1A015085E2A3
S2140002C0050D55E3F880BD080740A0E1F3FFFFEAFF
S2140002D0F04F2DE914D04DE20C008DE508108DE5A9
S2140002E004208DE500308DE5F8A3DDE1033061E004
S2140002F0000053E3003063B2022060E0C27F22E0D9
S214000300C27F47E0070053E10070A0D30170A0C38E
S214000310000057E30500000A0C008DE208108DE28D
S214000320CDFFFFEB04008DE20D10A0E1CAFFFFEB4E
S21400033004309DE50C209DE5030052E1050000DA3F
S2140003400C008DE204108DE2C3FFFFEB08008DE287
S2140003500D10A0E1C0FFFFEB04209DE50C509DE5CD
S214000360029065E07990FFE600109DE508309DE577
S214000370018063E0000058E3008068B27940BFE681
S214000380004064E2A44F84E0D440EFE77360FFE6E9
S214000390FFBF0FE3030051E101B0A0C37550FFE6B5
S2140003A07510BFE6010052E1130000BA000057E3E3
S2140003B07600BF160100A0017610BF060A20A0E155
S2140003C0AAFFFFEB044088E07430FFE67340FFE6C8
S2140003D0020914E30B6086007660FF06034069009E
S2140003E07440FF06015085E27550FFE67510BFE6C3
S2140003F004309DE5030051E1EBFFFFDA14D08DE2F7
S214000400F08FBDE8F0472DE90090A0E10180A0E163
S2140004100270A0E10060A0E306A0A0E1090000EAE7
S2140004200500A0E1081084E00720A0E18FFFFFEBA5
S214000430014084E2040054E3F8FFFF1A016086E2FC
S214000440040056E3F087BD080A40A0E1095086E0A4
S214000450F2FFFFEAF8452DE90170A0E10260A0E195
S2140004600050A0E10A80A0E300A0A0E30B0000EA91
S2140004700500A0E1071084E00620A0E17BFFFFEB6B
S214000480014084E20A0054E3F8FFFF1A018048E2C4
S2140004907880FFE6015085E2000058E3F885BD0845
S2140004A00A40A0E1F1FFFFEAFF3F03E3203F4FE3EE
S2140004B00120A0E3DF2F03E5D33F13E5010013E39C
S2140004C01EFF2F01FF2F03E3202F4FE3D33F12E53C
S2140004D0010013E3FCFFFF1A1EFF2FE1F8452DE98C
S2140004E00070A0E10150A0E14480A0E300A0A0E3DA
S2140004F00060E0E30B0000EA070084E00510A0E1DE
S2140005000620A0E159FFFFEB014084E2500054E3CF
S214000510F8FFFF1A018048E27880FFE6015085E286
S214000520000058E3F885BD080A40A0E1F1FFFFEAA5
S214000530F84F2DE900B0A0E10190A0E198709FE58A
S21400054000A0A0E3805401E3005040E31C0000EA52
S214000550000094E5041014E5003481E0042095E5DD
S21400056000C095E502C48CE00C0053E10C00000AC4
S21400057008C095E50C2482E0020053E10800000A5A
S214000580A8C795E5A42795E50C2482E0020053E170
S2140005900300000A0600A0E10810A0E17320BFE6F1
S2140005A032FFFFEB084084E2016086E2070054E178
S2140005B0E6FFFF1A01A08AE20A7D87E244005AE3BA
S2140005C0F88FBD080A418AE0844385E0044084E24F
S2140005D00B60A0E109808AE0DCFFFFEA0417000058
S2140005E0F04F2DE90CD04DE200B0A0E104108DE5EF
S2140005F08C709FE500A0A0E358640BE3006040E326
S214000600A29E86E2089089E2140000EA002094E5A3
S214000610043014E5020483E02CCA96E5281A96E511
S2140006200C1481E0010050E10400000A0020A0E163
S2140006300500A0E10810A0E17220BFE60BFFFFEB6B
S214000640084084E2015085E2070054E1EEFFFF1AFD
S21400065001A08AE2057D87E225005AE30600000A2B
S2140006600A418AE0044389E0044084E20B50A0E19A
S21400067004309DE503808AE0E3FFFFEA0CD08DE2BC
S214000680F08FBDE8C4BF0000F84F2DE900B0A0E130
S2140006900190A0E168609FE50080A0E379AF46E2A4
S2140006A0110000EA002094E5043014E5021483E00B
S2140006B0000051E30400000A0120A0E10500A0E1CB
S2140006C00710A0E17220BFE6E8FEFFEB084084E2D8
S2140006D0015085E2060054E1F1FFFF1A018088E22E
S2140006E01E6E86E22E0058E3F88FBD08084268E0CA
S2140006F084428AE0044084E20B50A0E1097088E05E
S214000700E7FFFFEAA4EE0000F84F2DE900B0A0E1F5
S2140007100190A0E16C609FE500A0A0E3FF7F0FE3DF
S214000720110000EA002094E5043014E5021483E08A
S214000730070051E10400000A0120A0E10500A0E145
S2140007400810A0E17220BFE6C8FEFFEB084084E276
S214000750015085E2060054E1F1FFFF1A01A08AE28B
S2140007601E6E86E23A005AE3F88FBD080A426AE037
S21400077014309FE5844283E0044084E20B50A0E1FD
S21400078009808AE0E6FFFFEAE44401000043010036
S214000790F84F2DE900B0A0E10190A0E150609FE580
S2140007A00080A0E330A046E20B0000EA0420B5E596
S2140007B00400A0E10710A0E17220BFE6ABFEFFEB4D
S2140007C0014084E2050056E1F7FFFF1A018088E247
S2140007D0346086E20D0058E3F88FBD083430A0E39D
S2140007E093A825E0045045E20B40A0E1097088E09C
S2140007F0EDFFFFEAF0AF010070402DE90060A0E1D8
S2140008000140A0E1DF2400E311FFFFEB0A5086E27F
S2140008100500A0E10410A0E10020E0E30CFFFFEBE0
S2140008200A4084E20600A0E10410A0E10020E0E314
S21400083007FFFFEB0500A0E10410A0E1DF2400E3C2
S21400084003FFFFEB7080BDE870402DE90050A0E389
S2140008500560A0E1080000EA0500A0E10410A0E1A0
S214000860E4FFFFEB144084E2F00054E3F9FFFF1AC4
S214000870145085E2050D55E37080BD080640A0E1E2
S214000880F4FFFFEAF04F2DE984D04DE2D30100EBF0
S2140008901F3508E3EB3145E39310C3E0C02FA0E11A
S2140008A0433362E0C820A0E3920363E0503083E263
S2140008B073B0FFE6C90100EB49360DE3B9324FE3EA
S2140008C09320C3E0002083E0C03FA0E1C23363E092
S2140008D0833183E0033263E0003063E0443083E238
S2140008E07330FFE600308DE5BC0100EBA03F80E0F2
S2140008F0013003E2A00F43E08030A0E1013043E284
S2140009007330FFE610308DE5B40100EBA03F80E0C9
S214000910013003E2A00F43E08030A0E1013043E263
S2140009207330FFE614308DE5AC0100EBB73006E31C
S2140009300B364BE39310C3E0002083E0C03FA0E1FA
S214000940C23363E0B420A0E3920363E0503083E256
S2140009507330FFE604308DE5A00100EB833002E340
S214000960083248E39320C3E0002083E0C03FA0E1C4
S214000970423363E0033363E0833040E0443083E295
S2140009807330FFE608308DE5940100EBA03F80E071
S214000990013003E2A00F43E08030A0E1013043E2E3
S2140009A07330FFE618308DE58C0100EBA03F80E049
S2140009B0013003E2A00F43E08030A0E1013043E2C3
S2140009C07330FFE61C308DE5840100EBB53004E3A0
S2140009D00B344BE39310C3E0002083E0C03FA0E15C
S2140009E0C23363E0B620A0E3920363E0503083E2B4
S2140009F07330FFE60C308DE5780100EB933402E3AC
S214000A00493249E39320C3E0002083E0C03FA0E1E1
S214000A10423363E0833163E0030240E0449080E2C7
S214000A207990FFE66D0100EBA03F80E0013003E225
S214000A30A00F43E08030A0E1013043E27330FFE6D0
S214000A4020308DE5650100EBA03F80E0013003E239
S214000A50A00F43E08030A0E1013043E27330FFE6B0
S214000A6024308DE50040A0E3195E08E3165442E307
S214000A70E370A0E34F610DE3C26941E3570100EB69
S214000A80560100EBA03F80E0013003E2A00F43E0F8
S214000A908020A0E1012042E26C308DE2B32084E1A8
S214000AA04E0100EBA03F80E0013003E2A00F43E0E0
S214000AB08020A0E1012042E258308DE2B32084E19C
S214000AC0460100EB9530C2E0C03FA0E1C22263E0E1
S214000AD0970262E0502082E244308DE2B32084E147
S214000AE03E0100EB9610C2E0C03FA0E1423263E058
S214000AF0032183E0823263E0003063E0443083E227
S214000B00300084E20D20A0E1B23080E1024084E2B1
S214000B10140054E3D8FFFF1AFF4F03E3204F4FE3C0
S214000B203233A0E3DB3F04E5DF3F14E5BC560BE3BE
S214000B30015040E3003085E5D3FDFFEB59FEFFEBA7
S214000B40DF3F14E5003085E5CFFDFFEB0331A0E382
S214000B50DB3F04E5DF3F14E5003085E518140BE3C2
S214000B60011040E328108DE50580A0E1327100E316
S214000B7000A0E0E3FF2F03E3202F4FE32C208DE5BA
S214000B8030FFFFEB28009DE5B43110E5002093E52B
S214000B90040012E30300000A042098E5AB0052E3C9
S214000BA0022082D2042088D5002093E5020012E3BA
S214000BB00300000A042098E5000052E3022042C227
S214000BC0042088C5002093E5010012E30300000A14
S214000BD0082098E5EF0052E3022082D2082088D54C
S214000BE0003093E5080013E30300000A083098E598
S214000BF0000053E3023043C2083088C5080098E579
S214000C00041098E549FEFFEB0040A0E344308DE277
S214000C106C208DE2B26094E1B32094E1026086E03D
S214000C207660FFE6B36084E158308DE2B35094E11D
S214000C30302084E20D10A0E1B13092E1035085E04F
S214000C407550FFE6B15082E17630BFE6000053E310
S214000C500B0000CA6C308DE20100A0E3B30084E113
S214000C60DE0000EBA03F80E0013003E2A00F43E08F
S214000C708030A0E1013043E258208DE2B23084E1BA
S214000C800C0000EA7630BFE6070053E1090000DA00
S214000C906C308DE2B3A084E1D00000EBA03F80E092
S214000CA0013003E2A00F43E08030A0E1013043E2D0
S214000CB058208DE2B23084E17530BFE6000053E381
S214000CC00B0000CA58308DE20110A0E3B31084E197
S214000CD0C20000EBA03F80E0013003E2A00F43E03B
S214000CE08030A0E1013043E26C208DE2B23084E136
S214000CF00C0000EA7530BFE6E20053E3090000DAB4
S214000D0058308DE2B3A084E1B40000EBA03F80E051
S214000D10013003E2A00F43E08030A0E1013043E25F
S214000D206C208DE2B23084E17600BFE67510BFE637
S214000D3096FEFFEB024084E2140054E3B2FFFF1A73
S214000D407B30BFE6000053E3070000DA0310A0E1A3
S214000D50FF3F0FE3172100E310009DE5020051E17D
S214000D600300A0C110008DE5010000EA0110A0E319
S214000D7010108DE500209DE57230BFE6000053E3BD
S214000D80060000DA7220BFE6FF3F0FE314009DE581
S214000D90CA0052E30300A0C114008DE5010000EA7A
S214000DA00110A0E314108DE504209DE57230BFE627
S214000DB0000053E3070000DA0310A0E1FF3F0FE353
S214000DC0032100E318009DE5020051E10300A0C1E5
S214000DD018008DE5010000EA0110A0E318108DE56B
S214000DE008209DE57230BFE6000053E3060000DAF7
S214000DF07220BFE6FF3F0FE31C009DE5C10052E3F3
S214000E000300A0C11C008DE5010000EA0110A0E36C
S214000E101C108DE50C209DE57230BFE6000053E304
S214000E20070000DA0310A0E1FF3F0FE3052100E30F
S214000E3020009DE5020051E10300A0C120008DE5E1
S214000E40010000EA0110A0E320108DE57930BFE62E
S214000E50000053E3060000DA0320A0E1FF3F0FE3A3
S214000E6024009DE5B30052E30300A0C124008DE5F5
S214000E70010000EA0110A0E324108DE510209DE596
S214000E800B3082E073B0FFE614009DE500109DE590
S214000E90013080E07330FFE600308DE518209DE5D8
S214000EA004009DE5003082E07330FFE604308DE5F7
S214000EB01C109DE508209DE5023081E07330FFE6BA
S214000EC008308DE520009DE50C109DE5013080E0A2
S214000ED07330FFE60C308DE524209DE5099082E016
S214000EE07990FFE67B00BFE600309DE57310BFE615
S214000EF0BAFDFFEB04109DE57100BFE608209DE5F6
S214000F007210BFE6DFFDFFEB0C309DE57300BFE619
S214000F107910BFE6FBFDFFEB62FDFFEB2C009DE5C5
S214000F20DB3F10E5003088E514FFFFEAF8402DE9C6
S214000F300050A0E30570A0E10060E0E3090000EACD
S214000F400500A0E10410A0E10620A0E1C7FCFFEB2D
S214000F50014084E2F00054E3F8FFFF1A015085E2F6
S214000F60050D55E3F880BD080740A0E1F3FFFFEA52
S214000F700010A0E10000A0E308402DE90020A0E159
S214000F800030A0E12C0000EB0840BDE81EFF2FE17A
S214000F9008402DE90010A0E30040A0E1630000EB4C
S214000FA018309FE5000093E53C3090E5000053E3E1
S214000FB00FE0A01113FF2F110400A0E1E70000EBE3
S214000FC02014000010309FE5003093E50020A0E3D9
S214000FD0A80083E5AC2083E51EFF2FE168B2010080
S214000FE004402DE544309FE500C093E540409FE572
S214000FF0A8209CE5920404E0AC109CE534309FE504
S214001000934124E0920381E00120A0E3002092E0D7
S214001010011084E00030A0E30130A3E0A8208CE5B6
S214001020AC308CE50201C3E31000BDE81EFF2FE1E3
S21400103068B201002DF451582D7F954CE4C09FE511
S214001040F0412DE900409CE548C194E500005CE3D2
S21400105053CF840204509CE548C184051F0055E325
S21400106010D04DE20060A0E1150000DAB8009FE560
S214001070000050E30100001A0000E0E3180000EA58
S214001080190EA0E30C108DE508208DE504308DE5E3
S21400109000F020E300C050E20C109DE508209DE51E
S2140010A004309DE5F3FFFF0A485194E50000A0E3F5
S2140010B004008CE500508CE548C184E588018CE589
S2140010C08C018CE5000056E304409CE50700001AFE
S2140010D0023084E2014084E203118CE704408CE590
S2140010E00000A0E310D08DE2F041BDE81EFF2FE126
S2140010F00100A0E31004A0E104818CE0020056E3A6
S21400110088719CE5083188E58C319C05007087E184
S214001110000083010850A0E1882088E588718CE5EE
S2140011208C018C05E9FFFFEA201400000000000097
S214001130F04F2DE968319FE5003093E514D04DE27D
S21400114004308DE5523F83E208008DE50C308DE5D6
S2140011500170A0E10180A0E304309DE5486193E5BD
S214001160000056E30CB09DE53300000A045096E5F7
S214001170014055E288A086521F50855205518A507C
S2140011800700005A290000EA003095E5070053E101
S2140011900500000A014044E2010074E3045045E201
S2140011A02200000A000057E3F6FFFF1A043096E517
S2140011B005206AE0013043E2022086E0040053E1A5
S2140011C0783012E50010A01304408605781002154A
S2140011D0000053E3EEFFFF0A1824A0E1881196E50D
S2140011E0010012E1049096E51600000A8C1196E5BF
S2140011F0010012E11600001A08009DE5801015E5B2
S2140012000FE0A0E113FF2FE1043096E5090053E15B
S214001210D0FFFF1A00309BE5060053E1CDFFFF1A12
S214001220014044E2010074E3045045E2DCFFFF1A8B
S21400123070109FE5000051E30900001A14D08DE2FB
S214001240F04FBDE81EFF2FE10FE0A0E113FF2FE1F6
S214001250ECFFFFEA800015E50FE0A0E113FF2FE1A9
S214001260E8FFFFEA043096E5000053E3003096E519
S2140012700800001A000053E30600000A0600A0E17A
S21400128000308BE500F020E300609BE5000056E3AD
S214001290B5FFFF1AE8FFFFEA06B0A0E10360A0E191
S2140012A0F9FFFFEA201400000000000008402DE9C6
S2140012B010309FE5000053E30C009F152BFFFF1B2B
S2140012C00840BDE81EFF2FE148140000D0120000C1
S2140012D038402DE930509FE530409FE5044065E0FA
S2140012E04441B0E1045185100400000A043035E59D
S2140012F00FE0A0E113FF2FE1014054E2FAFFFF1ACE
S214001300500000EB3840BDE81EFF2FE160140000DF
S2140013106414000008402DE91D0000EB30309FE506
S214001320000053E3000093150300A00124309FE55E
S214001330000053E3001093150310A0010020A0E363
S2140013404FFDFFEB10309FE5000053E30FFFFF1B40
S214001350FEFFFFEA0000000000000000900F000003
S21400136004E02DE51800A0E304109FE5563412EFC4
S214001370FEFFFFEA26000200FEFFFFEAFEFFFFEA8E
S214001380FEFFFFEAFEFFFFEAFEFFFFEAFEFFFFEAC0
S214001390FEFFFFEA70402DE96C509FE56C609FE50C
S2140013A0066065E04661B0E1045045120040A013B7
S2140013B00500000A0430B5E5014084E20FE0A0E134
S2140013C013FF2FE1040056E1F9FFFF1A40509FE596
S2140013D040609FE5066065E0120000EB4661B0E104
S2140013E0045045120040A0130500000A0430B5E57D
S2140013F0014084E20FE0A0E113FF2FE1040056E174
S214001400F9FFFF1A7040BDE81EFF2FE140140000F0
S210001410401400004014000048140000C7
S20800141C00000000C7
S21400142070B20100430000000DC0A0E1F8DF2DE916
S21400143004B04CE228D04BE2F06F9DE81EFF2FE18F
S214001440AC120000080200000DC0A0E1F8DF2DE994
S21400145004B04CE228D04BE2F06F9DE81EFF2FE16F
S214001460C4010000000000000000000000000000B2
S20C001470A0B6010028000000F0
S2140014780000000000000000DF000000FF00000081
S214001488DF000000FF000000DF000000FF00000093
S214001498DF000000FF000000DF000000FF00000083
S2140014A8DF000000FF000000DF000000FF00000073
S2140014B8DF000000FF000000DF000000FF00000063
S2140014C8DF000000FF000000DF000000FF00000053
S2140014D8DF000000FF000000DF000000FF00000043
S2140014E8DF000000FF000000DF000000FF00000033
S2140014F8DF000000FF000000DF000000FF00000023
S214001508DF000000FF000000DF000000FF00000012
S214001518DF000000FF000000DF000000FF00000002
S214001528DF000000FF000000BF000000FF00000012
S214001538BF000000FF000000DF000000FF00000002
S214001548FF000000FF000000FF000000FF00000092
S214001558DF000000FF0000009E000000F70000000B
S2140015683C000000E7000000BB000000DE000000B2
S21400157839000000CE00000096000000B50000000C
S21400158835000000A500000092000000940000004E
S21400159810000000840000004E0000006B000000F1
S2140015A8CB0000005A000000AB0000005A00000004
S2140015B88A000000520000008A0000005200000066
S2140015C8AB0000005A0000000C000000630000009A
S2140015D8F000000083000000D7000000BD000000F7
S2140015E8BA000000D60000001C000000E70000005B
S2140015F85D000000EF000000BF000000FF000000D4
S214001608FF000000FF000000FF000000FF000000D1
S214001618FF000000FF000000FF000000FF000000C1
S214001628DF000000FF000000DF000000FF000000F1
S214001638FF000000FF000000FF000000FF000000A1
S214001648FF000000FF000000DF000000FF000000B1
S214001658BE000000F7000000BF000000F700000012
S214001668BF000000FF000000DF000000FF000000D1
S214001678DF000000FF000000DF000000FF000000A1
S214001688DF000000FF000000DF000000FF00000091
S214001698DF000000FF000000DF000000FF00000081
S2140016A8DF000000FF000000DF000000FF00000071
S2140016B8DF000000FF000000DF000000FF00000061
S2140016C8DF000000FF000000DF000000FF00000051
S2140016D8DF000000FF000000DF000000FF00000041
S2140016E8DF000000FF000000DF000000FF00000031
S2140016F8DF000000FF000000DF000000FF00000021
S214001708DF000000FF000000DF000000FF00000010
S214001718DF000000FF000000DF000000FF00000000
S214001728DF000000FF000000DF000000FF000000F0
S214001738DF000000FF000000DF000000FF000000E0
S214001748DF000000FF000000DF000000FF000000D0
S214001758DF000000FF000000DF000000FF000000C0
S214001768DF000000FF000000DF000000FF000000B0
S214001778DF000000FF000000DF000000FF000000A0
S214001788DF000000FF000000DF000000FF00000090
S214001798DF000000FF000000BF000000FF000000A0
S2140017A8BF000000FF000000FF000000FF00000070
S2140017B8FF000000FF000000BF000000FF00000060
S2140017C83C000000E700000059000000CE000000C2
S2140017D875000000AD0000009200000094000000B4
S2140017E8AF0000007B000000EC0000006200000074
S2140017F8090000004A0000008700000039000000C9
S2140018080500000029000000010000000800000094
S2140018180000000000000000E400000020000000B7
S2140018288600000031000000E800000041000000CB
S214001838CB0000005A000000CF0000007B0000002C
S214001848F0000000830000008E0000007300000017
S21400185855000000AD00000035000000AD00000097
S214001868510000008C0000001000000084000000FA
S214001878F000000083000000510000008C0000000B
S214001888F4000000A4000000B7000000B500000047
S2140018989A000000D60000001C000000E7000000C8
S2140018A8BE000000F70000003C000000EF0000004B
S2140018B89A000000D6000000FB000000DE000000D2
S2140018C85D000000EF000000DF000000FF000000E1
S2140018D8FF000000FF000000FF000000FF000000FF
S2140018E8DF000000FF000000BF000000FF0000004F
S2140018F8BF000000FF000000DF000000FF0000003F
S214001908DF000000FF000000DF000000FF0000000E
S214001918DF000000FF000000DF000000FF000000FE
S214001928DF000000FF000000DF000000FF000000EE
S214001938DF000000FF000000DF000000FF000000DE
S214001948DF000000FF000000DF000000FF000000CE
S214001958DF000000FF000000DF000000FF000000BE
S214001968DF000000FF000000DF000000FF000000AE
S214001978DF000000FF000000DF000000FF0000009E
S214001988DF000000FF000000DF000000FF0000008E
S214001998DF000000FF000000DF000000FF0000007E
S2140019A8DF000000FF000000DF000000FF0000006E
S2140019B8DF000000FF000000DF000000FF0000005E
S2140019C8DF000000FF000000DF000000FF0000004E
S2140019D8DF000000FF000000DF000000FF0000003E
S2140019E8DF000000FF000000DF000000FF0000002E
S2140019F8DF000000FF000000DF000000FF0000001E
S214001A08BF000000FF000000BF000000FF0000004D
S214001A18DF000000FF000000FF000000FF000000DD
S214001A28FF000000FF0000003D000000EF0000007F
S214001A3818000000C6000000930000009400000094
S214001A48D00000007B0000004D0000006B00000086
S214001A58EC00000062000000CC0000005A00000005
S214001A68CB0000005A0000008A0000005200000068
S214001A788A00000052000000CB0000005A00000058
S214001A888A000000520000006A00000052000000B1
S214001A98290000004A000000710000008C000000C9
S214001AA859000000CE0000007D000000EF00000096
S214001AB8DF000000FF000000BF000000FF0000007D
S214001AC8DF000000FF00000018000000C60000004D
S214001AD8CF0000007B0000001C000000E7000000AC
S214001AE8FF000000FF0000009E000000F700000056
S214001AF85D000000EF000000DB000000DE000000D4
S214001B0859000000CE00000096000000B500000056
S214001B1814000000A500000076000000B5000000D4
S214001B2818000000C60000001C000000E7000000C7
S214001B385D000000EF0000009A000000D6000000DC
S214001B48D7000000BD00000096000000B5000000A9
S214001B58F8000000C5000000DB000000DE00000002
S214001B68BE000000F7000000FF000000FF000000B5
S214001B78FF000000FF000000DF000000FF0000007C
S214001B88BF000000FF000000BF000000FF000000CC
S214001B98DF000000FF000000DF000000FF0000007C
S214001BA8DF000000FF000000DF000000FF0000006C
S214001BB8DF000000FF000000DF000000FF0000005C
S214001BC8DF000000FF000000DF000000FF0000004C
S214001BD8DF000000FF000000DF000000FF0000003C
S214001BE8DF000000FF000000DF000000FF0000002C
S214001BF8DF000000FF000000DF000000FF0000001C
S214001C08DF000000FF000000DF000000FF0000000B
S214001C18DF000000FF000000DF000000FF000000FB
S214001C28DF000000FF000000DF000000FF000000EB
S214001C38DF000000FF000000DF000000FF000000DB
S214001C48DF000000FF000000DF000000FF000000CB
S214001C58DF000000FF000000DF000000FF000000BB
S214001C68DF000000FF000000DF000000FF000000AB
S214001C78DF000000FF000000BF000000FF000000BB
S214001C88DF000000FF000000FF000000FF0000006B
S214001C98DF000000FF000000FC000000E600000077
S214001CA876000000B50000006E000000730000001B
S214001CB80E0000006B000000720000009400000098
S214001CC810000000840000004D0000006B000000BB
S214001CD86E000000730000008E0000007300000015
S214001CE88E00000073000000AE00000073000000C5
S214001CF8AF0000007B000000AF0000007B00000083
S214001D088E000000730000004D0000006B0000000D
S214001D182C00000063000000CF0000007B000000DD
S214001D281000000084000000F4000000A40000007A
S214001D389A000000D60000009E000000F700000091
S214001D48FF000000FF000000FF000000FF0000008A
S214001D5896000000B50000000800000042000000E1
S214001D687D000000F7000000FF000000FF000000F4
S214001D78DF000000FF000000FF000000FF0000007A
S214001D88FF000000FF000000FF000000FF0000004A
S214001D98FF000000FF000000DF000000FF0000005A
S214001DA8BF000000FF000000DF000000FF0000008A
S214001DB8FF000000FF000000FF000000FF0000001A
S214001DC8DF000000FF0000007E000000F7000000B3
S214001DD8BA000000D600000096000000B50000001B
S214001DE8F4000000A4000000B6000000B5000000E3
S214001DF8DB000000DE000000BE000000F700000068
S214001E08FF000000FF000000FF000000FF000000C9
S214001E18BF000000FF000000BE000000F700000042
S214001E28DF000000FF000000DF000000FF000000E9
S214001E38DF000000FF000000DF000000FF000000D9
S214001E48DF000000FF000000DF000000FF000000C9
S214001E58DF000000FF000000DF000000FF000000B9
S214001E68DF000000FF000000DF000000FF000000A9
S214001E78DF000000FF000000DF000000FF00000099
S214001E88DF000000FF000000DF000000FF00000089
S214001E98DF000000FF000000DF000000FF00000079
S214001EA8DF000000FF000000DF000000FF00000069
S214001EB8DF000000FF000000DF000000FF00000059
S214001EC8DF000000FF000000DF000000FF00000049
S214001ED8DF000000FF000000DF000000FF00000039
S214001EE8DF000000FF000000BF000000FF00000049
S214001EF8BF000000FF000000FF000000FF00000019
S214001F08DF000000FF000000DB000000DE0000002D
S214001F1855000000AD0000008F0000007B000000A8
S214001F284E0000007300000055000000AD000000E1
S214001F389A000000D600000035000000AD00000042
S214001F482C00000063000000EC00000062000000A7
S214001F584D0000006B000000AE000000730000009B
S214001F68AF0000007B000000AE0000007300000019
S214001F78AE000000730000008E0000007300000032
S214001F88CF0000007B0000008E00000073000000F9
S214001F988A000000520000008A000000520000007C
S214001FA8EF0000007B0000006E00000073000000D9
S214001FB82C00000063000000EF0000007B0000001B
S214001FC89200000094000000F8000000C500000021
S214001FD85D000000EF0000008E00000073000000A7
S214001FE8B7000000BD000000FF000000FF00000072
S214001FF8BE000000F7000000BF000000FF00000061
S214002008BF000000FF000000BF000000FF00000047
S214002018DF000000FF000000DF000000FF000000F7
S214002028DF000000FF000000DF000000FF000000E7
S214002038BF000000FF000000BF000000FF00000017
S214002048DF000000FF000000DF000000FF000000C7
S214002058FF000000FF000000FF000000FF00000077
S2140020689E000000F70000007A000000D60000007E
S21400207814000000A5000000920000009400000074
S214002088D7000000BD0000003D000000EF00000083
S214002098FF000000FF000000FF000000FF00000037
S2140020A8BF000000FF000000BF000000FF000000A7
S2140020B8DF000000FF000000DF000000FF00000057
S2140020C8DF000000FF000000DF000000FF00000047
S2140020D8DF000000FF000000DF000000FF00000037
S2140020E8DF000000FF000000DF000000FF00000027
S2140020F8DF000000FF000000DF000000FF00000017
S214002108DF000000FF000000DF000000FF00000006
S214002118DF000000FF000000DF000000FF000000F6
S214002128DF000000FF000000DF000000FF000000E6
S214002138DF000000FF000000DF000000FF000000D6
S214002148DF000000FF000000DF000000FF000000C6
S214002158DF000000FF000000DF000000FF000000B6
S214002168BF000000FF000000DF000000FF000000C6
S214002178FF000000FF0000005D000000EF00000008
S21400218896000000B5000000310000008C0000003A
S214002198D00000007B00000014000000A50000002E
S2140021A81C000000E7000000BF000000FF00000061
S2140021B8D30000009C000000C300000018000000C8
S2140021C8AB000000520000008E0000007300000004
S2140021D830000000840000001000000084000000AA
S2140021E8AE000000730000004D0000006B00000009
S2140021F82C000000630000000C00000063000000D4
S214002208CB0000005A0000004D0000006B000000E4
S2140022182C00000063000000E3000000200000001F
S214002228CB0000005A000000710000008C0000007F
S214002238310000008C000000CF0000007B0000008A
S2140022484D0000006B0000000000000000000000C9
S214002258490000004A000000AA00000052000000E2
S21400226835000000AD000000FF000000FF00000081
S214002278BF000000FF000000DF000000FF000000B5
S214002288DF000000FF000000DF000000FF00000085
S214002298DF000000FF000000DF000000FF00000075
S2140022A8DF000000FF000000DF000000FF00000065
S2140022B8DF000000FF000000DF000000FF00000055
S2140022C8DF000000FF000000DF000000FF00000045
S2140022D8BF000000FF000000BF000000FF00000075
S2140022E8DF000000FF000000FF000000FF00000005
S2140022F8FF000000FF0000003C000000E7000000B0
S214002308B7000000BD000000920000009400000026
S21400231855000000AD000000FC000000E6000000CC
S214002328FF000000FF000000FF000000FF000000A4
S214002338BF000000FF000000BF000000FF00000014
S214002348DF000000FF000000DF000000FF000000C4
S214002358DF000000FF000000DF000000FF000000B4
S214002368DF000000FF000000DF000000FF000000A4
S214002378DF000000FF000000DF000000FF00000094
S214002388DF000000FF000000DF000000FF00000084
S214002398DF000000FF000000DF000000FF00000074
S2140023A8DF000000FF000000DF000000FF00000064
S2140023B8DF000000FF000000DF000000FF00000054
S2140023C8DF000000FF000000DF000000FF00000044
S2140023D8DF000000FF000000BF000000FF00000054
S2140023E8FF000000FF000000DF000000FF00000004
S2140023F859000000CE000000930000009400000082
S214002408930000009C000000730000009400000089
S214002418D7000000BD000000DF000000FF0000003D
S214002428FF000000FF00000010000000840000000D
S2140024380000000000000000250000002900000041
S21400244828000000420000000C00000063000000A6
S2140024586D0000006B0000004D0000006B000000DF
S2140024680C00000063000000CB0000005A000000CB
S214002478AA00000052000000EB0000005A0000000E
S2140024888A00000052000000C70000003900000063
S214002498AB0000005A000000E70000004100000002
S2140024A800000000000000002D000000630000008F
S2140024B8F000000083000000AF0000007B00000072
S2140024C8CF0000007B000000AE0000007300000094
S2140024D8490000004A000000E7000000390000003C
S2140024E88E000000730000005D000000EF00000092
S2140024F8FF000000FF000000BF000000FF00000013
S214002508DF000000FF000000DF000000FF00000002
S214002518DF000000FF000000DF000000FF000000F2
S214002528DF000000FF000000DF000000FF000000E2
S214002538DF000000FF000000DF000000FF000000D2
S214002548DF000000FF000000DF000000FF000000C2
S214002558DF000000FF000000DF000000FF000000B2
S214002568BF000000FF000000BE000000F7000000EB
S214002578BF000000FF000000FF000000FF00000092
S214002588FF000000FF000000BE000000F70000008B
S21400259879000000CE000000D30000009C00000078
S2140025A814000000A50000001C000000E700000062
S2140025B8FF000000FF000000DF000000FF00000032
S2140025C8BF000000FF000000DF000000FF00000062
S2140025D8DF000000FF000000DF000000FF00000032
S2140025E8DF000000FF000000DF000000FF00000022
S2140025F8DF000000FF000000DF000000FF00000012
S214002608DF000000FF000000DF000000FF00000001
S214002618DF000000FF000000DF000000FF000000F1
S214002628DF000000FF000000DF000000FF000000E1
S214002638DF000000FF000000DF000000FF000000D1
S214002648DF000000FF000000BE000000F7000000EA
S214002658BF000000FF000000FF000000FF000000B1
S2140026685D000000EF00000055000000AD0000000F
S214002678920000009400000055000000AD00000025
S214002688F4000000A400000015000000A5000000EB
S214002698BF000000FF000000FF000000FF00000071
S2140026A814000000A5000000000000000000000064
S2140026B8CB0000005A0000000C0000006300000079
S2140026C82D0000006B000000CB0000005A00000040
S2140026D8080000004200000066000000310000000C
S2140026E84500000029000000C7000000390000006F
S2140026F8490000004A000000690000004A00000087
S2140027088A00000052000000A60000003900000001
S214002718E300000018000000C700000039000000B1
S2140027284500000029000000C30000001800000053
S2140027386D0000006B0000006D0000006B000000DC
S2140027480C00000063000000EB0000005A000000C8
S214002758AB0000005A000000AE0000007300000046
S2140027680C000000630000002C000000630000005E
S2140027787E000000F7000000DF000000FF000000F9
S214002788BF000000FF000000DF000000FF000000A0
S214002798DF000000FF000000DF000000FF00000070
S2140027A8DF000000FF000000DF000000FF00000060
S2140027B8DF000000FF000000DF000000FF00000050
S2140027C8DF000000FF000000DF000000FF00000040
S2140027D8DF000000FF000000DF000000FF00000030
S2140027E8DF000000FF000000DF000000FF00000020
S2140027F8DF000000FF000000BF000000FF00000030
S214002808BF000000FF000000DF000000FF0000001F
S214002818FF000000FF000000DF000000FF000000CF
S214002828BB000000DE00000035000000AD00000020
S214002838D7000000BD0000007E000000F700000082
S214002848FF000000FF000000BF000000FF000000BF
S214002858DF000000FF000000DF000000FF000000AF
S214002868DF000000FF000000DF000000FF0000009F
S214002878DF000000FF000000DF000000FF0000008F
S214002888DF000000FF000000DF000000FF0000007F
S214002898DF000000FF000000DF000000FF0000006F
S2140028A8DF000000FF000000DF000000FF0000005F
S2140028B8BF000000FF000000FF000000FF0000004F
S2140028C8BB000000DE0000001C000000E70000005F
S2140028D8FF000000FF0000001C000000E7000000EA
S2140028E8B30000009C000000F5000000A4000000F3
S2140028F876000000B500000014000000A5000000E7
S214002908F10000008300000039000000CE0000003F
S214002918FF000000FF00000079000000CE00000065
S2140029288600000031000000EF0000007B00000079
S214002938710000008C000000920000009400000067
S2140029489200000094000000710000008C00000057
S2140029588E00000073000000690000004A000000B6
S214002968C7000000390000006600000031000000C3
S214002978A600000031000000E70000003900000053
S214002988E700000039000000C7000000390000001A
S2140029980400000021000000000000000000000005
S2140029A8650000003100000021000000080000005B
S2140029B8E800000039000000CB0000005A000000C4
S2140029C8690000004A000000AB000000520000004A
S2140029D8490000004A000000040000002100000032
S2140029E8CB0000005A000000490000004A00000022
S2140029F8D30000009C000000FF000000FF0000005D
S214002A08BF000000FF000000DF000000FF0000001D
S214002A18DF000000FF000000DF000000FF000000ED
S214002A28DF000000FF000000DF000000FF000000DD
S214002A38DF000000FF000000DF000000FF000000CD
S214002A48DF000000FF000000DF000000FF000000BD
S214002A58DF000000FF000000DF000000FF000000AD
S214002A68DF000000FF000000DF000000FF0000009D
S214002A78DF000000FF000000DF000000FF0000008D
S214002A88DF000000FF000000BF000000FF0000009D
S214002A98BF000000FF000000DF000000FF0000008D
S214002AA8FF000000FF000000FF000000FF0000001D
S214002AB8DB000000DE000000B7000000BD000000DC
S214002AC8FB000000DE000000DF000000FF00000042
S214002AD8BF000000FF000000DF000000FF0000004D
S214002AE8DF000000FF000000DF000000FF0000001D
S214002AF8DF000000FF000000DF000000FF0000000D
S214002B08DF000000FF000000DF000000FF000000FC
S214002B18DF000000FF000000DF000000FF000000EC
S214002B28DF000000FF000000BF000000FF000000FC
S214002B38FF000000FF0000001C000000E700000087
S214002B48D7000000BD000000FF000000FF000000E6
S214002B58BE000000F7000000F4000000A40000001B
S214002B6836000000AD00000077000000B500000049
S214002B78930000009400000055000000AD0000001F
S214002B88BB000000DE000000FF000000FF000000A1
S214002B98BA000000D6000000CB0000005A00000073
S214002BA88E00000073000000300000008400000063
S214002BB8510000008C000000300000008400000077
S214002BC8F0000000830000008E0000007300000084
S214002BD88A000000520000002500000029000000BE
S214002BE80000000000000000E300000018000000DD
S214002BF8C700000039000000490000004A00000035
S214002C082800000042000000A60000003100000076
S214002C182400000021000000A200000010000000B0
S214002C286200000010000000040000002100000000
S214002C38C300000018000000E7000000390000008C
S214002C4845000000290000006A000000520000004D
S214002C5808000000420000002500000029000000CF
S214002C68A6000000390000006D0000006B000000A0
S214002C78E3000000200000001C000000E700000041
S214002C88FF000000FF000000BF000000FF0000007B
S214002C98DF000000FF000000DF000000FF0000006B
S214002CA8DF000000FF000000DF000000FF0000005B
S214002CB8DF000000FF000000DF000000FF0000004B
S214002CC8DF000000FF000000DF000000FF0000003B
S214002CD8DF000000FF000000DF000000FF0000002B
S214002CE8DF000000FF000000DF000000FF0000001B
S214002CF8DF000000FF000000DF000000FF0000000B
S214002D08DF000000FF000000DF000000FF000000FA
S214002D18DF000000FF000000DF000000FF000000EA
S214002D28BF000000FF000000BF000000FF0000001A
S214002D38FF000000FF000000DF000000FF000000AA
S214002D483D000000EF000000BF000000FF0000008C
S214002D58DF000000FF000000DF000000FF000000AA
S214002D68DF000000FF000000DF000000FF0000009A
S214002D78DF000000FF000000DF000000FF0000008A
S214002D88DF000000FF000000DF000000FF0000007A
S214002D98DF000000FF000000DF000000FF0000006A
S214002DA8BF000000FF000000DF000000FF0000007A
S214002DB8BF000000FF00000035000000AD00000066
S214002DC81C000000E7000000FF000000FF000000F5
S214002DD8D7000000BD00000015000000AD00000090
S214002DE856000000B5000000930000009C0000009C
S214002DF87A000000CE000000BE000000F7000000C9
S214002E08FF000000FF000000FB000000DE000000DE
S214002E18290000004A000000CB0000005A0000000D
S214002E286E00000073000000CF0000007B0000006A
S214002E38CF0000007B0000006D0000006B00000063
S214002E480C00000063000000AA0000005A00000002
S214002E5886000000310000000000000000000000AE
S214002E6808000000420000000400000021000000E6
S214002E780000000000000000000000000000000045
S214002E88450000002900000008000000420000007D
S214002E98E400000020000000C30000001800000046
S214002EA88200000010000000C300000018000000A8
S214002EB8C300000018000000210000000800000001
S214002EC8A3000000180000000800000042000000F0
S214002ED8A700000039000000000000000000000005
S214002EE80000000000000000650000002900000047
S214002EF8000000000000000018000000C6000000E7
S214002F08FF000000FF000000BE000000F700000001
S214002F18DF000000FF000000DF000000FF000000E8
S214002F28DF000000FF000000DF000000FF000000D8
S214002F38DF000000FF000000BF000000FF000000E8
S214002F48BF000000FF000000BF000000FF000000F8
S214002F58BF000000FF000000BF000000FF000000E8
S214002F68DF000000FF000000DF000000FF00000098
S214002F78DF000000FF000000DF000000FF00000088
S214002F88DF000000FF000000DF000000FF00000078
S214002F98DF000000FF000000DF000000FF00000068
S214002FA8DF000000FF000000DF000000FF00000058
S214002FB8BE000000F7000000DF000000FF00000071
S214002FC8FF000000FF000000DF000000FF00000018
S214002FD8DF000000FF000000DF000000FF00000028
S214002FE8DF000000FF000000DF000000FF00000018
S214002FF8DF000000FF000000DF000000FF00000008
S214003008DF000000FF000000DF000000FF000000F7
S214003018DF000000FF000000DF000000FF000000E7
S214003028BF000000FF000000FF000000FF000000D7
S21400303818000000C600000096000000B50000005A
S214003048FF000000FF000000FB000000DE0000009C
S21400305815000000A500000035000000AD000000C7
S21400306815000000AD0000003D000000EF00000065
S214003078FF000000FF000000FF000000FF00000047
S2140030885D000000EF000000AB0000005A000000E2
S2140030988600000031000000AB0000005A00000067
S2140030A82C0000006B000000CF0000007B00000032
S2140030B8F0000000830000008E000000730000008F
S2140030C80C00000063000000E7000000410000005C
S2140030D8A60000003100000079000000CE000000C5
S2140030E89E000000F70000003D000000EF00000012
S2140030F8FB000000DE00000059000000CE000000C3
S2140031086E00000073000000C300000018000000F6
S21400311886000000310000002100000000000000CA
S214003128C300000018000000A20000001000000005
S214003138820000001000000082000000100000005E
S2140031480000000000000000080000004200000028
S214003158EB000000620000004D0000006B0000005D
S2140031682D0000006B000000CB0000005A00000095
S2140031786100000010000000D30000009C00000062
S214003188BE000000F7000000BF000000FF000000BF
S214003198BF000000FF000000DF000000FF00000086
S2140031A8BF000000FF000000BF000000FF00000096
S2140031B8BF000000FF000000DF000000FF00000066
S2140031C8DF000000FF000000DF000000FF00000036
S2140031D8DF000000FF000000DF000000FF00000026
S2140031E8DF000000FF000000DF000000FF00000016
S2140031F8DF000000FF000000DF000000FF00000006
S214003208DF000000FF000000DF000000FF000000F5
S214003218DF000000FF000000DF000000FF000000E5
S214003228DF000000FF000000DF000000FF000000D5
S214003238DF000000FF000000BF000000FF000000E5
S214003248BF000000FF000000DF000000FF000000D5
S214003258DF000000FF000000DF000000FF000000A5
S214003268DF000000FF000000DF000000FF00000095
S214003278DF000000FF000000DF000000FF00000085
S214003288DF000000FF000000DF000000FF00000075
S214003298DF000000FF000000BF000000FF00000085
S2140032A8FF000000FF0000001C000000E700000010
S2140032B892000000940000001C000000E7000000D8
S2140032C8DF000000FF00000096000000B5000000C8
S2140032D8F4000000A400000097000000B5000000FD
S2140032E89E000000F7000000FF000000FF0000003E
S2140032F8BF000000FF000000DF000000FF00000025
S214003308310000008C0000000000000000000000F3
S214003318280000004A000000CB0000005A00000009
S2140033284D0000006B0000000C0000006300000069
S21400333808000000420000008200000010000000A4
S2140033480000000000000000000000000000000070
S2140033587A000000D6000000FF000000FF00000012
S214003368DF000000FF000000FF000000FF00000074
S214003378FF000000FF000000FF000000FF00000044
S214003388FC000000E6000000860000003100000097
S21400339825000000290000000400000021000000AD
S2140033A88200000010000000A300000018000000C3
S2140033B8A20000001000000000000000000000004E
S2140033C828000000420000006D0000006B000000AE
S2140033D88A00000052000000100000008400000070
S2140033E80C000000630000002C00000063000000D2
S2140033F86A000000520000000C0000006300000095
S21400340838000000C6000000DF000000FF000000D3
S214003418FF000000FF000000BE000000F7000000EC
S214003428BF000000FF000000FF000000FF000000D3
S214003438FF000000FF000000DF000000FF000000A3
S214003448DF000000FF0000009E000000F7000000FC
S2140034585D000000EF0000007E000000F70000009E
S214003468DF000000FF000000DF000000FF00000093
S214003478DF000000FF000000DF000000FF00000083
S214003488DF000000FF000000DF000000FF00000073
S214003498DF000000FF000000DF000000FF00000063
S2140034A8DF000000FF000000DF000000FF00000053
S2140034B8DF000000FF000000DF000000FF00000043
S2140034C8DF000000FF000000DF000000FF00000033
S2140034D8DF000000FF000000DF000000FF00000023
S2140034E8DF000000FF000000DF000000FF00000013
S2140034F8DF000000FF000000DF000000FF00000003
S214003508DF000000FF000000DF000000FF000000F2
S214003518BF000000FF000000DF000000FF00000002
S214003528BF000000FF00000097000000B500000084
S21400353835000000AD000000DF000000FF000000BE
S214003548DB000000DE0000007200000094000000AF
S214003558F8000000BD000000DF000000FF000000CB
S214003568FF000000FF000000BE000000F70000009B
S214003578FF000000FF00000038000000C600000042
S2140035882D0000006B000000A600000031000000BF
S214003598490000004A000000EB0000005A00000046
S2140035A8E8000000410000000000000000000000E5
S2140035B80000000000000000860000003100000047
S2140035C8000000000000000014000000A500000035
S2140035D8FF000000FF000000BF000000FF00000022
S2140035E8BF000000FF000000BF000000FF00000052
S2140035F8BF000000FF000000BF000000FF00000042
S214003608FF000000FF000000710000008C000000B2
S21400361800000000000000008600000031000000E6
S2140036288200000010000000820000001000000069
S2140036388200000010000000490000004A00000058
S2140036488E000000730000001000000084000000D8
S214003658AE0000007B0000000C00000063000000C5
S2140036683000000084000000EF0000007B0000002F
S214003678CB0000005A0000002800000042000000AE
S2140036880000000000000000D30000009C000000BE
S2140036987D000000EF000000FF000000FF000000B3
S2140036A8FF000000FF0000007E000000F70000009A
S2140036B8F8000000C500000035000000A500000066
S2140036C8B3000000A4000000D0000000C400000002
S2140036D8CC000000BC00000074000000BD00000024
S2140036E8FF000000FF000000BF000000FF00000011
S2140036F8DF000000FF000000DF000000FF00000001
S214003708DF000000FF000000DF000000FF000000F0
S214003718DF000000FF000000DF000000FF000000E0
S214003728DF000000FF000000DF000000FF000000D0
S214003738DF000000FF000000DF000000FF000000C0
S214003748DF000000FF000000DF000000FF000000B0
S214003758DF000000FF000000DF000000FF000000A0
S214003768DF000000FF000000DF000000FF00000090
S214003778DF000000FF000000DF000000FF00000080
S214003788DF000000FF000000DF000000FF00000070
S214003798BF000000FF000000FF000000FF00000060
S2140037A8BB000000DE000000D5000000A4000000FA
S2140037B85A000000CE000000FF000000FF000000D6
S2140037C876000000B500000096000000B500000076
S2140037D8DF000000FF000000DF000000FF00000020
S2140037E8BE000000F7000000FF000000FF00000019
S2140037F83C000000E7000000D7000000BD00000005
S214003808D30000009C00000000000000000000003C
S214003818EB00000062000000A60000003100000077
S21400382800000000000000008200000010000000F9
S214003838450000002900000000000000000000000D
S2140038482000000000000000FC000000E600000069
S214003858FF000000FF000000BE000000F7000000A8
S214003868BF000000FF000000DF000000FF000000AF
S214003878DF000000FF000000BF000000FF0000009F
S214003888FF000000FF00000059000000CE00000006
S214003898000000000000000065000000290000008D
S2140038A8C30000001800000021000000000000000F
S2140038B845000000290000002C0000006B000000F6
S2140038C83000000084000000D30000009C000000C8
S2140038D855000000AD00000014000000A500000020
S2140038E8B30000009C000000CF0000007B00000032
S2140038F82D0000006B0000000C00000063000000B4
S214003908C700000039000000A600000031000000D3
S21400391814000000A5000000B6000000B500000076
S214003928B2000000A4000000D000000083000000E1
S214003938540000008C000000130000009C000000EB
S21400394800000000A00000006A000000D50000008B
S214003958840000009C00000099000000D6000000CB
S214003968FF000000FF000000BF000000FF0000008E
S214003978DF000000FF000000DF000000FF0000007E
S214003988DF000000FF000000DF000000FF0000006E
S214003998DF000000FF000000DF000000FF0000005E
S2140039A8DF000000FF000000DF000000FF0000004E
S2140039B8DF000000FF000000DF000000FF0000003E
S2140039C8DF000000FF000000DF000000FF0000002E
S2140039D8DF000000FF000000DF000000FF0000001E
S2140039E8DF000000FF000000DF000000FF0000000E
S2140039F8DF000000FF000000DF000000FF000000FE
S214003A08DF000000FF000000BF000000FF0000000D
S214003A18DF000000FF0000009E000000F700000026
S214003A28B7000000BD00000056000000B50000000A
S214003A383D000000E70000005D000000EF00000009
S214003A4856000000AD000000BE000000F7000000B1
S214003A58DF000000FF000000BF000000FF000000BD
S214003A68DF000000FF000000DF000000FF0000008D
S214003A7859000000CE0000001C000000E70000000F
S214003A88690000004A000000280000004A00000004
S214003A9808000000420000000000000000000000CF
S214003AA8A200000010000000C3000000180000007C
S214003AB88200000010000000000000000000000067
S214003AC86E00000073000000BE000000F700000053
S214003AD8FF000000FF000000FF000000FF000000DD
S214003AE8FF000000FF000000FF000000FF000000CD
S214003AF8DF000000FF000000BE000000F700000026
S214003B08DF000000FF0000009E000000F700000035
S214003B18EC0000006200000000000000000000004A
S214003B28450000002900000000000000000000001A
S214003B38E300000020000000AE0000007300000054
S214003B48B20000009400000055000000AD00000020
S214003B5818000000C600000059000000CE00000053
S214003B6835000000AD000000AE0000007300000045
S214003B788A000000520000004900000042000000D1
S214003B88E700000039000000E700000039000000E8
S214003B98A0000000100000006C00000052000000AA
S214003BA8950000009C000000D6000000A40000005D
S214003BB8B9000000BD00000057000000BD0000006E
S214003BC80B000000B3000000F2000000AC0000008C
S214003BD8BA000000D6000000DF000000FF0000006A
S214003BE8DF000000FF000000DF000000FF0000000C
S214003BF8DF000000FF000000DF000000FF000000FC
S214003C08DF000000FF000000DF000000FF000000EB
S214003C18DF000000FF000000DF000000FF000000DB
S214003C28DF000000FF000000DF000000FF000000CB
S214003C38DF000000FF000000DF000000FF000000BB
S214003C48DF000000FF000000DF000000FF000000AB
S214003C58DF000000FF000000DF000000FF0000009B
S214003C68DF000000FF000000DF000000FF0000008B
S214003C78DF000000FF000000DF000000FF0000007B
S214003C88DF000000FF000000BF000000FF0000008B
S214003C98FF000000FF000000FB000000DE00000040
S214003CA897000000BD000000D7000000BD0000001F
S214003CB89E000000F7000000DB000000DE000000A9
S214003CC81C000000E7000000FF000000FF000000E6
S214003CD8BF000000FF000000BF000000FF0000005B
S214003CE8FF000000FF0000003C000000E7000000A6
S214003CF83C000000E70000007A000000D600000044
S214003D080000000000000000AA00000052000000AA
S214003D180000000000000000620000001000000024
S214003D280400000021000000000000000000000061
S214003D386E000000730000003000000084000000E1
S214003D481000000084000000FF000000FF000000D4
S214003D585D000000EF0000009A000000D60000009A
S214003D68F8000000C5000000F8000000C5000000CC
S214003D7859000000CE0000003D000000EF000000E3
S214003D88FF000000FF000000FF000000FF0000002A
S214003D987A000000CE0000000000000000000000CE
S214003DA84500000029000000A700000039000000B8
S214003DB8EB00000062000000AF0000007B0000007F
S214003DC8710000008C00000055000000AD000000E7
S214003DD8D30000009C00000035000000AD00000085
S214003DE855000000A5000000710000008C000000CF
S214003DF86D0000007B000000A900000062000000C3
S214003E08C7000000390000008600000031000000EE
S214003E18A000000018000000AC00000062000000CF
S214003E28940000009C00000076000000AD00000032
S214003E387A000000D60000001D000000E700000021
S214003E489E000000EF000000FF000000FF000000DA
S214003E58FF000000FF000000DF000000FF00000079
S214003E68DF000000FF000000DF000000FF00000089
S214003E78DF000000FF000000DF000000FF00000079
S214003E88DF000000FF000000DF000000FF00000069
S214003E98DF000000FF000000DF000000FF00000059
S214003EA8DF000000FF000000DF000000FF00000049
S214003EB8DF000000FF000000DF000000FF00000039
S214003EC8DF000000FF000000DF000000FF00000029
S214003ED8DF000000FF000000DF000000FF00000019
S214003EE8DF000000FF000000DF000000FF00000009
S214003EF8DF000000FF000000DF000000FF000000F9
S214003F08DF000000FF000000BF000000FF00000008
S214003F18DF000000FF00000039000000CE000000AF
S214003F28D8000000C500000018000000C600000009
S214003F38BE000000F7000000BF000000FF00000001
S214003F48DF000000FF000000BF000000FF000000C8
S214003F58DF000000FF000000BF000000FF000000B8
S214003F68FF000000FF000000DB000000DE0000008D
S214003F78BE000000F700000035000000AD0000009D
S214003F88E300000018000000E70000003900000009
S214003F9800000000000000004100000008000000CB
S214003FA86500000029000000000000000000000076
S214003FB814000000A500000076000000B500000010
S214003FC80800000042000000D3000000A400000023
S214003FD8500000009400000075000000B5000000C6
S214003FE89A000000D60000003D000000EF00000028
S214003FF87D000000EF0000003D000000EF0000001C
S214004008DB000000DE00000059000000CE000000C3
S214004018B6000000BD000000EB00000062000000D3
S214004028AB0000005A0000004D0000006B000000C6
S2140040386D0000006B000000080000004200000051
S214004048CF0000007B000000D30000009C000000AA
S21400405871000000940000008F000000AC00000013
S2140040686D000000730000004D00000063000000B3
S2140040786C0000007300000031000000BD00000066
S214004088AD0000008B000000A7000000290000001B
S214004098480000005A000000C00000003800000079
S2140040A8B6000000B5000000FF000000FF0000009A
S2140040B8FF000000FF000000DF000000FF00000017
S2140040C8DF000000FF000000BF000000FF00000047
S2140040D8BF000000FF000000DF000000FF00000037
S2140040E8DF000000FF000000DF000000FF00000007
S2140040F8DF000000FF000000DF000000FF000000F7
S214004108DF000000FF000000DF000000FF000000E6
S214004118DF000000FF000000DF000000FF000000D6
S214004128DF000000FF000000DF000000FF000000C6
S214004138DF000000FF000000DF000000FF000000B6
S214004148DF000000FF000000DF000000FF000000A6
S214004158DF000000FF000000DF000000FF00000096
S214004168DF000000FF000000DF000000FF00000086
S214004178DF000000FF000000DF000000FF00000076
S214004188BF000000FF000000DF000000FF00000086
S2140041989E000000F7000000D8000000C5000000E0
S2140041A81A000000CE00000039000000CE00000013
S2140041B8BF000000FF000000DF000000FF00000056
S2140041C8BF000000FF000000DF000000FF00000046
S2140041D8DF000000FF000000DF000000FF00000016
S2140041E8DF000000FF0000001C000000E7000000E1
S2140041F8BE000000F7000000310000008C00000040
S214004208860000003100000045000000290000007C
S21400421820000000000000008200000010000000DF
S214004228C3000000180000000000000000000000A6
S2140042384C000000730000004C00000073000000F3
S214004248490000004A0000007A000000D60000007E
S2140042589E000000F70000009E000000F700000027
S214004268FB000000DE000000D7000000BD000000D4
S214004278F3000000AC0000005000000094000000AE
S214004288AD00000083000000EA0000006A0000009D
S214004298C50000004900000045000000310000008D
S2140042A88A000000520000004D0000006B0000006D
S2140042B80800000042000000650000002900000019
S2140042C86E000000730000007200000094000000FA
S2140042D88E0000007B00000012000000B500000001
S2140042E86F000000A4000000070000005A0000004D
S2140042F8690000004A0000004F0000009C00000013
S21400430830000000A4000000690000005A00000009
S214004318CB0000005A00000014000000A5000000B2
S2140043289A000000D6000000FF000000FF00000012
S214004338FF000000FF000000FF000000FF00000074
S2140043487D000000EF000000FF000000FF000000F6
S214004358DF000000FF000000DF000000FF00000094
S214004368DF000000FF000000DF000000FF00000084
S214004378DF000000FF000000DF000000FF00000074
S214004388DF000000FF000000DF000000FF00000064
S214004398DF000000FF000000DF000000FF00000054
S2140043A8DF000000FF000000DF000000FF00000044
S2140043B8DF000000FF000000DF000000FF00000034
S2140043C8DF000000FF000000DF000000FF00000024
S2140043D8DF000000FF000000DF000000FF00000014
S2140043E8DF000000FF000000DF000000FF00000004
S2140043F8DF000000FF000000DF000000FF000000F4
S214004408BF000000FF000000FF000000FF000000E3
S2140044183C000000E7000000F9000000C5000000AE
S2140044285A000000D600000019000000CE00000068
S214004438BF000000FF000000DF000000FF000000D3
S214004448DF000000FF000000DF000000FF000000A3
S214004458BF000000FF000000DF000000FF000000B3
S214004468BF000000FF0000005D000000EF00000035
S2140044787E000000F70000006E00000073000000D9
S214004488C700000039000000E30000001800000024
S2140044984100000008000000820000001000000034
S2140044A8E300000018000000000000000000000004
S2140044B871000000940000001C000000E7000000E7
S2140044C8F8000000C5000000F7000000BD0000006E
S2140044D896000000B5000000CE0000008300000033
S2140044E88900000062000000CE0000008B0000007B
S2140044F8CE00000083000000EB0000006200000011
S214004508A7000000390000000200000000000000BC
S2140045184200000000000000280000004A000000DA
S214004528480000004A000000E400000018000000F0
S214004538860000003100000028000000420000004D
S2140045488A00000052000000AF0000007300000060
S21400455870000000A4000000D4000000C5000000A1
S214004568AD000000830000000E0000009C00000064
S2140045788C000000830000000800000062000000B5
S21400458812000000CD0000002C00000073000000A0
S2140045984600000021000000CA000000620000007B
S2140045A80C0000006B000000D3000000A400000010
S2140045B854000000AD000000D7000000BD00000059
S2140045C855000000AD000000BA000000D60000004C
S2140045D87E000000F7000000BE000000F7000000A4
S2140045E8DF000000FF000000DF000000FF00000002
S2140045F8DF000000FF000000DF000000FF000000F2
S214004608DF000000FF000000DF000000FF000000E1
S214004618DF000000FF000000DF000000FF000000D1
S214004628DF000000FF000000DF000000FF000000C1
S214004638DF000000FF000000DF000000FF000000B1
S214004648DF000000FF000000DF000000FF000000A1
S214004658DF000000FF000000DF000000FF00000091
S214004668DF000000FF000000DF000000FF00000081
S214004678DF000000FF000000DF000000FF00000071
S214004688BF000000FF000000FF000000FF00000061
S214004698DB000000DE00000039000000CE0000004D
S2140046A89B000000DE00000019000000CE0000009D
S2140046B89E000000F7000000FF000000FF0000005A
S2140046C85D000000EF0000003C000000E70000006E
S2140046D8DF000000FF000000DF000000FF00000011
S2140046E8BE000000F70000007D000000EF0000009C
S2140046F85D000000EF000000EC0000006200000013
S21400470808000000420000008200000010000000C0
S2140047186200000010000000A20000001000000068
S214004728E400000020000000000000000000000078
S214004738D7000000BD00000038000000CE000000D2
S214004748B2000000A4000000EA0000006A000000B2
S2140047588500000039000000E70000004100000066
S214004768EB00000062000000890000005A0000000C
S2140047780000000000000000A1000000200000006B
S214004788690000005A0000008D0000007B00000051
S2140047984F00000094000000B1000000A4000000D4
S2140047A8B10000009C0000004C00000073000000F0
S2140047B8E80000004100000004000000210000009E
S2140047C8A500000039000000C800000039000000FD
S2140047D8F2000000A400000053000000B50000002E
S2140047E80B000000A3000000B8000000E600000070
S2140047F839000000F7000000D4000000CD000000DB
S214004808D1000000B4000000A50000004100000030
S2140048188A0000005200000096000000B500000064
S214004828B6000000BD00000055000000B5000000FE
S214004838B6000000BD00000096000000BD000000A5
S214004848AE0000007B000000D30000009C000000C3
S21400485896000000B500000018000000C600000022
S214004868DB000000DE000000BF000000FF000000C4
S214004878DF000000FF000000BF000000FF0000008F
S214004888DF000000FF000000DF000000FF0000005F
S214004898DF000000FF000000DF000000FF0000004F
S2140048A8DF000000FF000000DF000000FF0000003F
S2140048B8DF000000FF000000DF000000FF0000002F
S2140048C8DF000000FF000000DF000000FF0000001F
S2140048D8DF000000FF000000DF000000FF0000000F
S2140048E8DF000000FF000000DF000000FF000000FF
S2140048F8DF000000FF000000DF000000FF000000EF
S214004908BF000000FF000000FF000000FF000000DE
S2140049189A000000D60000007A000000D6000000CA
S214004928BB000000DE0000005A000000CE000000B9
S2140049389E000000F7000000FF000000FF000000D7
S2140049481C000000E700000059000000CE00000030
S214004958DF000000FF000000DF000000FF0000008E
S214004968BE000000F70000007D000000EF00000019
S2140049781C000000E7000000AB0000005A00000022
S214004988490000004A0000008200000010000000F5
S214004998610000000800000082000000100000000F
S2140049A8450000002900000000000000000000008C
S2140049B82C0000007300000090000000A400000017
S2140049C8F2000000AC00000074000000BD0000000B
S2140049D88D0000007B0000000000000018000000AA
S2140049E84300000049000000690000006200000063
S2140049F8AE0000008B000000710000009C00000064
S214004A08D2000000A4000000F2000000AC00000085
S214004A1812000000AD000000D2000000A400000054
S214004A28B1000000A40000006F0000009C00000019
S214004A38CD000000830000004C000000730000005A
S214004A48EE00000083000000CA00000062000000BC
S214004A58290000004200000033000000B5000000F6
S214004A6815000000DE000000D7000000EE00000081
S214004A7839000000F700000059000000FF000000A1
S214004A88D4000000D5000000C300000008000000A5
S214004A98000000000000000076000000B5000000DE
S214004AA8FF000000FF000000FF000000FF000000FD
S214004AB8FF000000FF0000003D000000EF000000BF
S214004AC8DB000000DE000000DF000000FF00000042
S214004AD8DF000000FF0000009E000000F700000056
S214004AE89E000000F7000000BE000000F70000006F
S214004AF8BF000000FF000000BF000000FF0000002D
S214004B08DF000000FF000000DF000000FF000000DC
S214004B18DF000000FF000000DF000000FF000000CC
S214004B28DF000000FF000000DF000000FF000000BC
S214004B38DF000000FF000000DF000000FF000000AC
S214004B48DF000000FF000000BF000000FF000000BC
S214004B58DF000000FF000000DF000000FF0000008C
S214004B68DF000000FF000000DF000000FF0000007C
S214004B78DF000000FF000000DF000000FF0000006C
S214004B88DF000000FF000000DF000000FF0000005C
S214004B987A000000D60000009B000000DE0000003F
S214004BA8BC000000DE0000005A000000CE00000036
S214004BB89E000000F7000000FF000000FF00000055
S214004BC85D000000EF000000D8000000BD000000F7
S214004BD8BE000000F7000000DF000000FF00000035
S214004BE8BF000000FF0000003C000000E7000000D7
S214004BF81C000000E7000000AA00000052000000A9
S214004C08690000004A000000E400000020000000E0
S214004C184100000008000000210000000800000015
S214004C2845000000290000004100000000000000C8
S214004C38280000004A00000054000000BD000000E4
S214004C4854000000BD0000006C0000007B0000005F
S214004C58E700000051000000EE0000008B00000096
S214004C6891000000A4000000F3000000AC00000063
S214004C78F3000000AC000000F3000000AC000000E9
S214004C88D2000000A4000000910000009C00000074
S214004C980F00000094000000EE0000008B000000EB
S214004CA8710000009C00000055000000B5000000E0
S214004CB859000000CE000000FB000000E6000000DF
S214004CC8DF000000FF000000DB000000DE00000040
S214004CD800000000000000006C00000083000000D8
S214004CE814000000D6000000F8000000F6000000DF
S214004CF839000000F7000000D8000000F6000000A9
S214004D088B0000008B000000D2000000AC00000002
S214004D1838000000CE0000000C0000006300000011
S214004D28510000008C00000096000000B50000004E
S214004D38D7000000BD0000005D000000EF00000086
S214004D48FF000000FF000000FF000000FF0000005A
S214004D58FF000000FF000000FF000000FF0000004A
S214004D68FF000000FF000000FF000000FF0000003A
S214004D78FF000000FF000000DF000000FF0000004A
S214004D88DF000000FF000000DF000000FF0000005A
S214004D98DF000000FF000000DF000000FF0000004A
S214004DA8DF000000FF000000DF000000FF0000003A
S214004DB8DF000000FF000000DF000000FF0000002A
S214004DC8BF000000FF000000DF000000FF0000003A
S214004DD8DF000000FF000000BF000000FF0000002A
S214004DE8DF000000FF000000DF000000FF000000FA
S214004DF8DF000000FF000000BF000000FF0000000A
S214004E08DF000000FF000000BE000000F700000002
S214004E185A000000D6000000BC000000E6000000B3
S214004E28DC000000E60000005A000000D600000083
S214004E387E000000F7000000FF000000FF000000F2
S214004E489E000000F700000077000000B500000094
S214004E583D000000EF000000DF000000FF0000003B
S214004E68FF000000FF000000DB000000DE0000007E
S214004E78BA000000D60000002D0000006300000005
S214004E88690000004A000000250000002900000014
S214004E984100000008000000A30000001800000001
S214004EA88200000010000000C70000003900000063
S214004EB80000000000000000CE0000008300000094
S214004EC8F3000000AC0000006D0000007B0000004E
S214004ED812000000AD00000054000000B5000000FD
S214004EE833000000AD000000910000009C000000A8
S214004EF8710000009C0000003000000094000000D4
S214004F080F00000094000000D2000000A40000007B
S214004F18D7000000BD000000DB000000DE00000037
S214004F287E000000F7000000DF000000FF00000021
S214004F38FF000000FF000000FF000000FF00000068
S214004F481C000000E70000007B000000D600000000
S214004F58F50000009C00000063000000410000000F
S214004F68CD000000AB00000053000000CD0000009C
S214004F7835000000E600000052000000C5000000F2
S214004F880000000050000000F6000000D5000000F9
S214004F98FF000000FF000000BE000000F700000051
S214004FA8DB000000DE0000007A000000D6000000EB
S214004FB8DB000000DE000000DB000000DE00000072
S214004FC859000000CE00000038000000CE000000A7
S214004FD838000000C600000038000000C6000000C8
S214004FE859000000CE000000BA000000DE000000F5
S214004FF81C000000E70000005D000000EF00000055
S214005008BE000000F7000000BF000000FF00000020
S214005018DF000000FF000000DF000000FF000000C7
S214005028DF000000FF000000DF000000FF000000B7
S214005038BF000000FF000000DF000000FF000000C7
S214005048BE000000F7000000BA000000D60000000E
S214005058DF000000FF000000DF000000FF00000087
S214005068BF000000FF000000DF000000FF00000097
S214005078DF000000FF000000DF000000FF00000067
S214005088DF000000FF0000009E000000F7000000A0
S2140050987A000000D6000000DC000000E6000000F1
S2140050A8FD000000EE0000005A000000D6000000D8
S2140050B85D000000EF000000FF000000FF00000099
S2140050C8BE000000F7000000B7000000BD000000AA
S2140050D89A000000D6000000DF000000FF00000075
S2140050E8DF000000FF0000009E000000F700000040
S2140050F814000000A500000069000000520000002F
S214005108AA00000052000000240000002100000051
S2140051182000000000000000C30000001800000087
S2140051288600000031000000A30000001800000000
S214005138C700000039000000620000000000000000
S214005148EF0000008B00000095000000C50000007E
S21400515834000000B500000033000000B500000071
S214005168910000009C0000008E0000007B000000FC
S214005178F3000000AC000000F8000000C5000000C6
S2140051881C000000E7000000BE000000F70000005A
S214005198FF000000FF000000FF000000FF00000006
S2140051A8DF000000FF000000BF000000FF00000056
S2140051B8DF000000FF0000005D000000EF000000B8
S2140051C82F000000CC00000071000000E400000082
S2140051D852000000CC000000CF0000007300000062
S2140051E8110000008C0000004C0000006200000067
S2140051F8E900000079000000530000009400000059
S214005208330000009C000000300000009C000000F6
S21400521895000000B5000000B20000009C000000E9
S214005228710000009C0000000F0000008C000000C9
S2140052386C0000007B00000089000000620000008F
S214005248270000005A000000CA00000062000000A4
S214005258EF00000083000000D30000009C00000060
S21400526876000000B5000000D7000000BD00000072
S214005278F7000000C500000018000000C600000087
S214005288BB000000DE000000BF000000FF000000BA
S214005298BF000000FF000000BF000000FF00000085
S2140052A8BF000000FF000000BF000000FF00000075
S2140052B8DF000000FF000000BF000000FF00000045
S2140052C8FF000000FF000000BA000000DE0000003B
S2140052D8F7000000C5000000FF000000FF00000007
S2140052E8BF000000FF000000DF000000FF00000015
S2140052F8DF000000FF0000009E000000F70000002E
S214005308FF000000FF0000007E000000F70000001D
S2140053189B000000D6000000FD000000E60000002C
S2140053283D000000EF0000007B000000D6000000F3
S2140053383C000000E7000000FF000000FF0000003F
S214005348BE000000F700000039000000CE00000094
S214005358F8000000C5000000BE000000F7000000CE
S214005368FF000000FF0000003C000000EF00000007
S214005378100000008C000000E40000002000000080
S214005388490000004A000000E80000004100000054
S21400539800000000000000002100000008000000D7
S2140053A8E700000039000000080000004200000086
S2140053B8E300000020000000A60000003100000006
S2140053C84100000000000000EF0000008B00000015
S2140053D813000000AD0000000F0000008C00000065
S2140053E8890000005200000039000000CE000000CE
S2140053F8DF000000FF000000FF000000FF000000C4
S214005408FF000000FF000000DF000000FF000000B3
S214005418BF000000FF000000BF000000FF00000003
S214005428BF000000FF000000BE000000FF000000F4
S214005438DF000000FF00000078000000E600000023
S214005448D7000000F6000000F8000000F600000094
S214005458F0000000DC000000EB0000007200000016
S214005468140000009D00000055000000AD0000007C
S214005478B3000000AC000000F9000000C500000002
S21400548837000000AD0000008E000000830000001A
S214005498900000009C000000700000009C000000C7
S2140054A8500000009C00000030000000940000003F
S2140054B80F00000094000000EE0000008B000000C3
S2140054C8AE00000083000000CE000000830000004D
S2140054D8300000008C0000009100000094000000DE
S2140054E8F3000000A400000096000000B5000000CD
S2140054F838000000C6000000BB000000DE00000008
S2140055085D000000EF000000DF000000FF00000064
S214005518FF000000FF000000DF000000FF000000A2
S214005528DF000000FF000000FF000000FF00000092
S214005538BF000000FF000000DF000000FF000000C2
S214005548BF000000FF000000FF000000FF00000092
S21400555876000000B50000009A000000D6000000A3
S214005568FF000000FF000000BE000000F70000007B
S214005578DF000000FF000000BB000000DE000000A7
S214005588FF000000FF0000007E000000F70000009B
S2140055989B000000DE0000001D000000EF00000079
S2140055A83E000000EF000000BC000000DE00000027
S2140055B81C000000E7000000FF000000FF000000DD
S2140055C8BE000000FF0000009A000000D6000000A1
S2140055D8D8000000C50000003D000000EF000000F5
S2140055E89E000000F700000034000000B500000030
S2140055F895000000BD000000AE000000730000002B
S2140056080000000000000000080000004200000043
S214005618450000002900000000000000000000000F
S2140056282400000021000000CB0000005A00000003
S2140056386900000052000000080000004200000058
S214005648C70000003900000041000000000000000C
S2140056588A0000005200000075000000AD0000003F
S2140056685D000000EF000000FF000000FF000000E3
S214005678DF000000FF000000BE000000F70000008A
S214005688BF000000FF000000BF000000FF00000091
S214005698DF000000FF000000BF000000FF00000061
S2140056A8DF000000FF000000FF000000FF00000011
S2140056B85D000000EF00000076000000E600000035
S2140056C859000000FF00000059000000F700000025
S2140056D87A000000FF000000ED000000A3000000B4
S2140056E8B30000009400000096000000B50000001B
S2140056F8CF0000007B000000EB0000006200000006
S2140057082900000042000000E700000041000000F9
S214005718AE0000007B000000B1000000A4000000FE
S214005728B10000009C000000510000009C00000032
S214005738500000009C0000002F00000094000000AD
S214005748EF0000008B000000AE0000008B00000099
S2140057586C000000830000002A00000073000000B0
S214005768A900000062000000270000005A000000A0
S214005778E600000051000000680000005A00000023
S2140057886C00000073000000920000009400000007
S21400579818000000C60000007E000000F7000000A9
S2140057A87E000000F70000003D000000EF0000004B
S2140057B8FF000000FF000000BF000000FF00000020
S2140057C8BF000000FF000000DF000000FF00000030
S2140057D89E000000F7000000B20000009C000000D9
S2140057E89E000000F7000000DF000000FF00000039
S2140057F8BF000000FF0000009A000000D60000006E
S2140058089E000000F70000009E000000F700000061
S2140058189B000000DE0000003E000000EF000000D5
S2140058283E000000F7000000FD000000E600000053
S214005838DB000000DE000000DF000000FF000000C4
S214005848DF000000FF000000BB000000DE000000D4
S2140058585A000000D600000059000000CE000000E4
S214005868D6000000BD00000095000000C50000003E
S21400587858000000DE00000095000000BD00000093
S2140058882D000000630000006600000029000000EC
S21400589886000000310000004500000029000000D6
S2140058A8C300000018000000690000004A0000005D
S2140058B82C00000063000000AB000000520000004F
