S018000070726F6A6563745F6370756C61746F722E737265634C
S21400000018F09FE518F09FE518F09FE518F09FE5BB
S21400001018F09FE518F09FE518F09FE518F09FE5AB
S21400002040000000ACA20000B0A20000B4A2000095
S214000030B8A20000A8A20000BCA20000C0A2000057
S214000040260000EA8C609FE5000056E380402DE91C
S214000050016046E21E00000A7C509FE50000A0E317
S2140000600010A0E30C2015E510E015E5084015E5A6
S21400007002005EE1042082000900000A000054E34A
S2140000800700000A0270A0E102C0A0E10C00BEE872
S2140000900C00ACE80C3067E0030054E10C20A0E153
S2140000A0F9FFFF1A04E015E500005EE30230A01138
S2140000B00300000A0300A3E803C062E00C005EE150
S2140000C0FBFFFF1A016046E2010076E3145085E26A
S2140000D0E3FFFF1A3E2800EB0100000090A5000099
S2140000E03C108FE21600A0E3563412EF000050E3F7
S2140000F0080000BA28209FE51CD09FE5080092E57E
S214000100000050E300D0A01110109FE5040092E517
S214000110000050E300008115C9FFFFEAF8FFFF3F2B
S2140001203CAC0B00B8AC0B0000D01FE5C4FFFFEAE8
S214000130F8FFFF3F08402DE92C009FE52C309FE597
S214000140033060E0060053E30100008A0840BDE883
S2140001501EFF2FE118309FE5000053E3FAFFFF0A69
S2140001600FE0A0E113FF2FE1F7FFFFEA48AC0B001A
S2140001704BAC0B000000000008402DE934009FE562
S21400018034309FE5033060E04331A0E1A33F83E0D5
S214000190C310B0E10100001A0840BDE81EFF2FE1C1
S2140001A018209FE5000052E3FAFFFF0A0FE0A0E1E7
S2140001B012FF2FE1F7FFFFEA48AC0B0048AC0B003C
S2140001C00000000010402DE92C409FE50030D4E5EB
S2140001D0000053E30600001AD5FFFFEB1C309FE536
S2140001E0000053E318009F1500F020130130A0E331
S2140001F00030C4E51040BDE81EFF2FE148AC0B0000
S214000200000000005CA3000008402DE934309FE5A4
S214000210000053E330009F1530109F1500F02013A8
S2140002202C009FE5003090E5000053E30300000A31
S21400023020309FE5000053E30FE0A01113FF2F11BD
S2140002400840BDE8CBFFFFEA000000005CA300000A
S2140002504CAC0B0090A5000000000000003090E5BC
S214000260002091E5002080E5003081E51EFF2FE1AB
S214000270643C0AE30B3040E3003093E58000A0E1E5
S214000280011583E0B02081E11EFF2FE108402DE933
S214000290643C0AE30B3040E3000093E5FF1F0FE3E6
S2140002A00F29A0E3F40600EB0880BDE8F04F2DE927
S2140002B014D04DE20C008DE508108DE504208DE588
S2140002C000308DE5F8A3DDE1033061E0000053E384
S2140002D0003063B2022060E0C27F22E0C27F47E0C7
S2140002E0070053E10070A0D30170A0C3000057E3DD
S2140002F00500000A0C008DE208108DE2D6FFFFEB29
S21400030004008DE20D10A0E1D3FFFFEB04309DE565
S2140003100C209DE5030052E1050000DA0C008DE29A
S21400032004108DE2CCFFFFEB08008DE20D10A0E17B
S214000330C9FFFFEB04209DE50C509DE5029065E0AB
S2140003407990FFE600109DE508309DE5018063E0AA
S214000350000058E3008068B27940BFE6004064E2DF
S214000360A44F84E0D440EFE77360FFE6FFBF0FE3DF
S214000370030051E101B0A0C37550FFE67510BFE65B
S214000380010052E1130000BA000057E37600BF16E2
S2140003900100A0017610BF060A20A0E1B3FFFFEB24
S2140003A0044088E07430FFE67340FFE6020914E379
S2140003B00B6086007660FF06034069007440FF0607
S2140003C0015085E27550FFE67510BFE604309DE5E6
S2140003D0030051E1EBFFFFDA14D08DE2F08FBDE8A9
S2140003E0F0472DE90090A0E10180A0E10270A0E1B5
S2140003F00060A0E306A0A0E1090000EA0500A0E175
S214000400081084E00720A0E198FFFFEB014084E29B
S214000410040054E3F8FFFF1A016086E2040056E386
S214000420F087BD080A40A0E1095086E0F2FFFFEA27
S214000430F8452DE90170A0E10260A0E10050A0E1BE
S2140004400A80A0E300A0A0E30B0000EA0500A0E1FC
S214000450071084E00620A0E184FFFFEB014084E261
S2140004600A0054E3F8FFFF1A018048E27880FFE6AE
S214000470015085E2000058E3F885BD080A40A0E177
S214000480F1FFFFEAFF3F03E3203F4FE30120A0E335
S214000490DF2F03E5D33F13E5010013E31EFF2F0113
S2140004A0FF2F03E3202F4FE3D33F12E5010013E3B2
S2140004B0FCFFFF1A1EFF2FE1F8452DE90070A0E1B2
S2140004C00150A0E14480A0E300A0A0E30060E0E3C8
S2140004D00B0000EA070084E00510A0E10620A0E17A
S2140004E062FFFFEB014084E2500054E3F8FFFF1A7E
S2140004F0018048E27880FFE6015085E2000058E37C
S214000500F885BD080A40A0E1F1FFFFEAF84F2DE9A3
S21400051000B0A0E10190A0E198709FE500A0A0E3E4
S21400052098550AE3005040E31C0000EA000094E5FA
S214000530041014E5003481E0042095E500C095E53C
S21400054002C48CE00C0053E10C00000A08C095E5DC
S2140005500C2482E0020053E10800000AA8C795E5D3
S214000560A42795E50C2482E0020053E10300000A6C
S2140005700600A0E10810A0E17320BFE63BFFFFEBFA
S214000580084084E2016086E2070054E1E6FFFF1AB5
S21400059001A08AE20A7D87E244005AE3F88FBD088C
S2140005A00A418AE0844385E0044084E20B60A0E1CF
S2140005B009808AE0DCFFFFEA1CA80000F04F2DE966
S2140005C00CD04DE200B0A0E104108DE58C709FE5E4
S2140005D000A0A0E3706504E3016040E3A29E86E20B
S2140005E0089089E2140000EA002094E5043014E53F
S2140005F0020483E02CCA96E5281A96E50C1481E0DE
S214000600010050E10400000A0020A0E10500A0E17E
S2140006100810A0E17220BFE614FFFFEB084084E25A
S214000620015085E2070054E1EEFFFF1A01A08AE2BE
S214000630057D87E225005AE30600000A0A418AE0A3
S214000640044389E0044084E20B50A0E104309DE5B9
S21400065003808AE0E3FFFFEA0CD08DE2F08FBDE86E
S214000660DC500100F84F2DE900B0A0E10190A0E1B8
S21400067068609FE50080A0E379AF46E2110000EADB
S214000680002094E5043014E5021483E0000051E3F2
S2140006900400000A0120A0E10500A0E10710A0E187
S2140006A07220BFE6F1FEFFEB084084E2015085E2CF
S2140006B0060054E1F1FFFF1A018088E21E6E86E212
S2140006C02E0058E3F88FBD08084268E084428AE0AE
S2140006D0044084E20B50A0E1097088E0E7FFFFEADF
S2140006E0BC7F0100F84F2DE900B0A0E10190A0E129
S2140006F06C609FE500A0A0E3FF7F0FE3110000EA17
S214000700002094E5043014E5021483E0070051E16C
S2140007100400000A0120A0E10500A0E10810A0E105
S2140007207220BFE6D1FEFFEB084084E2015085E26E
S214000730060054E1F1FFFF1A01A08AE21E6E86E26F
S2140007403A005AE3F88FBD080A426AE014309FE583
S214000750844283E0044084E20B50A0E109808AE0F2
S214000760E6FFFFEAFCD5010018D40100F84F2DE99A
S21400077000B0A0E10190A0E150609FE50080A0E3FA
S21400078030A046E20B0000EA0420B5E50400A0E134
S2140007900710A0E17220BFE6B4FEFFEB014084E242
S2140007A0050056E1F7FFFF1A018088E2346086E212
S2140007B00D0058E3F88FBD083430A0E393A825E079
S2140007C0045045E20B40A0E1097088E0EDFFFFEA27
S2140007D00841020070402DE90060A0E10140A0E160
S2140007E0DF2400E311FFFFEB0A5086E20500A0E1DC
S2140007F00410A0E10020E0E30CFFFFEB0A4084E2D7
S2140008000600A0E10410A0E10020E0E307FFFFEBF4
S2140008100500A0E10410A0E1DF2400E303FFFFEBE6
S2140008207080BDE870402DE90050A0E30560A0E1AF
S214000830080000EA0500A0E10410A0E1E4FFFFEBD9
S214000840144084E2F00054E3F9FFFF1A145085E2E6
S214000850050D55E37080BD080640A0E1F4FFFFEAF1
S214000860F84F2DE90170A0E350B09FE50090A0E39B
S21400087081A200E30C0000EA043015E5002A95E4A6
S214000880022483E10600A0E10410A0E17220BFE686
S21400089076FEFFEB014084E2F00054E3F5FFFF1A1A
S2140008A0027087E20A0057E1F88FBD08016047E250
S2140008B0D660EEE707518BE00940A0E1EDFFFFEAC6
S2140008C07C43020004E02DE514D04DE2643C0AE3CC
S2140008D00B3040E304008DE268130AE3001040E3A7
S2140008E0042093E5E90500EB0030A0E3C92483E289
S2140008F004108DE20110D3E7C610C2E5013083E292
S2140009000A0053E3F8FFFF1A14D08DE20080BDE81A
S2140009100010A0E301C0A0E12000A0E3080000EA68
S214000920832381E0C92482E20000C2E5013083E22D
S2140009303C0053E3F9FFFF1A011081E2500051E337
S2140009401EFF2F010C30A0E1F4FFFFEAF8402DE96E
S2140009500040A0E10150A0E1000052E30B00000AB5
S2140009600270A0E10000A0E30010A0E3F01F43E344
S2140009700060A0E30420A0E10530A0E1B10300EB95
S214000980016086E2070056E1F9FFFF1AF880BDE82D
S2140009900000A0E30010A0E3F01F43E3F880BDE8EA
S2140009A0F0472DE910D04DE20080A0E10190A0E1D3
S2140009B00020A0E30030A0E39E0200EB0020A0E3AE
S2140009C00030A0E3E03F43E39E0300EB0040A0E1DD
S2140009D00150A0E10020A0E10130A0E1990300EB66
S2140009E00060A0E10170A0E10820A0E10930A0E1CC
S2140009F0EE0400EB000050E32200001AF880CDE180
S214000A00FAAFA0E30020A0E30030A0E3F020CDE1A1
S214000A10120000EAD000CDE1D820CDE1850200EB3F
S214000A200020A0E30030A0E3E03F43E3850300EBB3
S214000A300040A0E10150A0E10020A0E10130A0E1CB
S214000A40800300EB0060A0E10170A0E10820A0E1B7
S214000A500930A0E1D50400EB000050E30900001ABD
S214000A600800A0E10910A0E10620A0E10730A0E1FF
S214000A70D40400EB000050E3F840CD11F040CD0167
S214000A8001A05AE2E2FFFF1A0400A0E10510A0E16F
S214000A9010D08DE2F087BDE8F04F2DE96CD04DE226
S214000AA0490500EB1F3508E3EB3145E39310C3E03F
S214000AB0C02FA0E1433362E0C820A0E3920360E0C9
S214000AC0500080E27000FFE608008DE53E0500EB72
S214000AD049360DE3B9324FE39320C3E0003083E09C
S214000AE0C02FA0E1C33362E0833183E0033263E0CA
S214000AF0000063E0440080E27000FFE60C008DE535
S214000B00310500EBA03F80E0013003E2A00F43E098
S214000B108030A0E1013043E27330FFE62C308DE5F3
S214000B20290500EBA03F80E0013003E2A00F43E080
S214000B308030A0E1013043E27330FFE630308DE5CF
S214000B40210500EBB73006E30B364BE39310C3E00A
S214000B50003083E0C02FA0E1C33362E0B420A0E3FE
S214000B60920360E0500080E27000FFE610008DE522
S214000B70150500EB833002E3083248E39320C3E018
S214000B80003083E0C02FA0E1433362E0033363E02C
S214000B90830040E0440080E27000FFE614008DE52C
S214000BA0090500EBA03F80E0013003E2A00F43E020
S214000BB08030A0E1013043E27330FFE634308DE54B
S214000BC0010500EBA03F80E0013003E2A00F43E008
S214000BD08030A0E1013043E27330FFE638308DE527
S214000BE0F90400EBB53004E30B344BE39310C3E099
S214000BF0003083E0C02FA0E1C33362E0B620A0E35C
S214000C00920360E0500080E27000FFE618008DE579
S214000C10ED0400EB933402E3493249E39320C3E04A
S214000C20003083E0C02FA0E1433362E0833163E00D
S214000C30030240E0440080E27000FFE61C008DE501
S214000C40E10400EBA03F80E0013003E2A00F43E0A8
S214000C508030A0E1013043E27330FFE63C308DE5A2
S214000C60D90400EBA03F80E0013003E2A00F43E090
S214000C708030A0E1013043E27330FFE640308DE57E
S214000C800040A0E3196E08E3166442E3E370A0E3B5
S214000C904F510DE3C25941E3CB0400EBCA0400EB0D
S214000CA0A03F80E0013003E2A00F43E08030A0E1E7
S214000CB0013043E260208DE2B23084E1C20400EBF2
S214000CC0A03F80E0013003E2A00F43E08030A0E1C7
S214000CD0013043E258208DE2B23084E1BA0400EBE2
S214000CE09630C2E0C03FA0E1C23263E0970360E006
S214000CF0500080E250308DE2B30084E1B20400EB95
S214000D009510C2E0C03FA0E1423263E0032183E0D9
S214000D10823263E0000063E0440080E2483084E210
S214000D200D20A0E1B20083E1024084E2060054E315
S214000D30D8FFFF1AFF4F03E3204F4FE33233A0E301
S214000D40DB3F04E5DF3F14E5645C0AE30B5040E359
S214000D50003085E54CFDFFEBC9FDFFEBDF3F14E5FA
S214000D60003085E548FDFFEB0331A0E3DB3F04E5FB
S214000D70DF3F14E5003085E5E4FEFFEB0570A0E1FB
S214000D80D8020AE30B0040E344008DE5B8B0D7E193
S214000D9028B08BE2BAA0D7E122308AE20080A0E336
S214000DA008A0A0E17BB0BFE60290A0E37340BFE6D8
S214000DB004708DE500B08DE550308DE2B30098E10B
S214000DC0060080E27000BFE60B0060E0660200EB03
S214000DD00920A0E1DCFEFFEB0060A0E10170A0E1CD
S214000DE0482088E20D10A0E1B10092E1060080E202
S214000DF07000BFE6040060E05B0200EB0920A0E1A3
S214000E00D1FEFFEB0020A0E10130A0E10600A0E14A
S214000E100710A0E1870100EBE0FEFFEB0020A0E357
S214000E200030A0E3443044E3E60300EB000050E368
S214000E3001A0A013028088E2060058E3DCFFFF1A38
S214000E400460A0E104709DE508309DE57330FFE680
S214000E5004308DE50C009DE57000FFE620008DE572
S214000E60140083E27000BFE600B09DE50B0060E072
S214000E703D0200EB0220A0E3B3FEFFEB0040A0E142
S214000E800150A0E120109DE5120081E27000BFE64F
S214000E90060060E0340200EB0220A0E3AAFEFFEBAF
S214000EA00020A0E10130A0E10400A0E10510A0E1CF
S214000EB0600100EBB9FEFFEB0020A0E30030A0E3EA
S214000EC04A3044E3BF0300EB000050E301A0A01348
S214000ED010209DE57220FFE624208DE514309DE568
S214000EE07330FFE628308DE51E0082E27000BFE614
S214000EF000B09DE50B0060E01B0200EB0220A0E3C3
S214000F0091FEFFEB0040A0E10150A0E128109DE516
S214000F10170081E27000BFE6060060E0120200EBF8
S214000F200220A0E388FEFFEB0020A0E10130A0E154
S214000F300400A0E10510A0E13E0100EB97FEFFEBE8
S214000F400020A0E30239A0E34C3044E39D0300EB0D
S214000F50000050E301A0A01318209DE57290FFE664
S214000F601C309DE573B0FFE61E0089E27000BFE608
S214000F7000109DE5010060E0FB0100EB0220A0E30D
S214000F8071FEFFEB0040A0E10150A0E11D008BE2E6
S214000F907000BFE6060060E0F30100EB0220A0E36D
S214000FA069FEFFEB0020A0E10130A0E10400A0E113
S214000FB00510A0E11F0100EB78FEFFEB0020A0E388
S214000FC00239A0E34F3044E37E0300EB000050E319
S214000FD001A0A01312FEFFEB44209DE5A43092E58D
S214000FE0002093E5040012E30400000ABA20D7E1CB
S214000FF07210BFE6AB0051E3022082D2BA20C7D1FE
S214001000002093E5020012E30400000ABA20D7E1AC
S2140010107210BFE6000051E3022042C2BA20C7C1E8
S214001020002093E5010012E30400000AB820D7E18F
S2140010307210BFE6EF0051E3022082D2B820C7D17B
S214001040003093E5080013E30400000AB830D7E147
S2140010507320BFE6000052E3023043C2B830C7C177
S214001060F800D7E1FA10D7E127FDFFEB0040A0E338
S214001070328100E350308DE260208DE2B26094E170
S214001080B32094E1026086E07660FFE6B36084E118
S21400109058308DE2B35094E1481084E20D00A0E190
S2140010A0B03091E1035085E07550FFE6B05081E125
S2140010B07630BFE6000053E30B0000CA60308DE2D6
S2140010C00100A0E3B30084E1BF0300EBA03F80E093
S2140010D0013003E2A00F43E08030A0E1013043E29C
S2140010E058208DE2B23084E10D0000EA7630BFE68B
S2140010F0080053E10A0000DA60308DE20010E0E3F9
S214001100B31084E1B00300EBA03F80E0013003E2BF
S214001110A00F43E08030A0E1013043E258208DE28A
S214001120B23084E17530BFE6000053E30B0000CA1E
S21400113058308DE20120A0E3B32084E1A20300EB47
S214001140A03F80E0013003E2A00F43E08030A0E142
S214001150013043E260208DE2B23084E10D0000EA07
S2140011607530BFE6E20053E30A0000DA58308DE23D
S2140011700000E0E3B30084E1930300EBA03F80E0CF
S214001180013003E2A00F43E08030A0E1013043E2EB
S21400119060208DE2B23084E17600BFE67510BFE6CF
S2140011A071FDFFEB024084E2060054E3B0FFFF1A35
S2140011B008109DE57130BFE6000053E3070000DA33
S2140011C07110BFE6FF3F0FE3172100E32C009DE5FB
S2140011D0020051E10300A0C12C008DE5010000EAE9
S2140011E00110A0E32C108DE50C209DE57230BFE6C3
S2140011F0000053E3060000DA7220BFE6FF3F0FE36D
S21400120030009DE5CA0052E30300A0C130008DE522
S214001210010000EA0110A0E330108DE510209DE5E6
S2140012207230BFE6000053E3070000DA0310A0E1C7
S214001230FF3F0FE3032100E334009DE5020051E188
S2140012400300A0C134008DE5010000EA0110A0E310
S21400125034108DE514209DE57230BFE6000053E3A0
S214001260060000DA7220BFE6FF3F0FE338009DE578
S214001270C10052E30300A0C138008DE5010000EA7A
S2140012800110A0E338108DE518209DE57230BFE60A
S214001290000053E3070000DA0310A0E1FF3F0FE36E
S2140012A0052100E33C009DE5020051E10300A0C1DA
S2140012B03C008DE5010000EA0110A0E33C108DE53E
S2140012C01C209DE57230BFE6000053E3060000DAFE
S2140012D07220BFE6FF3F0FE340009DE5B30052E3F8
S2140012E00300A0C140008DE5010000EA0110A0E364
S2140012F040108DE504209DE52C009DE5003082E041
S2140013007330FFE608308DE520109DE530209DE522
S214001310023081E07330FFE60C308DE524009DE559
S21400132034109DE5013080E07330FFE610308DE527
S21400133028209DE538009DE5003082E07330FFE60A
S21400134014308DE53C109DE5019089E07990FFE62C
S21400135018908DE540209DE502B08BE07BB0FFE65F
S2140013601CB08DE508309DE57300BFE60C209DE5BA
S2140013707210BFE690FCFFEB10309DE57300BFE6F1
S21400138014209DE57210BFE6B5FCFFEB18909DE5B6
S2140013907900BFE61CB09DE57B10BFE6D0FCFFEBF6
S2140013A0043097E5013083E2043087E534FCFFEB38
S2140013B0FF3F03E3203F4FE3DB3F13E5003087E5C5
S2140013C000005AE370FEFF0A0A90A0E10600001A29
S2140013D0120000EA21FDFFEB39FDFFEB28FCFFEBD6
S2140013E0DB3F15E5003084E5F9FFFFEA1BFDFFEB68
S2140013F033FDFFEB22FCFFEBFF3F03E3203F4FE311
S214001400DB2F13E5643C0AE30B3040E3002083E562
S214001410FF5F03E3205F4FE30340A0E1ECFFFFEA3A
S2140014200000A0E36CD08DE2F08FBDE8021121E24F
S214001430000000EA023123E230402DE98140A0E1BD
S2140014408350A0E1050034E10200300100C0941191
S21400145002C09511C4CAF011C5CAF0118C00000A6A
S214001460A44AA0E1A55A74E0005065B2060000DA6E
S214001470054084E0022020E0033021E0000022E066
S214001480011023E0022020E0033021E0360055E37F
S2140014903040BD881EFF2F81020111E30116A0E136
S2140014A001C6A0E321168CE10100000A000070E2EC
S2140014B00010E1E2020113E30336A0E123368CE1DB
S2140014C00100000A002072E20030E3E2050034E189
S2140014D06900000A014044E220E075E2050000BA17
S2140014E012CEA0E1320590E00010A1E2130E90E0CB
S2140014F05315B1E0060000EA205045E220E08EE2F7
S214001500010052E313CEA0E102C08C23530590E005
S214001510C31FB1E0025101E20200005A00C07CE2A3
S2140015200000F0E20010E1E2010651E30F00003A8D
S214001530020651E30600003AA110B0E16000B0E1F7
S2140015406CC0A0E1014084E2842AA0E1010572E3B8
S2140015506B00002A02015CE3A0C0B0010000B0E20C
S214001560041AA1E0051081E13040BDE81EFF2FE11E
S2140015708CC0B0E10000B0E00110A1E0010611E36C
S214001580014044E2F2FFFF1A000031E31430A013DA
S2140015903430A0030010A0010000A0030120A0E149
S2140015A0010852E32228A02110304322010C52E306
S2140015B02224A02108304322100052E32222A02138
S2140015C004304322040052E302304322A230433068
S2140015D0A23143E0202053E2070000AA0C2092E24A
S2140015E0040000DA14C082E20C2062E2110CA0E1D2
S2140015F03112A0E1040000EA142082E220C062D288
S2140016001112A0E1301C81D11002A0D1034054E099
S214001610041A81A0051081A13040BDA81EFF2FA18D
S2140016200440E0E11F4054E20F0000AA0C4094E2A0
S214001630060000CA144084E2202064E23004A0E1E0
S214001640110280E1311485E13040BDE81EFF2FE134
S2140016500C4064E2202064E23002A0E1110480E144
S2140016600510A0E13040BDE81EFF2FE13104A0E1E7
S2140016700510A0E13040BDE81EFF2FE1000034E376
S214001680013623E201162102014084020150451270
S2140016908FFFFFEAC4CAF0E1C5CAF0111D00000AB8
S2140016A0050034E1020030010400000A00C094E1A5
S2140016B00310A0010200A0013040BDE81EFF2FE18C
S2140016C0030031E10010A0130000A0133040BD1845
S2140016D01EFF2F11A4CAB0E10400001A8000B0E17A
S2140016E00110B1E0021181233040BDE81EFF2FE15A
S2140016F0014594E2011681323040BD381EFF2F317D
S214001700025101E27F1485E30F1681E30000A0E397
S2140017103040BDE81EFF2FE1C4CAF0E10310A0115F
S2140017200200A011C5CAF0010130A0110020A011CE
S214001730014690E10356920103003101021781131E
S2140017403040BDE81EFF2FE1000030E30010A0038C
S2140017501EFF2F0130402DE9014BA0E3324084E20A
S2140017600050A0E30010A0E386FFFFEA000030E38D
S2140017700010A0031EFF2F0130402DE9014BA0E30F
S214001780324084E2025110E2000060420010A0E302
S2140017907CFFFFEA8020B0E1C211A0E16110A0E169
S2140017A0020EA0E1FF341212FF0433130E132112AF
S2140017B01EFF2F11000032E3FF0433131EFF2F011C
S2140017C030402DE90E4DA0E3025101E20211C1E3C3
S2140017D06CFFFFEA012090E11EFF2F0130402DE94B
S2140017E00050A0E3060000EA012090E11EFF2F0152
S2140017F030402DE9025111E20100005A000070E26B
S2140018000010E1E2014BA0E3324084E221CBB0E1DC
S21400181044FFFF0A0320A0E3ACC1B0E1032082121C
S214001820ACC1B0E103208212AC2182E0203062E23B
S21400183010C3A0E13002A0E1110380E13112A0E163
S214001840024084E037FFFFEA70402DE9FFC0A0E3C6
S21400185007CC8CE3214A1CE0235A1C100C003411E0
S2140018600C0035117500000B054084E0036021E094
S2140018708C1AC1E18C3AC3E1015690E103569211ED
S214001880011681E3013683E31D00000A90C28EE054
S2140018900050A0E391E2A5E0022106E290E3A5E075
S2140018A00060A0E39153A6E000003CE301E08E1345
S2140018B0FF4044E2020C56E3034CC4E20200002A56
S2140018C08EE0B0E10550B5E00660A6E0861582E140
S2140018D0A51A81E18505A0E1AE0A80E18EE5A0E1CA
S2140018E0FDC054E2070C5C831100008A02015EE32F
S2140018F0A0E0B0010000B0E2041AA1E07040BDE82C
S2140019001EFF2FE1026106E2011086E1020080E17F
S214001910031021E0AC4054E00C5074C0041A81C19E
S2140019207040BDC81EFF2FC1011681E300E0A0E392
S214001930014054E25D0000CA360074E30000A0D304
S214001940021101D27040BDD81EFF2FD1004064E2C4
S214001950204054E21A0000AA0C4094E20C0000CA90
S214001960144084E2205064E21035A0E13004A0E187
S214001970110580E1022101E20211C1E3A30F90E00C
S2140019803114A2E083E09EE1A30FC0017040BDE8E1
S2140019901EFF2FE10C4064E2205064E21034A0E108
S2140019A03005A0E1110480E1021101E2A30F90E0EE
S2140019B00010A1E283E09EE1A30FC0017040BDE8E5
S2140019C01EFF2FE1205064E210E58EE13034A0E1E6
S2140019D0113583E13104A0E1021101E23104C0E1D6
S2140019E0A30F80E083E09EE1A30FC0017040BDE836
S2140019F01EFF2FE1000034E30800001A026101E236
S214001A008000B0E10110A1E0010611E301404402AC
S214001A10FAFFFF0A061081E1000035E31EFF2F11D2
S214001A20026103E28220B0E10330A3E0010613E383
S214001A3001504502FAFFFF0A063083E11EFF2FE140
S214001A400C0034E1235A0CE00C0035110700000AA4
S214001A50816090E183609211E5FFFF1A031021E098
S214001A60021101E20000A0E37040BDE81EFF2FE176
S214001A70816090E10200A0010310A0018360921132
S214001A801000000A0C0034E10100001A016690E123
S214001A900C00001A0C0035E10300001A036692E100
S214001AA00200A0110310A0110600001A031021E086
S214001AB0021101E27F1481E30F1681E30000A0E328
S214001AC07040BDE81EFF2FE17F1481E33E1781E3DF
S214001AD07040BDE81EFF2FE170402DE9FFC0A0E377
S214001AE007CC8CE3214A1CE0235A1C100C0034114E
S214001AF00C0035115E00000B054044E003E021E0D9
S214001B00035692E10116A0E14C00000A0336A0E15C
S214001B100152A0E3233285E1223C83E10224A0E1C6
S214001B20215285E1205C85E10064A0E102110EE20D
S214001B30030055E102005601FD40A4E2034C84E296
S214001B400100002AA330B0E16220A0E1026056E066
S214001B500350C5E0A330B0E16220A0E10106A0E397
S214001B6002C7A0E302E056E003E0D5E002604620AC
S214001B700E50A0210C008021A330B0E16220A0E12D
S214001B8002E056E003E0D5E0026046200E50A021B9
S214001B90AC008021A330B0E16220A0E102E056E074
S214001BA003E0D5E0026046200E50A0212C018021E3
S214001BB0A330B0E16220A0E102E056E003E0D5E009
S214001BC0026046200E50A021AC01802106E095E17F
S214001BD00D00000A0552A0E1265E85E10662A0E13E
S214001BE08331A0E1A23E83E18221A0E12CC2B0E1D4
S214001BF0DBFFFF1A010611E30600001A001081E160
S214001C000000A0E302C1A0E3D5FFFFEA010611E34E
S214001C10001081010000A003FDC054E2070C5C83A5
S214001C2043FFFF8A03C055E002C05600A0C0B001C3
S214001C300000B0E2041AA1E07040BDE81EFF2FE1EC
S214001C4002E10EE221168EE1AC4094E00C5074C026
S214001C50041A81C17040BDC81EFF2FC1011681E362
S214001C6000E0A0E3014054E231FFFFEA06E085E130
S214001C702FFFFFEA235A0CE00C0034E10C0035017C
S214001C8090FFFF0A0C0034E10600001A014690E1BE
S214001C908CFFFF1A0C0035E183FFFF1A0200A0E15B
S214001CA00310A0E187FFFFEA0C0035E10400001AEC
S214001CB0035692E168FFFF0A0200A0E10310A0E1CC
S214001CC080FFFFEA816090E18360921148FFFF1A6F
S214001CD0814090E174FFFF1A835092E15EFFFF1A85
S214001CE078FFFFEA00C0E0E3020000EA01C0A0E3DC
S214001CF0000000EA01C0A0E304C02DE581C0A0E119
S214001D00CCCAF0E183C0A0E1CCCAF0110E00000AF4
S214001D1004D08DE281C090E183C0920103003111AE
S214001D20020030010000A0031EFF2F01000070E338
S214001D30030031E10300515102005001C30FA021FE
S214001D40C30FE031010080E31EFF2FE181C0A0E158
S214001D50CCCAF0E10100001A01C690E10400001AA6
S214001D6083C0A0E1CCCAF0E1E8FFFF1A03C692E107
S214001D70E6FFFF0A04009DE41EFF2FE100C0A0E17D
S214001D800200A0E10C20A0E101C0A0E10310A0E148
S214001D900C30A0E1FFFFFFEA01402DE9D4FFFFEB86
S214001DA0000050E3000070430140BDE81EFF2FE135
S214001DB008E02DE5F7FFFFEB0100A0030000A013ED
S214001DC008E09DE41EFF2FE108E02DE5F1FFFFEBA4
S214001DD00100A0330000A02308E09DE41EFF2FE1D1
S214001DE008E02DE5EBFFFFEB0100A0930000A083C9
S214001DF008E09DE41EFF2FE108E02DE5DEFFFFEB87
S214001E000100A0930000A08308E09DE41EFF2FE1E0
S214001E1008E02DE5D8FFFFEB0100A0330000A0236B
S214001E2008E09DE41EFF2FE10010A0E10000A0E303
S214001E3008402DE90020A0E10030A0E18F0800EB6B
S214001E400840BDE81EFF2FE108402DE90010A0E382
S214001E500040A0E1C60800EB18309FE5000093E5BF
S214001E603C3090E5000053E30FE0A01113FF2F1164
S214001E700400A0E1E92000EB6CA30000030052E39D
S214001E8004402DE5FF1001E20800008A000052E33E
S214001E900400000A0030A0E1002082E00110C3E444
S214001EA0020053E1FCFFFF1A1000BDE81EFF2FE101
S214001EB0030010E3022080E00700000A01C080E271
S214001EC003300CE2000053E301104CE50C30A0E1B7
S214001ED001C08CE2F9FFFF1A000000EA0030A0E122
S214001EE0024063E001C481E03F0054E30CC88CE08C
S214001EF01A0000DA00C083E504C083E508C083E565
S214001F000CC083E510C083E514C083E518C083E5E4
S214001F101CC083E520C083E524C083E528C083E594
S214001F202CC083E530C083E534C083E538C083E544
S214001F303CC083E5403083E2024063E03F0054E368
S214001F40EBFFFFCA050000EA00C083E504C083E596
S214001F5008C083E50CC083E5103083E2024063E0EE
S214001F600F0054E3F7FFFFCA030054E3060000DA4D
S214001F70044083E2023064E0030053E304C004E557
S214001F800430A0E1044084E2F9FFFFCA030052E1F6
S214001F90C4FFFF9A013083E2012082E2011043E58C
S214001FA0013083E2020053E1FBFFFF1ABDFFFFEAA8
S214001FB010309FE5003093E50020A0E3A80083E5FD
S214001FC0AC2083E51EFF2FE180A30B0004402DE527
S214001FD044309FE500C093E540409FE5A8209CE57F
S214001FE0920404E0AC109CE534309FE5934124E075
S214001FF0920381E00120A0E3002092E0011084E03B
S2140020000030A0E30130A3E0A8208CE5AC308CE5DE
S2140020100201C3E31000BDE81EFF2FE180A30B0002
S2140020202DF451582D7F954C0C002DE930402DE9AC
S21400203074D04DE284C08DE202E1E0E30140A0E10D
S21400204080209DE50C30A0E110E08DE51CE08DE5DC
S21400205008108DE200E0E0E3825FA0E3B451CDE13A
S21400206008408DE518408DE5B6E1CDE104C08DE56C
S214002070230000EB08309DE50020A0E30020C3E528
S21400208074D08DE23040BDE808D08DE21EFF2FE10F
S2140020900E002DE930402DE960309FE570D04DE20E
S2140020A080C08DE202E1E0E30040A0E17C209DE5F7
S2140020B010E08DE51CE08DE5000093E500E0E0E330
S2140020C00C30A0E108108DE2825FA0E3B451CDE1B0
S2140020D008408DE518408DE5B6E1CDE104C08DE5FC
S2140020E0070000EB08309DE50020A0E30020C3E5D4
S2140020F070D08DE23040BDE80CD08DE21EFF2FE19F
S21400210080A30B00F04F2DE945DF4DE230108DE542
S21400211048308DE50240A0E140008DE5DF0E00EB83
S214002120000090E558008DE57B1500EB30C09DE57E
S214002130BC30DCE15C008DE50010A0E30000A0E30D
S214002140800013E360008DE564108DE50200000A50
S21400215010309CE5000053E3BB06000A0030A0E305
S214002160D0C08DE204B0A0E11CC08DE54C308DE5FA
S2140021709CC08DE5A4308DE5A0308DE56C308DE5F6
S21400218068308DE52C308DE524B08DE50340A0E168
S2140021900CA0A0E124C09DE50030DCE5250053E35B
S2140021A000005313A500000A01308CE20360A0E192
S2140021B00030D3E5250053E300005313013086E2D8
S2140021C0F9FFFF1A24409DE5047056E00E00000A51
S2140021D0A0408DE2300094E824C09DE5014084E2F2
S2140021E0075085E0070054E300C08AE504708AE5DE
S2140021F0A4508DE5A0408DE508A08AD2770000CADD
S2140022002C409DE5074084E02C408DE50030D6E567
S214002210000053E37900000A01C086E20030A0E324
S21400222024C08DE534308DE57B30CDE50170D6E5F4
S21400223020308DE50060E0E32010A0E32B20A0E333
S2140022400C30A0E1013083E2200047E2580050E362
S21400225000F19F972D0200EA3C2B0000102B000097
S214002260102B0000542B0000102B0000102B000039
S214002270102B0000102B0000102B0000102B00006D
S214002280682B000048240000102B0000CC23000020
S21400229054240000102B0000A0240000B4240000EA
S2140022A0B4240000B4240000B4240000B4240000C9
S2140022B0B4240000B4240000B4240000B4240000B9
S2140022C0102B0000102B0000102B0000102B00001D
S2140022D0102B0000102B0000102B0000102B00000D
S2140022E0102B0000102B0000E4240000282700001C
S2140022F0102B000028270000102B0000102B0000D9
S214002300102B0000102B0000E0270000102B000010
S214002310102B0000902B0000102B0000102B00004C
S214002320102B0000102B0000102B0000DC2B0000F0
S214002330102B0000102B0000F4270000102B0000CC
S214002340102B0000102B0000102B0000102B00009C
S214002350102B0000102B0000102B0000102B00008C
S214002360102B00004C2800009028000028270000B2
S2140023702827000028270000FC28000090280000DE
S214002380102B0000102B000010290000102B00005E
S2140023904029000074290000B0290000002A00002F
S2140023A0102B0000142A0000102B0000882A0000C2
S2140023B0102B0000102B0000C42A000034C09DE53E
S2140023C000C06CE234C08DE548008DE520409DE5F8
S2140023D0044084E320408DE50070D3E598FFFFEAD3
S2140023E040009DE530109DE59C208DE2E21400EB58
S2140023F0000050E30700001AD0A08DE27FFFFFEA3E
S214002400A4309DE5000053E340009D1530109D1557
S2140024109C208D12D814001B30409DE5BC30D4E1C2
S2140024202CC09DE5400013E300C0E0132CC08DE5F2
S2140024302C009DE545DF8DE2F04FBDE81EFF2FE145
S21400244024609DE570FFFFEA7B20CDE50070D3E5B4
S2140024507BFFFFEA03C0A0E10170DCE42A0057E33B
S214002460DE06000A300047E2090050E30C30A08187
S2140024700060A08373FFFF8A0060A0E30170DCE4C5
S214002480066186E0866080E0300047E2090050E39F
S2140024900C30A0E1F8FFFF9AC66F86E169FFFFEAFD
S2140024A020C09DE580C08CE320C08DE50070D3E59C
S2140024B063FFFFEA03C0A0E10000A0E3303047E27C
S2140024C00170DCE4304047E2000180E0090054E39C
S2140024D0800083E00C30A0E1F7FFFF9A34008DE522
S2140024E058FFFFEA20C09DE510C08CE320C08DE5B4
S2140024F020409DE5200014E324308DE5E700000A27
S21400250048C09DE507108CE20710C1E30C0091E877
S214002510081081E248108DE50240A0E10350A0E1DA
S214002520000052E30000D3E2EA0000BA051094E18E
S2140025300020A0030120A0130130A0E3000056E312
S21400254020C09DA580C0CCA320C08DA5000056E36A
S21400255001208213000052E3AC02000A010053E39C
S2140025609D03000A020053E3CFC08DE23903000A40
S2140025700700A0E3A481A0E1858E88E1002004E0A6
S214002580A531A0E10840A0E1302082E20350A0E19E
S214002590FF2002E2053094E10C80A0E10020CCE5AB
S2140025A001C04CE2F2FFFF1A20409DE5010014E353
S2140025B00830A0E18E03000A300052E33403000A1C
S2140025C01C409DE53020A0E304406CE0012043E57C
S2140025D038408DE50C80A0E138409DE500C0A0E3C2
S2140025E0060054E10640A0B128408DE57B30DDE5CD
S2140025F044608DE554C08DE5000053E30200000AF8
S21400260028409DE5014084E228408DE520C09DE5F8
S21400261002C01CE228409D153CC08DE520C09DE50B
S2140026200240841228408D1584C01CE250C08DE5FF
S2140026307D01001A34409DE528C09DE504606CE0ED
S214002640000056E3780100DAA0408DE2100056E361
S214002650300094E8C89F9FE5200000DA70708DE592
S21400266074808DE510B0A0E30680A0E130709DE593
S21400267040609DE5020000EA108048E2100058E342
S214002680130000DA014084E2070054E3105085E2AC
S214002690000A8AE8A4508DE5A0408DE508A08AD2FD
S2140026A0F4FFFFDA0600A0E10710A0E19C208DE20F
S2140026B0311400EB000050E356FFFF1A108048E28A
S2140026C0A0408DE2100058E3300094E8D0A08DE2E0
S2140026D0EBFFFFCA0860A0E170708DE2800197E80A
S2140026E0014084E2065085E0070054E300908AE546
S2140026F004608AE5A4508DE5A0408DE508A08AD246
S2140027004A0100DA40009DE530109DE59C208DE2F0
S214002710191400EB000050E33EFFFF1AA4509DE59D
S214002720D0A08DE2410100EA20409DE5080014E3B8
S21400273048C09D1548409D0524308DE507108C1235
S214002740071084020710C1E3009091E5045091E55C
S214002750081081E248108DE50900A0E10510A0E10F
S21400276060008DE564108DE50510A0E10900A0E18C
S214002770321300EB010050E30510A0E10900A0E1D0
S2140027801404001A0030A0E30020A0E38DFDFFEB48
S2140027900340A0E328408DE520409DE5000050E37F
S2140027A02D30A01300C0A0E38040C4E3740E9FE564
S2140027B07B30DD057B30CD1544C08DE5470057E303
S2140027C020408DE503C0A0E30040A0E3588E9FE5BF
S2140027D038C08DE50080A0D154408DE585FFFFEA26
S2140027E020409DE5084084E320408DE50070D3E559
S2140027F093FEFFEA20409DE530CE9FE5200014E3DF
S21400280024308DE56CC08DE5B300000A48C09DE518
S21400281007308CE20730C3E3084083E248408DE58A
S214002820300093E820C09DE501001CE32603001A53
S214002830050094E10020A0030120A0130230A0E3CD
S2140028400010A0E37B10CDE53BFFFFEA24308DE5CA
S21400285048309DE548409DE5003093E501C0A0E383
S214002860044084E2A830CDE50030A0E328C08DE522
S21400287048408DE57B30CDE538C08DE5A8808DE2FB
S2140028800030A0E344308DE554308DE55EFFFFEA6E
S21400289020409DE5200014E324308DE517FFFF1A45
S2140028A020409DE5100014E3FB03000A48C09DE5A8
S2140028B000309CE5C35FA0E10320A0E10340A0E157
S2140028C00530A0E104C08CE2000052E30000D3E231
S2140028D048C08DE514FFFFAA004074E20050E5E210
S2140028E02D30A0E3052094E17B30CDE50020A00349
S2140028F00120A0130130A0E30FFFFFEA20C09DE5F2
S21400290040C08CE320C08DE50070D3E54CFEFFEAA6
S2140029100070D3E56C0057E320409D0520C09D1550
S2140029200300A0E12040840310C08C130130830212
S21400293020408D050170D00520C08D1540FEFFEAB1
S21400294020409DE5200014E324308DE5B503000A01
S21400295048C09DE52C209DE500309CE5C21FA0E107
S21400296004C08CE2002083E5041083E548C08DE5B2
S21400297007FEFFEA20C09DE524308DE520301CE2EE
S2140029808900000A48409DE5073084E20730C3E32B
S214002990300093E8083083E205C094E148308DE5C6
S2140029A00020A0030120A0130030A0E3A3FFFFEA4D
S2140029B024308DE548309DE504C083E248C08DE5AF
S2140029C020C09DE5002093E502C08CE320C08DE585
S2140029D00050A0E358CC9FE53030A0E37870A0E329
S2140029E00240A0E1052052E07C30CDE57D70CDE5CB
S2140029F00120A0136CC08DE50230A0E38FFFFFEA34
S214002A0020409DE5204084E320408DE50070D3E51E
S214002A100BFEFFEA0040A0E348C09DE57B40CDE505
S214002A2000809CE5040058E124308DE504508CE2DB
S214002A30E804000A000056E30800A0E1CB0400BA50
S214002A400410A0E10620A0E1680E00EB000050E3B1
S214002A501505000A000068E0060050E138008DE524
S214002A6044408DE5DD0300DA44C09DE5C64FC6E16F
S214002A7028408DE57B30DDE548508DE538608DE5F6
S214002A8054C08DE5DBFEFFEA20C09DE520001CE378
S214002A9024308DE55700000A48409DE5073084E263
S214002AA00730C3E3300093E8083083E205C094E1C2
S214002AB048308DE50020A0030120A0130130A0E3DC
S214002AC05EFFFFEA684B9FE56C408DE520409DE584
S214002AD0200014E324308DE54BFFFF1A20C09DE54F
S214002AE010001CE38B02001A20409DE5400014E312
S214002AF08802000A48C09DE5B030DCE104C08CE2E4
S214002B000340A0E10050A0E348C08DE544FFFFEA83
S214002B10000057E324308DE538FEFF0A0140A0E3AD
S214002B200030A0E328408DE5A870CDE57B30CDE5EC
S214002B3038408DE5A8808DE250FFFFEA7B00DDE59A
S214002B40000050E33503001A7B10CDE50070D3E596
S214002B50BBFDFFEA20409DE5014084E320408DE573
S214002B600070D3E5B6FDFFEA48C09DE500C09CE5D1
S214002B7048409DE500005CE334C08DE5040084E237
S214002B800DFEFFBA0070D3E548008DE5ACFDFFEA08
S214002B9020409DE5104084E320408DE520C09DE563
S214002BA024308DE520301CE275FFFF1A20409DE59D
S214002BB0101014E22B03000A48C09DE500209CE597
S214002BC00050A0E30240A0E104C08CE2052052E0E1
S214002BD00120A01348C08DE518FFFFEA20409DE5C0
S214002BE0104084E320408DE520C09DE520001CE3D6
S214002BF024308DE5A7FFFF1A20409DE5100014E362
S214002C001203000A48C09DE500209CE50050A0E3A2
S214002C100240A0E104C08CE2052052E00120A0138F
S214002C2048C08DE50130A0E304FFFFEAA4509DE50F
S214002C307B30DDE5000053E30B00000AA0409DE575
S214002C407B308DE2014084E200308AE5015085E267
S214002C50070054E30130A0E304308AE5A4508DE574
S214002C60A0408DE508A08AD28D0100CA3C309DE5C3
S214002C70000053E30B00000AA0409DE57C308DE287
S214002C80014084E200308AE5025085E2070054E302
S214002C900230A0E304308AE5A4508DE5A0408DE51F
S214002CA008A08AD2870100CA50409DE5800054E300
S214002CB0E500000A44C09DE538309DE50C9063E0D1
S214002CC0000059E3360000DA100059E3A0409DE505
S214002CD06C699FE5220000DA44708DE53C808DE546
S214002CE010B0A0E30980A0E130709DE50690A0E159
S214002CF040609DE5020000EA108048E2100058E3BC
S214002D00130000DA014084E2070054E3105085E225
S214002D10000A8AE8A4508DE5A0408DE508A08AD276
S214002D20F4FFFFDA0600A0E10710A0E19C208DE288
S214002D30911200EB000050E3B6FDFF1A108048E247
S214002D40A0408DE2100058E3300094E8D0A08DE259
S214002D50EBFFFFCA0960A0E144709DE50890A0E182
S214002D603C809DE5014084E2095085E0070054E37D
S214002D7040028AE8A4508DE5A0408DE508A08AD2DE
S214002D80070000DA40009DE530109DE59C208DE2AE
S214002D90791200EB000050E39EFDFF1AA4509DE55B
S214002DA0D0A08DE220409DE5010C14E34D00001AF2
S214002DB0A0409DE538C09DE5014084E20C5085E0CA
S214002DC0070054E300118AE8A4508DE5A0408DE585
S214002DD0100100CA08A08AE220409DE5040014E322
S214002DE03300000A34C09DE528409DE50C6064E091
S214002DF0000056E32E0000DA100056E3A0409DE5E2
S214002E001C989FE51B0000DA1070A0E340809DE54B
S214002E1030B09DE5020000EA106046E2100056E37E
S214002E20140000DA014084E2070054E3105085E203
S214002E3000908AE504708AE5A4508DE5A0408DE5F3
S214002E4008A08AD2F3FFFFDA0800A0E10B10A0E189
S214002E509C208DE2481200EB000050E36DFDFF1A47
S214002E60106046E2A0408DE2100056E3300094E881
S214002E70D0A08DE2EAFFFFCA014084E2055086E05A
S214002E80070054E300908AE504608AE5A4508DE5C7
S214002E90A0408DE5060000DA40009DE530109DE577
S214002EA09C208DE2341200EB000050E359FDFF1A1F
S214002EB0A4509DE528408DE2101094E834009DE56E
S214002EC0000054E104C08CA000C08CB0000055E3A4
S214002ED02CC08DE5D800001A0030A0E3A0308DE5A8
S214002EE0D0A08DE2AAFCFFEA650057E3930000DA63
S214002EF060108DE2030091E80020A0E30030A0E31C
S214002F00AAFBFFEB000050E3F700000AA0409DE597
S214002F1028379FE5014084E200308AE5015085E2CB
S214002F20070054E30130A0E304308AE5A4508DE5A1
S214002F30A0408DE508A08AD25D0200CA80309DE5DB
S214002F404C409DE5040053E1020000BA20C09DE518
S214002F5001001CE39FFFFF0A5CC09DE5A0409DE5C5
S214002F600C5085E058C09DE5014084E200C08AE52B
S214002F705CC09DE5070054E304C08AE5A4508DE5D7
S214002F80A0408DE508A08AD21C0300CA4C409DE5EF
S214002F90017044E2000057E38EFFFFDA100057E3AB
S214002FA0A0409DE598669FE5520100DA1080A0E3F8
S214002FB040909DE530B09DE5020000EA107047E2C3
S214002FC0100057E34B0100DA014084E2070054E3A7
S214002FD0105085E240018AE8A4508DE5A0408DE5BA
S214002FE008A08AD2F4FFFFDA0900A0E10B10A0E1E6
S214002FF09C208DE2E01100EB000050E305FDFF1A77
S214003000A0408DE2300094E8D0A08DE2EAFFFFEA0F
S214003010000053E338208D15D0808D126DFDFF1A09
S21400302020409DE5010014E3118E8D123030A01370
S2140030301CC09D15413068150CC0681038C08D1531
S21400304038308D05D0808D0262FDFFEA34C09DE5E4
S21400305028409DE50C9064E0000059E314FFFFDA79
S214003060100059E3A0409DE5D4659FE5220000DAF4
S2140030703C708DE550808DE510B0A0E30980A0E19E
S21400308030709DE50690A0E140609DE5020000EAF4
S214003090108048E2100058E3130000DA014084E292
S2140030A0070054E3105085E2000A8AE8A4508DE534
S2140030B0A0408DE508A08AD2F4FFFFDA0600A0E162
S2140030C00710A0E19C208DE2AB1100EB000050E35E
S2140030D0D0FCFF1A108048E2A0408DE2100058E3B2
S2140030E0300094E8D0A08DE2EBFFFFCA0960A0E1B3
S2140030F03C709DE50890A0E150809DE5014084E28B
S214003100095085E0070054E340028AE8A4508DE5A4
S214003110A0408DE508A08AD2E5FEFFDA40009DE5D6
S21400312030109DE59C208DE2931100EB000050E3EB
S214003130B8FCFF1AA4509DE5D0A08DE2DCFEFFEAA5
S2140031404C409DE5010054E3A0409DE5015085E21A
S214003150014084E2690100DA070054E30130A0E38D
S21400316000808AE504308AE5A4508DE5A0408DE510
S21400317008A08AD26C0100CA5CC09DE50C5085E0B0
S21400318058C09DE5014084E200C08AE55CC09DE52C
S214003190070054E304C08AE5A4508DE5A0408DE501
S2140031A008A08AD26A0100CA60108DE2030091E886
S2140031B00020A0E30030A0E3FCFAFFEB000050E3A1
S2140031C04CC09DE58E00001A01304CE2014084E2BE
S2140031D0018088E2035085E0070054E300808AE51A
S2140031E004308AE5A4508DE5A0408DE5AC0000CA09
S2140031F008A08AE268C09DE5014084E20C5085E0A4
S2140032008C308DE2070054E308108AE8A4508DE560
S214003210A0408DE5EEFEFFDA40009DE530109DE50E
S2140032209C208DE2541100EB000050E379FCFF1A5D
S214003230D0A08DE2A4509DE5E6FEFFEA40009DE5A5
S21400324030109DE59C208DE24B1100EB000050E312
S21400325020FFFF0A6FFCFFEA6C909DE50F00A0E3DD
S2140032602482A0E1002004E0058E88E125B2A0E1DA
S214003270022089E00840A0E10030D2E50B50A0E132
S2140032800C80A0E105C094E10030C8E501C048E22A
S214003290F2FFFF1A1C309DE5033068E038308DE5FC
S2140032A0CCFCFFEA40009DE530109DE59C208DE2B9
S2140032B0311100EB000050E356FCFF1AA4509DE5C8
S2140032C0D0A08DE268FEFFEA40009DE530109DE547
S2140032D09C208DE2281100EB000050E34DFCFF1A05
S2140032E0A4509DE5D0A08DE26EFEFFEA80709DE5BD
S2140032F0000057E3770100DA4C609DE554409DE5F9
S2140033004CC09DE5040056E10460A0A1000056E311
S2140033100CB088E0090000DAA0409DE5014084E298
S214003320065085E0070054E300808AE504608AE5DD
S214003330A4508DE5A0408DE508A08AD2900200CA70
S21400334054409DE5C66FC6E1047066E0000057E392
S2140033508C0000DA100057E3A0409DE5E0629FE590
S214003360780000DA38808DE544B08DE50780A0E16E
S21400337006B0A0E11090A0E330709DE540609DE5AA
S214003380020000EA108048E2100058E3690000DA04
S214003390014084E2070054E3105085E200B08AE55D
S2140033A004908AE5A4508DE5A0408DE508A08AD259
S2140033B0F3FFFFDA0600A0E10710A0E19C208DE2F3
S2140033C0ED1000EB000050E312FCFF1AA0408DE267
S2140033D0300094E8D0A08DE2E9FFFFEA000055E354
S2140033E009005403E400008A118E8DE2304084E226
S2140033F0414068E51CC09DE50CC068E038C08DE51E
S21400340074FCFFEA01704CE2000057E378FFFFDA35
S214003410100057E328629FE51A0000DA1080A0E348
S21400342040909DE530B09DE5020000EA107047E24E
S214003430100057E3130000DA014084E2070054E36B
S214003440105085E240018AE8A4508DE5A0408DE545
S21400345008A08AD2F4FFFFDA0900A0E10B10A0E171
S2140034609C208DE2C41000EB000050E3E9FBFF1A3D
S214003470107047E2A0408DE2100057E3300094E859
S214003480D0A08DE2EBFFFFCA014084E2075085E042
S214003490070054E3C0008AE8A4508DE5A0408DE5FF
S2140034A052FFFFDA40009DE530109DE59C208DE23E
S2140034B0B11000EB000050E3D6FBFF1AA0408DE2EF
S2140034C0D0A08DE2300094E849FFFFEA051094E1B1
S2140034D020C09D153030A01302C08C137C30CD1553
S2140034E07D70CD1520C08D150120A0130020A003EF
S2140034F00230A0E3D1FCFFEA014084E2075085E0F9
S214003500070054E3C0008AE8A4508DE5A0408DE58E
S2140035102FFEFFDA3FFFFFEA48409DE548C09DE5E5
S214003520003094E504C08CE20340A0E10050A0E324
S21400353048C08DE5BAFCFFEA0870A0E10B60A0E188
S21400354038809DE544B09DE5014084E2075085E063
S214003550070054E3C0008AE8A4508DE5A0408DE53E
S21400356008A08AD2070000DA40009DE530109DE5ED
S2140035709C208DE2801000EB000050E3A5FBFF1AB4
S214003580A4509DE5D0A08DE280309DE54CC09DE521
S21400359054409DE50C0053E1048088E0400000BAEA
S2140035A020C09DE501001CE33D00001A4C409DE54F
S2140035B00B6068E0043063E0060053E10360A0B1EE
S2140035C00660A0A1000056E3090000DAA0409DE5D1
S2140035D0014084E2065085E0070054E300808AE557
S2140035E004608AE5A4508DE5A0408DE508A08AD247
S2140035F0EC0100CAC66FC6E1037066E0000057E340
S214003600F4FDFFDA100057E3A0409DE530609FE52B
S214003610B8FFFFDA1080A0E340909DE530B09DE54E
S2140036200D0000EA74A3000094A3000098A3000015
S214003630A4A30000B8A300009CA30000A0A3000061
S214003640D4A3000084A30000CCA3000067666666CF
S214003650107047E2100057E3A6FFFFDA014084E24D
S214003660070054E3105085E240018AE8A4508DE537
S214003670A0408DE508A08AD2F4FFFFDA0900A0E199
S2140036800B10A0E19C208DE23B1000EB000050E305
S21400369060FBFF1AA0408DE2300094E8D0A08DE2D7
S2140036A0EAFFFFEA5CC09DE5A0409DE50C5085E082
S2140036B058C09DE5014084E200C08AE55CC09DE5F7
S2140036C0070054E304C08AE5A4508DE5A0408DE5CC
S2140036D008A08AD2B4FFFFDA40009DE530109DE5D1
S2140036E09C208DE2241000EB000050E349FBFF1AFB
S2140036F080309DE5A4509DE5D0A08DE2AAFFFFEAAC
S21400370020C09DE501001CE392FEFF1A0130A0E3F5
S214003710070054E300808AE504308AE5A4508DE56E
S214003720A0408DE5B1FEFFDA5DFFFFEA40009DE5B3
S21400373030109DE59C208DE20F1000EB000050E35A
S21400374034FBFF1AA0408DE2300094E8D0A08DE252
S21400375088FEFFEA40009DE530109DE59C208DE246
S214003760051000EB000050E32AFBFF1AA0408DE294
S214003770300094E8D0A08DE28AFEFFEACF908DE27A
S2140037800400A0E10510A0E10A20A0E30030A0E3B9
S214003790EF1700EB302082E20020C9E50400A0E12C
S2140037A00510A0E10A20A0E30030A0E3E81700EB34
S2140037B00040A0E10150A0E1050094E10980A0E1ED
S2140037C0019049E2EDFFFF1A1C309DE5033068E0EA
S2140037D038308DE57FFBFFEA180F00EB000050E362
S2140037E0A500001A03C0A0E344008DE520409DE537
S2140037F028C08DE5C4011FE538C08DE544C09DE5B1
S214003800470057E38040C4E3D4811FE520408DE5A0
S2140038100080A0D17B30DDE554C08DE575FBFFEA66
S2140038200070D3E586FAFFEA20409DE5100014E319
S214003830FB00000A48C09DE52C409DE500309CE555
S21400384004C08CE248C08DE5004083E550FAFFEAEC
S21400385020409DE5400014E37200000A48C09DE544
S214003860B020DCE1E8FCFFEA20409DE5403014E2B1
S2140038707700000A48C09DE5B020DCE10050A0E3D8
S2140038800240A0E104C08CE2052052E00120A01313
S21400389048C08DE50130A0E1E8FBFFEA20409DE549
S2140038A0400014E35500000A48C09DE5F030DCE116
S2140038B0FFFBFFEA40009DE530109DE59C208DE271
S2140038C0AD0F00EB000050E3D2FAFF1AA4509DE5BE
S2140038D0D0A08DE298FDFFEAA0409DE5A4321FE54A
S2140038E0014084E200308AE5015085E2070054E397
S2140038F00130A0E304308AE5A4508DE5A0408DE5B4
S21400390008A08AD2EE0000CA000057E30500001A9D
S2140039104CC09DE500005CE30200001A20409DE5D7
S214003920010014E32BFDFF0A5CC09DE5A0409DE569
S2140039300C5085E058C09DE5014084E200C08AE551
S2140039405CC09DE5070054E304C08AE5A4508DE5FD
S214003950A0408DE508A08AD2F90000CA007067E290
S214003960000057E3F30000DA100057E330631FE56A
S214003970DF0000DA38808DE51090A0E30680A0E135
S21400398040B09DE530609DE5020000EA107047E219
S214003990100057E3D40000DA014084E2070054E345
S2140039A0105085E200038AE8A4508DE5A0408DE51E
S2140039B008A08AD2F4FFFFDA0B00A0E10610A0E10F
S2140039C09C208DE26C0F00EB000050E391FAFF1A8A
S2140039D0A0408DE2300094E8D0A08DE2EAFFFFEA36
S2140039E038409DE5C44FC4E144C09DE528408DE5C0
S2140039F07B30DDE548508DE554C08DE5FDFAFFEAE5
S214003A0048409DE548C09DE5003094E504C08CE242
S214003A10C35FA0E10340A0E10320A0E148C08DE51C
S214003A200530A0E1BDFAFFEA48409DE548C09DE5A7
S214003A30002094E50050A0E30240A0E104C08CE220
S214003A40052052E00120A01348C08DE50130A0E318
S214003A507AFBFFEA48409DE548C09DE5002094E5D6
S214003A600050A0E30240A0E104C08CE2052052E032
S214003A700120A01348C08DE570FBFFEA010076E345
S214003A8020B0C7E30660A0030300000A47005BE31C
S214003A900100001A000056E30160A00320409DE5E7
S214003AA0000055E3014C84E33C408DE52DC0A0B3F7
S214003AB00040A0A344408DA5025185B244C08DB5F8
S214003AC046305BE2004073E20340B4E0000054E39B
S214003AD06900000A0310A0E342008DE880108DE222
S214003AE008108DE584108DE20C108DE588108DE2AF
S214003AF00920A0E10530A0E110108DE540009DE50D
S214003B007C0200EB47005BE30080A0E10200001AA5
S214003B1020C09DE501001CE3BA00000A000054E343
S214003B20064088E00400000A0030D8E5300053E381
S214003B301A01000A80309DE5034084E00900A0E1F8
S214003B400510A0E10020A0E30030A0E397F8FFEB0B
S214003B50000050E30800001A88309DE5030054E199
S214003B600340A0910400009A3020A0E30120C3E4A3
S214003B70040053E188308DE5FBFFFF1A044068E03F
S214003B8047005BE34C408DE5A100000A650057E363
S214003B90360100DA660057E380309DE5D600000A5D
S214003BA04CC09DE50C0053E1C90000BA20409DE5DD
S214003BB0010014E301408312C3CFC301C4CFC41174
S214003BC028C08D0538308D0538408D1528C08D15D8
S214003BD06770A0E354308DE544C09DE500005CE3CB
S214003BE08400000A3C409DE52D30A0E300C0A0E321
S214003BF07B30CDE520408DE544C08DE57FFAFFEAB9
S214003C0040009DE530109DE59C208DE2DA0E00EB2D
S214003C10000050E3FFF9FF1AA4509DE5D0A08DE206
S214003C20D9FCFFEA48409DE520C09DE5003094E5BC
S214003C3040001CE32CC09DE5044084E248408DE52E
S214003C40B0C0C31100C0830551F9FFEA40009DE5EE
S214003C504010A0E31E0800EB30C09DE5000050E3D6
S214003C6000008CE510008CE5FA00000A30C09DE5E7
S214003C704030A0E314308CE537F9FFEA45005BE3FB
S214003C809100001A014086E20210A0E312008DE8BF
S214003C9080108DE208108DE584108DE20C108DE505
S214003CA088108DE20920A0E10530A0E110108DE516
S214003CB040009DE50F0200EB0080A0E1044080E09C
S214003CC09DFFFFEA40009DE530109DE59C208DE2BB
S214003CD0A90E00EB000050E3CEF9FF1A80709DE5B8
S214003CE0A4509DE5D0A08DE206FFFFEA0860A0E1A3
S214003CF038809DE5014084E2075085E0070054E3E4
S214003D00C0008AE8A4508DE5A0408DE508A08AD2C0
S214003D10080000DA40009DE530109DE59C208DE20D
S214003D20950E00EB000050E3BAF9FF1AA0408DE2B2
S214003D30300094E8D0A08DE2014084E24CC09DE5BE
S214003D401DFCFFEA40009DE530109DE59C208DE2BD
S214003D50890E00EB000050E3AEF9FF1AA0408DE29A
S214003D6080709DE5300094E8D0A08DE2FAFEFFEA70
S214003D70690E00EB44408DE538008DE5C04FC0E18C
S214003D8018FFFFEA40009DE530109DE59C208DE27F
S214003D90790E00EB000050E39EF9FF1AA4509DE553
S214003DA0D0A08DE265FDFFEA40009DE530109DE560
S214003DB09C208DE2700E00EB000050E395F9FF1A90
S214003DC080309DE54CC09DE5A4509DE50C3063E039
S214003DD0D0A08DE206FEFFEA060056E30660A023AA
S214003DE0C64FC6E138608DE528408DE548508DE524
S214003DF0B0871FE5A1FAFFEA3CC09DE57B30DDE514
S214003E0020C08DE5FBF9FFEA88309DE5033060E0D1
S214003E104C308DE580109DE5030071E30130A0E194
S214003E20010000BA010056E15CFFFFAA027047E2FB
S214003E30011041E2000051E380108DE5001061B2F0
S214003E402D30A0B32B30A0A3090051E38C70CDE534
S214003E508D30CDE5330000CA301081E23030A0E36B
S214003E608F10CDE58E30CDE590308DE24C409DE54F
S214003E708C208DE2032062E002C084E0010054E35F
S214003E8068208DE538C08DE5660000DA38309DE59F
S214003E90013083E2C34FC3E100C0A0E338308DE5B4
S214003EA028408DE554C08DE54AFFFFEAC6CFC6E13F
S214003EB044008DE528C08DE57B30DDE548508DE576
S214003EC038608DE554008DE5CAF9FFEA0210A0E3DC
S214003ED000FFFFEA000053E34C409DE5022063D25A
S214003EE00120A0C3042082E0C2CFC2E138208DE5C5
S214003EF028C08DE56770A0E335FFFFEA000053E3B6
S214003F003F0000DA000056E32E00001A20409DE530
S214003F10010014E32B00001AC3CFC3E128C08DE5CF
S214003F2038308DE52AFFFFEA9A308DE2E8281FE553
S214003F309241C0E0C12FA0E1402162E0020182E090
S214003F40800041E00210A0E1090051E30320A0E157
S214003F50303080E20030C2E5013042E2F2FFFFCAB4
S214003F609BC08DE2301081E203005CE1011042E567
S214003F704000009A8D008DE20230A0E1000000EAC9
S214003F800110D3E40C0053E10110E0E5FBFFFF1A3B
S214003F9011CE8DE28C3062E0F63043E2B2FFFFEAEB
S214003FA00030A0E30900A0E10510A0E10020A0E396
S214003FB07EF7FFEB000050E30130660280308D058F
S214003FC0DCFEFF0ADAFEFFEA016086E2066083E0B6
S214003FD0C64FC6E138608DE528408DE5FCFEFFEA59
S214003FE048409DE5006094E5040084E2000056E346
S214003FF00170D3E548008DE50C30A0E10060E0B329
S2140040008FF8FFEA000056E30D00001A20C09DE579
S21400401001001CE30A00001A0140A0E328408DE5D9
S21400402038408DE5EAFEFFEA20409DE5013014E2C7
S21400403095FFFF1ACCCFCCE128C08DE554308DE536
S214004040E4FEFFEA026086E2C64FC6E138608DE510
S21400405028408DE5DEFEFFEA40409DE50C30A0E3FB
S21400406000C0E0E3003084E52CC08DE5EFF8FFEA01
S21400407080109DE56DFFFFEA8E308DE27AFFFFEA45
S214004080E4C09FE5F0412DE900409CE548C194E579
S21400409000005CE353CF840204509CE548C18405CD
S2140040A01F0055E310D04DE20060A0E1150000DAD5
S2140040B0B8009FE5000050E30100001A0000E0E3AE
S2140040C0180000EA190EA0E30C108DE508208DE517
S2140040D004308DE500F020E300C050E20C109DE5B2
S2140040E008209DE504309DE5F3FFFF0A485194E55E
S2140040F00000A0E304008CE500508CE548C184E590
S21400410088018CE58C018CE5000056E304409CE5B4
S2140041100700001A023084E2014084E203118CE7B3
S21400412004408CE50000A0E310D08DE2F041BDE82D
S2140041301EFF2FE10100A0E31004A0E104818CE043
S214004140020056E388719CE5083188E58C319C05B1
S214004150007087E1000083010850A0E1882088E510
S21400416088718CE58C018C05E9FFFFEA6CA30000E2
S21400417000000000F04F2DE968319FE5003093E520
S21400418014D04DE204308DE5523F83E208008DE501
S2140041900C308DE50170A0E10180A0E304309DE5C0
S2140041A0486193E5000056E30CB09DE53300000A35
S2140041B0045096E5014055E288A086521F5085526D
S2140041C005518A500700005A290000EA003095E59C
S2140041D0070053E10500000A014044E2010074E3D1
S2140041E0045045E22200000A000057E3F6FFFF1ADB
S2140041F0043096E505206AE0013043E2022086E0BE
S214004200040053E1783012E50010A0130440860540
S21400421078100215000053E3EEFFFF0A1824A0E111
S214004220881196E5010012E1049096E51600000A52
S2140042308C1196E5010012E11600001A08009DE5B3
S214004240801015E50FE0A0E113FF2FE1043096E59E
S214004250090053E1D0FFFF1A00309BE5060053E14A
S214004260CDFFFF1A014044E2010074E3045045E22A
S214004270DCFFFF1A70109FE5000051E30900001AEA
S21400428014D08DE2F04FBDE81EFF2FE10FE0A0E155
S21400429013FF2FE1ECFFFFEA800015E50FE0A0E139
S2140042A013FF2FE1E8FFFFEA043096E5000053E332
S2140042B0003096E50800001A000053E30600000AE6
S2140042C00600A0E100308BE500F020E300609BE5EF
S2140042D0000056E3B5FFFF1AE8FFFFEA06B0A0E1CC
S2140042E00360A0E1F9FFFFEA6CA3000000000000F5
S2140042F008402DE910309FE5000053E30C009F15A1
S214004300C8F6FF1B0840BDE81EFF2FE160A50000B1
S214004310C05B000000000000F84F2DE9103090E56B
S214004320106091E5030056E100A0A0E10150A0E175
S2140043300000A0C36D0000CA033086E20331A0E18E
S214004340039081E0041099E503308AE0040093E5C9
S214004350011081E2A11400EB007050E2016046E219
S214004360049089E2144085E214808AE23000000A54
S21400437000C0A0E30820A0E10430A0E10C00A0E10A
S21400438004E093E40EB8A0E12BB8A0E12EE8A0E18B
S21400439097CB2BE0970E0CE000E092E52BC88CE064
S2140043A00E18A0E1211880E00BB8A0E10C08A0E1EF
S2140043B02B1841E02008A0E12E0860E001B8A0E13B
S2140043C0410880E02B18A0E1001881E1030059E1C4
S2140043D02CC8A0E14008A0E1041082E4E7FFFF2A11
S2140043E0043086E203318AE0042093E5000052E3BD
S2140043F00F00001A030058E1042083E20B00002A95
S214004400042012E5000052E30800001A043043E2DC
S214004410030000EA002093E5000052E3043043E284
S2140044200200001A030058E1016046E2F8FFFF3A76
S21400443010608AE50A00A0E10510A0E18D0A00EBF5
S214004440000050E3280000BA017087E20830A0E1BF
S2140044500020A0E3045094E400C093E50518A0E112
S2140044600C08A0E12118A0E1201861E0021081E00C
S2140044702528A0E12C2862E00108A0E1412882E07E
S2140044802018A0E1021881E1040059E14228A0E1C9
S214004490041083E4EEFFFF2A043086E203318AE04C
S2140044A0042093E5000052E30F00001A030058E1D1
S2140044B0042083E20B00002A042012E5000052E3E9
S2140044C00800001A043043E2030000EA002093E5E7
S2140044D0000052E3043043E20200001A030058E1F1
S2140044E0016046E2F8FFFF3A10608AE50700A0E1A7
S2140044F0F84FBDE81EFF2FE1F04F2DE9401090E584
S2140045007CD04DE2000051E30060A0E1AC409DE5A8
S21400451010208DE514308DE50700000A443090E544
S2140045200120A0E31223A0E1043081E5082081E504
S2140045309D0800EB0030A0E3403086E514A09DE522
S21400454000005AE30130A0B30030A0A3003084B5C9
S214004550003084A570359FE502A1CAB368259FE5A3
S2140045600A10A0B103300AE014108DB5020053E122
S2140045701600000A10508DE2300095E80020A0E3F7
S2140045800400A0E10510A0E10030A0E307F6FFEB71
S214004590000050E31E00000AB0409DE5A8C09DE55F
S2140045A00130A0E3000054E300308CE59A00000AD6
S2140045B0E8449FE5B0C09DE500408CE5014044E23C
S2140045C00400A0E17CD08DE2F04FBDE81EFF2FE195
S2140045D010209DE5C8349FE5A8409DE5000052E305
S2140045E0003084E57900000AB8449FE5B0C09DE538
S2140045F000005CE3F1FFFF0A0330D4E5B0C09DE5A0
S214004600000053E3083084120330840200308CE547
S214004610EAFFFFEA74308DE200308DE570308DE2FF
S21400462004308DE50600A0E10420A0E10530A0E1FD
S214004630C80A00EB8A70A0E1A77AB0E100B0A0E15A
S2140046406A00001A70809DE574709DE5413EE0E3C7
S214004650077088E0030057E1DA0100BA410E87E2EE
S21400466010C09DE5020080E23C00A0E11F3083E21E
S214004670033067E01A0380E132F4FFEB0140A0E369
S21400468060408DE51F1641E2017047E20020A0E37E
S21400469014349FE566F3FFEBFA3F8FE20C0093E8D5
S2140046A068F4FFEBF93F8FE20C0093E861F3FFEB51
S2140046B00040A0E10700A0E10150A0E12AF4FFEBD2
S2140046C03D3E8FE20C0093E85EF4FFEB0020A0E195
S2140046D00130A0E10400A0E10510A0E155F3FFEBD6
S2140046E00040A0E10150A0E1021400EB0510A0E19B
S2140046F00090A0E10020A0E30400A0E10030A0E3C9
S214004700B0F5FFEB000050E3A601001A160059E3CF
S2140047100140A0834C408D850A00008AA0339FE5A7
S214004720893183E0030093E810308DE20C0093E8B3
S214004730B6F5FFEB000050E300C0A0134CC08D158B
S2140047404C008D0501904912087067E0017057E231
S2140047500070674200C0A0430040A0532C708D45F7
S21400476028C08D4528708D552C408D55000059E386
S214004770840100BA28C09DE50040A0E309C08CE093
S21400478028C08DE548908DE53C408DE5A0409DE530
S214004790090054E32200008A050054E3044044C2A2
S2140047A0A0408DC5A0C09DE502304CE20040A0C3ED
S2140047B00140A0D3030053E303F19F971A0000EAD9
S2140047C0604E0000F8510000EC510000B8510000A7
S2140047D0FF44CAE30F46C4E3C8329FE5CC229FE5F8
S2140047E0000054E30240A0010340A0117EFFFFEA50
S2140047F0FF34C5E30F36C3E30400A0E1FF3583E3CF
S214004800FF7F47E20040A0E3031683E3037047E21E
S21400481070809DE560408DE59BFFFFEA90429FE536
S21400482066FFFFEA0040A0E3A0408DE50040A0E35D
S214004830444086E50600A0E10410A0E1B70700EBBF
S21400484000C0E0E344C08DE538C08DE501C0A0E3BC
S21400485024008DE5400086E540C08DE5A4408DE54A
S21400486074309DE5000053E3AB0000BA0E0059E338
S214004870A90000CAA4409DE538C09DE540329FE5EA
S214004880A42FA0E100005CE30020A0C3012002D218
S214004890893183E0000052E3060093E818108DE5A6
S2140048A01C208DE54703001A10508DE2300095E875
S2140048B00230A0E10400A0E10120A0E10510A0E183
S2140048C084F4FFEB8B1300EB0070A0E1A6F3FFEB84
S2140048D018308DE20C0093E8DAF3FFEB0130A0E12C
S2140048E00020A0E10510A0E10400A0E1D0F2FFEB5B
S2140048F024C09DE5303087E20130CCE430C08DE541
S21400490038C09DE501005CE30040A0E10150A0E155
S21400491030C09DE53900000A0020A0E3AC319FE5D9
S214004920C8F3FFEB0020A0E30030A0E30040A0E1C6
S2140049300150A0E11DF5FFEB000050E37F04001AD4
S21400494024C09DE538109DE501808CE020908DE523
S21400495010808DE502A08CE218908DE2000399E8A5
S21400496028608DE5080000EAB6F3FFEB0020A0E320
S2140049700030A0E30040A0E10150A0E10BF5FFEB02
S214004980000050E301A08AE2AF03001A0820A0E16D
S2140049900930A0E10400A0E10510A0E14DF4FFEB12
S2140049A0541300EB0070A0E16FF3FFEB0820A0E1CA
S2140049B00930A0E1A3F3FFEB0020A0E10130A0E165
S2140049C00400A0E10510A0E199F2FFEB10C09DE500
S2140049D00C005AE130C087E20040A0E10150A0E19F
S2140049E00020A0E3E4309FE501C04AE50A60A0E1AC
S2140049F0DCFFFF1A20909DE528609DE50AC0A0E137
S214004A000420A0E10530A0E10400A0E10510A0E12B
S214004A1008C08DE587F2FFEB0040A0E10150A0E161
S214004A200420A0E118108DE2030091E80530A0E113
S214004A30E4F4FFEB000050E308C09DE50A00001A0E
S214004A4018108DE2030091E80420A0E10530A0E1F3
S214004A5008C08DE5D5F4FFEB000050E308C09DE5E7
S214004A607C03000A010017E37A03000A01805CE574
S214004A7024409DE564908DE50C90A0E130109DE506
S214004A80170000EA0000A0E161436F63A787D23FEA
S214004A90B3C8608B288AC63FFB799F501344D33F28
S214004AA0D5A300000F270000E4A300000000F83F95
S214004AB0D8A30000D4A30000EEFBFFFF0000F03FE9
S214004AC0F8A4000008A40000000014400000F07FD6
S214004AD00000244000001C400000E03F028059E532
S214004AE00390A0E1390058E30920A0E1013049E233
S214004AF0C203001A010059E1F7FFFF1A24208DE5D2
S214004B0064C09DE53020A0E30020C3E501908CE260
S214004B103180A0E30080C3E58B0000EA40409DE5BD
S214004B20000054E3AC00001A3C509DE52C409DE587
S214004B3040A09DE528C09DE500005CE3000054C34E
S214004B40090000DA0C30A0E12CC09DE5040053E11A
S214004B500430A0A10CC063E02CC08DE528C09DE504
S214004B600CC063E028C08DE5044063E03CC09DE5D2
S214004B7000005CE3150000DA40C09DE500005CE341
S214004B802B03000A000055E30D0000DA0A10A0E12E
S214004B900520A0E10600A0E1380800EB00A0A0E197
S214004BA00B20A0E10A10A0E10600A0E1BA0700EB86
S214004BB00B10A0E10070A0E10600A0E1FA0600EBF1
S214004BC007B0A0E13CC09DE505205CE05D03001A4F
S214004BD00600A0E10110A0E3A60700EB48C09DE593
S214004BE000005CE30070A0E1040000DA0710A0E11A
S214004BF00600A0E10C20A0E1200800EB0070A0E178
S214004C00A0C09DE501005CE37E0200DA0050A0E350
S214004C1048C09DE500005CE30100A0034702001ABF
S214004C2028C09DE50C3080E01F3013E2D401000A56
S214004C30202063E2040052E3DC0300DA1C3063E267
S214004C402CC09DE503C08CE02CC08DE528C09DE5FA
S214004C5003C08CE028C08DE5034084E02CC09DE5B1
S214004C6000005CE3040000DA0B10A0E10600A0E1FF
S214004C700C20A0E13E0800EB00B0A0E128C09DE5B6
S214004C8000005CE3040000DA0710A0E10600A0E1E3
S214004C900C20A0E1360800EB0070A0E14CC09DE5BA
S214004CA000005CE32B02001AA0C09DE538109DE5CD
S214004CB002005CE30030A0D30130A0C3000051E343
S214004CC00030A0C3000053E37001000A38409DE5A1
S214004CD0000054E36801001A0710A0E10520A0E3D5
S214004CE00430A0E10600A0E1B60600EB0070A0E1EB
S214004CF00710A0E10B00A0E15E0800EB000050E307
S214004D005D0100DA24309DE53120A0E30120C3E4F4
S214004D1024409DE524308DE5019089E20050A0E313
S214004D200600A0E10710A0E19F0600EB00005AE392
S214004D300500000A0A0055E1000055139801001A04
S214004D400600A0E10A10A0E1970600EB0600A0E12D
S214004D500B10A0E1940600EBB0C09DE500005CE3FC
S214004D6024C09DE50020A0E30020CCE5A8C09DE57A
S214004D70013089E200308CE524C09D15B0109D15E9
S214004D8000C081150DFEFFEA2CC09DE50CC069E051
S214004D902CC08DE5004069E200C0A0E33C408DE5F4
S214004DA048C08DE578FEFFEA0900A0E16EF2FFEB51
S214004DB00420A0E10530A0E1FCF3FFEB000050E387
S214004DC00190490250FEFFEA18031FE510109DE50A
S214004DD0000067E01100A0E126FEFFEAA0C09DE506
S214004DE001005CE3DC0200DA38C09DE53C409DE54E
S214004DF001504CE2050054E13CC09DB548409DB5CD
S214004E0005306CB038C09DE5034084B0045065A002
S214004E1048408DB53C508DB50050A0B300005CE313
S214004E202C109DB52C409DA538309DA501406CB03A
S214004E300030A0B32CC09DE503C08CE02CC08DE5EF
S214004E4028C09DE50600A0E103C08CE00110A0E3A9
S214004E5028C08DE5070700EB00A0A0E134FFFFEABD
S214004E6000C0A0E340C08DE5A4109DE5000051E31E
S214004E70620200DA44108DE538108DE50180A0E16D
S214004E800E0051E30040A083014004920010A0E30E
S214004E90170058E3441086E50800009A0120A0E3B6
S214004EA00430A0E38330A0E1140083E2080050E160
S214004EB00210A0E1012082E2F9FFFF9A441086E585
S214004EC00600A0E1150600EB000054E324008DE583
S214004ED0400086E561FEFF0A000059E3340100DA6F
S214004EE024241FE50F3009E24972A0E1833182E0F5
S214004EF0100017E3300093E82301000A44341FE54E
S214004F0010108DE2030091E8203083E20C0093E855
S214004F10F0F2FFEB30008DE534108DE50F7007E200
S214004F200380A0E3000057E30C00000A74A41FE50A
S214004F300400A0E10510A0E1010017E30200000A4A
S214004F400C009AE83FF2FFEB018088E2C770B0E100
S214004F5008A08AE2F7FFFF1A0040A0E10150A0E196
S214004F6030108DE2030091E80420A0E10530A0E1B6
S214004F70D8F2FFEB30008DE534108DE54C409DE512
S214004F80000054E30600000A30108DE2030091E8AA
S214004F900020A0E3E0341FE58AF3FFEB000050E3B7
S214004FA03502001A0800A0E1EFF1FFEB30308DE289
S214004FB00C0093E823F2FFEB0020A0E3F0341FE59B
S214004FC01CF1FFEB38C09DE500005CE30040A0E16B
S214004FD00D5541E29400000A64908DE538A09DE5E9
S214004FE040C09DE500005CE30F01000A30351FE578
S214004FF08A3183E00C0013E90000A0E32C151FE5BE
S214005000B4F2FFEB0420A0E10530A0E108F1FFEBCD
S21400501050008DE554108DE530108DE2030091E8C8
S214005020B41100EB0070A0E1CFF1FFEB0020A0E18F
S2140050300130A0E130108DE2030091E8FCF0FFEBB8
S214005040307087E224C09DE5FF8007E20180CCE453
S2140050500040A0E10150A0E10420A0E150108DE244
S214005060030091E80530A0E130C08DE567F3FFEB63
S214005070000050E330C09DE5C702001A0420A0E1FE
S2140050800530A0E10000A0E3D4151FE508C08DE5BB
S214005090E7F0FFEB0020A0E10130A0E150108DE228
S2140050A0030091E859F3FFEB000050E308C09DE5CC
S2140050B05002001A01005AE3E8FDFFDA24C09DE51D
S2140050C030709DE50AA08CE06C908DE568608DE5FB
S2140050D00A90A0E158B08DE507A0A0E150708DE2DF
S2140050E0C00097E8070000EAD1F0FFEB0620A0E139
S2140050F00730A0E133F3FFEB000050E33A02001A5A
S21400510009005AE14102000A0020A0E344361FE5E8
S2140051100600A0E10710A0E1CAF1FFEB0020A0E323
S21400512058361FE50060A0E10170A0E10400A0E190
S2140051300510A0E1C3F1FFEB0150A0E10040A0E1A3
S2140051406C1100EB0080A0E187F1FFEB0020A0E1EE
S2140051500130A0E10400A0E10510A0E1B4F0FFEBEF
S214005160308088E2FF8008E20180CAE40620A0E1E1
S2140051700730A0E10150A0E10040A0E111F3FFEBF1
S214005180000050E30420A0E10530A0E10000A0E309
S214005190DC161FE50AB0A0E1D2FFFF0A24409DE519
S2140051A00A70A0E158B09DE568609DE564909DE5B5
S2140051B024A08DE5E4FEFFEA01C0A0E340C08DE533
S2140051C0A4C09DE509C08CE001808CE2000058E395
S2140051D044C08DE5910100DA0E0058E30040A0833C
S2140051E00140049238808DE527FFFFEA01C0A0E366
S2140051F040C08DE51BFFFFEA00C0A0E340C08DE580
S214005200EEFFFFEA0800A0E157F1FFEB30308DE239
S2140052100C0093E88BF1FFEB0020A0E350371FE56E
S21400522084F0FFEB0040A0E10D5541E20020A0E332
S21400523070371FE530108DE2030091E87CF0FFEB3D
S2140052400420A0E10530A0E10070A0E10180A0E10B
S214005250EEF2FFEB00A050E27000001A0420A0E17E
S214005260023185E20700A0E10810A0E1D5F2FFEBCD
S214005270000050E379FDFF0A0A70A0E1A4C09DE596
S21400528024409DE50C90E0E10050A0E3A3FEFFEA79
S21400529040C09DE500005CE3EE00001A0040A0E37D
S2140052A038509DE524809DE5050000EA0B10A0E13E
S2140052B00600A0E10A20A0E30030A0E3410500EBD1
S2140052C000B0A0E10710A0E10B00A0E111FCFFEB8D
S2140052D0300080E20400C8E7014084E2050054E1A3
S2140052E0F1FFFFBA24C09DE538409DE50030A0E1FF
S2140052F0010054E304C08CA001C08CB20050A0E3AF
S2140053000B10A0E10120A0E30600A0E10C308DE523
S21400531008C08DE5960600EB0710A0E100B0A0E1FE
S214005320D40600EB000050E30C309DE508C09DE578
S214005330BA0100DA24409DE5014084E201305CE5D4
S21400534030408DE50C10A0E130009DE5010000EA3C
S214005350023051E50210A0E1390053E3012041E29A
S214005360CD01001A000051E1F8FFFF1A3130A0E32A
S21400537024409DE5019089E20030C2E524108DE5C9
S21400538066FEFFEA1C30A0E32CFEFFEA10308DE23A
S2140053900C0093E80280A0E330208DE534308DE5E4
S2140053A0DFFEFFEA0600A0E10510A0E1FE0400EB28
S2140053B062FEFFEA004069E2000054E32801000AAA
S2140053C004391FE50F2004E2823183E010108DE2DD
S2140053D0030091E80C0093E81AF1FFEB4442B0E1B9
S2140053E030008DE534108DE5D201000A34591FE5F2
S2140053F00280A0E3010014E30200000A0C0095E816
S21400540010F1FFEB018088E2C440B0E1085085E26D
S214005410F7FFFF1A30008DE534108DE5D6FEFFEA63
S2140054200070A0E307A0A0E135FEFFEA70191FE5B3
S21400543001C04AE28C1181E00420A0E10530A0E121
S214005440030091E850C08DE5FEF0FFEB58008DE5B7
S2140054505C108DE530108DE2030091E8A51000EB9E
S2140054600070A0E1C0F0FFEB0020A0E10130A0E159
S21400547030108DE2030091E8EDEFFFEB24C09DE5D0
S214005480307087E20170CCE401005AE30040A0E1EE
S2140054900150A0E130C08DE51900000A24C09DE54A
S2140054A001304CE20C70A0E10AA083E00020A0E3EB
S2140054B0E8391FE5E3F0FFEB0150A0E10040A0E172
S2140054C08C1000EB0080A0E1A7F0FFEB308088E2B4
S2140054D00020A0E10130A0E10400A0E10510A0E159
S2140054E0D3EFFFEB0180E7E50A0057E1EEFFFF1A76
S2140054F00150A0E150209DE530109DE50040A0E160
S21400550002C081E00020A0E3383A1FE558108DE283
S214005510030091E808C08DE5C6EFFFEB0420A0E18C
S2140055200530A0E127F2FFEB000050E308C09DE540
S214005530EE00000A01805CE524409DE54DFDFFEA93
S214005540103097E5033187E0100093E5100500EB77
S214005550200060E2B1FDFFEA0B00A0E10710A0E129
S214005560440600EB000050E3CEFDFFAA0B10A0E1BE
S2140055700600A0E10A20A0E30030A0E3910400EBBF
S21400558040C09DE500005CE300B0A0E1019049E268
S2140055906E01001A44409DE5A0C09DE5000054E35E
S2140055A00030A0C30130A0D302005CE30030A0D3DB
S2140055B0000053E338408D0537FFFF0A44C09DE5E1
S2140055C038C08DE5C0FDFFEA38409DE5000054E395
S2140055D01E01001A0020A0E3183B1FE518108DE2FC
S2140055E0030091E897F0FFEB10308DE20C0093E893
S2140055F000F2FFEB38709DE5000050E307A0A0E145
S2140056001DFFFF1ABEFDFFEA10109DE5000051E3E6
S2140056107DFDFF1A14309DE5FF24C3E30F26C2E389
S214005620000052E32101001A645B1FE5055003E009
S214005630000055E375FDFF0A2CC09DE501C08CE215
S2140056402CC08DE528C09DE501C08CE228C08DE504
S2140056500150A0E36DFDFFEA000054E3040000DA09
S2140056600A10A0E10600A0E10420A0E1C00500EBBE
S21400567000A0A0E1000055E30A80A001F600001A91
S21400568038109DE524C09DE501C08CE024409DE5D2
S2140056902CC08DE510C09DE5014084E201C00CE2FF
S2140056A030408DE50A50A0E120C08DE538908DE5AC
S2140056B02E0000EA0600A0E10310A0E10C208DE514
S2140056C0390400EB0C209DE5A0C09DE50CC092E1DE
S2140056D00200001A20C09DE500005CE30901000AF4
S2140056E000005AE3A60000BAA0C09DE50CC09AE1EF
S2140056F00200001A20C09DE500005CE3A000000A3E
S214005700000052E3EB0000CA2CC09DE50C0054E1FB
S214005710019044E504C0A0E1F100000A0B10A0E1EE
S2140057200600A0E10A20A0E30030A0E3250400EB79
S214005730080055E100B0A0E12800000A0510A0E12D
S2140057400A20A0E30030A0E30600A0E11D0400EB61
S2140057500810A0E10050A0E10A20A0E30600A0E1A6
S2140057600030A0E3170400EB0080A0E1014084E2D3
S2140057700710A0E10B00A0E1E6FAFFEB0510A0E1A0
S21400578010008DE50B00A0E1BA0500EB0820A0E1B3
S21400579000A0A0E10710A0E10600A0E1CE0500EB06
S2140057A001C044E20C2090E528C08DE510C09DE5C0
S2140057B0000052E30030A0E130908CE20120A013FC
S2140057C0BBFFFF1A0310A0E10B00A0E10C308DE533
S2140057D0A80500EB0C309DE50020A0E1B4FFFFEA31
S2140057E00510A0E10600A0E10A20A0E30030A0E337
S2140057F0F40300EB0050A0E10080A0E1DAFFFFEA2E
S2140058000130A0E344308DE538308DE5A4308DE5D9
S2140058100010A0E3441086E5044003E0A7FDFFEA7D
S2140058200E0058E30030A0830130A09338808DE549
S214005830F6FFFFEA0B10A0E10600A0E13C209DE584
S2140058400E0500EB00B0A0E1E0FCFFEA06C0A0E118
S21400585020909DE528609DE524409DE524C08DE5CB
S21400586039FDFFEA10408DE2180094E80280A0E3BC
S21400587030308DE534408DE5BFFDFFEA38C09DE54C
S21400588000005CE35EFEFF0A44409DE5000054E332
S214005890F2FBFFDA0020A0E3D03D1FE530108DE2DA
S2140058A0030091E8E7EFFFEB30008DE534108DE55F
S2140058B0010088E2ACEFFFEB0020A0E10130A0E1A0
S2140058C030108DE2030091E8DEEFFFEB0020A0E34E
